S00E00006D32305F6965732E73333777
S214012000C00A0020913601008D3601008D36010090
S214012010496C01008D3601008D3601008D360100B8
S2140120208D3601008D3601008D3601008D3601009A
S2140120308D36010044B803001D3001008D360100C5
S2140120408D3601008D3601008D3601008D3601007A
S2140120508D3601008D3601008D3601008D3601006A
S2140120608D3601008D3601008D3601008D3601005A
S2140120708D3601008D3601008D3601008D3601004A
S2140120808D3601008D360100A97701008D360100DD
S2140120908D360100593C01008D3601008D36010058
S2140120A08D3601007D3D0100593D01008D36010050
S2140120B08D360100C58D03008D360100B1970300F2
S2140120C06997030065970300A18F0300AD9703008E
S2140120D06D9703008597030071970300119803001D
S2140120E035700300FD710300F19703008D36010082
S2140120F01D6101008D3601008D3601008D3601000F
S2140121008D3601008D3601008D3601008D360100B9
S2140121108D3601008D3601008D3601008D360100A9
S2140121208D3601008D3601008D3601008D36010099
S2140121308D3601008D360100213201002D3201005D
S21401214010B5054C237833B9044B13B1044800E0AD
S21401215000BF0123237010BD840F00200000000083
S2140121601003040008B5034B1BB10349034800E004
S21401217000BF08BD00000000880F00201003040007
S214012180A3F5803A704700BF174B002B08BF134BCF
S2140121909D46FFF7F5FF00218B460F461348144A6C
S2140121A0121A27F0BAFF0E4B002B00D098470D4BA2
S2140121B0002B00D098470020002104000D000D4898
S2140121C0002802D00C4800E000BF27F03BFF2000AB
S2140121D0290000F03DFE27F021FF00BF00000800A7
S2140121E00000000000000000C00A0020840F00204C
S2140121F0282C002000000000000000000621836A51
S21401220018470821836A18470279002102F0FE0266
S214012210C368027118470279002142F00102C368BF
S214012220027118474279012142F00402C3684271E3
S21401223018474279012102F0FB02C3684271184730
S214012240437910B403F01F031943CAB2C3680121CE
S2140122505DF8044B42711847037910B403F00F037D
S2140122601943CAB2C36800215DF8044B02711847CE
S214012270037910B423F00E031943CAB2C3680021D0
S2140122805DF8044B027118474279012122F00202DF
S21401229042F00202C3684271184738B504460D463B
S2140122A08369011D9847E3792B7038BD036982B0B5
S2140122B0019102B0184700001FB500238DF80710E2
S2140122C08DF80D100222806803A98DF80C3002F0FB
S2140122D0E1F890B9032001F045F870B1084C0949BE
S2140122E0206803F062FF01F05DF801F08FF80649FF
S2140122F020680DF1070203F058FF04B010BD00BFBF
S214012300D810002050B2030055B20300FF2313B5C6
S2140123108DF801308DF802308DF8033004238900E2
S21401232041F020018DF80010806869460DEB03022C
S21401233002F08AF880B9032001F014F860B1084C65
S2140123400849206803F031FF01F02CF801F05EF82F
S2140123500549206803F029FF9DF8040002B010BD6E
S214012360D810002050B2030074B2030037B50446FB
S2140123701C4805F04DFA636A20469847194805F04F
S21401238047FA6E232370D02363704023A370002383
S214012390E3702168236920469847124805F038FA09
S2140123A02046A369211D9847032000F0DBFF90B16A
S2140123B00D4D0E49286803F0F8FE00F0F3FF01F01A
S2140123C025F8E37922790193A379094900932868CE
S2140123D0637903F0EAFE034805F01AFA002003B019
S2140123E030BD00BFA0860100D810002050B2030007
S2140123F0A3B203002DE9F04106460024134D144F05
S21401240005EB040801224146B06802F001F880B9E4
S214012410032000F0A7FF60B10E49386803F0C5FE3F
S21401242000F0C0FF00F0F2FF42460B49386803F0A7
S214012430BCFE0134032CE3D12888AB7840BA80B2C5
S21401244043EA002040F31700BDE8F081A00F00200A
S214012450D810002050B20300CCB2030013B5890097
S21401246041F040018DF804108DF8052080680222A5
S21401247001A902F00FF880B9032000F073FF60B1E4
S214012480074C0849206803F090FE00F08BFF00F02F
S214012490BDFF0549206803F088FE02B010BD00BFED
S2140124A0D810002050B20300E9B203001FB5432242
S2140124B08DF80820C1F307228DF80A20C1F30742E0
S2140124C00B0E01918DF809108DF80B2080680522FE
S2140124D002A98DF80C3001F0DDFF80B9032000F071
S2140124E041FF60B1074C0849206803F05EFE00F02A
S2140124F059FF00F08BFF0549206803F056FE04B033
S21401250010BD00BFD810002050B20300E9B203008E
S214012510232313B58DF80030FF230A468DF80130CA
S2140125208DF802308DF803308DF8043069460523A6
S214012530806801F089FF80B9032000F013FF60B1C5
S214012540074C0849206803F030FE00F02BFF00F02E
S2140125505DFF0549206803F028FE02B010BD00BFEC
S214012560D810002050B2030074B2030010B5044620
S2140125705C2027F08BFD144A8460C260134A026116
S214012580134A4261134A8261134AC261134A0262C4
S214012590134A4262134A8262134AC262134A0263B0
S2140125A0134A4263134A8263134AC263134A02649C
S2140125B0134A4264134A8264134AC264134A026588
S2140125C0134A826510BD00BF5D240100AD240100E1
S2140125D00D230100112501006D23010003220100D6
S2140125E0FD210100B92201009B220100AD2201005C
S2140125F017220100092201002522010041220100C3
S21401260071220100592201003322010089220100B2
S214012610F523010037B50B213D2002F0A9FC01216D
S2140126203D2002F04BF904F069FE80B9032000F06A
S21401263099FE60B1184C1949206803F0B6FD00F008
S214012640B1FE00F0E3FE1649206803F0AEFD01245A
S21401265000252346224629462046CDE9005403F0AC
S2140126600DF902222B4611462046CDE9004403F01F
S21401267005F90321282002F07BFC2146282002F0E0
S2140126801DF9202027F002FD064B196800F0AEFB6D
S214012690054B186003B030BDD810002050B20300BF
S2140126A019B30300E80B0020A40F0020014B1868A3
S2140126B000F0DBB9A40F002070B50368A04A23F42C
S2140126C07F4323F00703934288B005D09D4A934287
S2140126D000F04E8108B070BD0DF10F0104A819F08D
S2140126E037FE044630B3984D9849286803F05DFDDF
S2140126F09749286803F059FD00F054FE00F086FE65
S214012700944B954A009395497123286803F04DFD33
S2140127102346934A9349286803F047FD204600F074
S2140127209DFE9149286803F040FD8849286803F01A
S2140127303CFDFEE79DF8153001468DF818309DF8F2
S214012740143008228DF819309DF8133012208DF8B8
S2140127501A30FF238DF81B30FE238DF81C309DF8B0
S21401276012308DF81D309DF811308DF81E309DF811
S21401277010308DF81F3006AB19F0A6FD054630B3B4
S214012780714C7249206803F010FD7149206803F00E
S2140127900CFD00F007FE00F039FE6E4B6E4A00930A
S2140127A06E498123206803F000FD2B466C4A6D4973
S2140127B0206803F0FAFC284600F050FE6A492068BB
S2140127C003F0F3FC6149206803F0EFFCFEE7674E77
S2140127D0304619F005FD054630B35B4C5B49206871
S2140127E003F0E3FC5A49206803F0DFFC00F0DAFD51
S2140127F000F00CFE574B584A009358498523206831
S21401280003F0D3FC2B46564A5649206803F0CDFC0C
S214012810284600F023FE5449206803F0C6FC4B49C5
S214012820206803F0C2FCFEE70221307819F012FDA1
S214012830044630B3444D4549286803F0B6FC444984
S214012840286803F0B2FC00F0ADFD00F0DFFD414B5F
S214012850414A009341498A23286803F0A6FC23468F
S2140128603F4A4049286803F0A0FC204600F0F6FDE8
S2140128703D49286803F099FC3449286803F095FC23
S214012880FEE7A022034600901146307819F0C0FCFE
S214012890054630B32C4C2D49206803F086FC2C49A4
S2140128A0206803F082FC00F07DFD00F0AFFD294BAF
S2140128B0294A009329499323206803F076FC2B4686
S2140128C0274A2849206803F070FC284600F0C6FD18
S2140128D02549206803F069FC1C49206803F065FC63
S2140128E0FEE70221307819F0C9FC054600283FF4BE
S2140128F0F1AE154C1549206803F057FC14492068C1
S21401290003F053FC00F04EFD00F080FD114B124A1F
S214012910009312499723206803F047FC2B46104A80
S2140129201049206803F041FC284600F097FD0E4947
S214012930206803F03AFC0549206803F036FCFEE700
S214012940A0000100A0000601D810002034B4030046
S2140129502BB303006EB3030030B3030039B3030097
S21401296045B3030048B303005DB30300C00A00206B
S2140129702E4C0221207819F06DFC054630B32C4C04
S2140129802C49206803F011FC2B49206803F00DFC4C
S21401299000F008FD00F03AFD284B294A009329492A
S2140129A0A523206803F001FC2B46274A2749206807
S2140129B003F0FBFB284600F051FD2549206803F093
S2140129C0F4FB1C49206803F0F0FBFEE702212078A7
S2140129D019F054FC054600283FF47CAE144C15490A
S2140129E0206803F0E2FB1449206803F0DEFB00F0E8
S2140129F0D9FC00F00BFD114B114A00931149AA2393
S214012A00206803F0D2FB2B460F4A1049206803F0DA
S214012A10CCFB284600F022FD0D49206803F0C5FBDB
S214012A200449206803F0C1FBFEE700BFC00A00208E
S214012A30D810002034B403002BB303006EB3030098
S214012A4030B3030039B3030045B3030048B30300B2
S214012A505DB3030070B506460C200D46144627F0FC
S214012A6015FBC0E90065846070BD70B50446456815
S214012A702B68002B00DA70BD22689A420CD12046E2
S214012A806B68984740B1AB682360EB68002BF2D0C7
S214012A902046BDE8704018471035E9E78368187E80
S214012AA070478368587E70478368987F031F584233
S214012AB0584170478368987E18B1987F043818BFCC
S214012AC001207047836801209A7FD87602449A775E
S214012AD070478368187F18B1D87FB0FA80F0400934
S214012AE070478368187F18B1D87F003818BF012057
S214012AF070478368DB6913F0FF2F0CBF01200020AD
S214012B0070478368587F18B1D87FB0FA80F04009C3
S214012B1070478368D87F7047002210B583685C6968
S214012B205A765A839B7F022B0AD80122064B2046EF
S214012B301A61236D98472046236ABDE8104018475E
S214012B40032BF2D010BD00BF00E0035000228368C3
S214012B501A7701225A767047002310B58468606997
S214012B606383836D9847A37F043324F8130010BD55
S214012B704FF4807283689A837047002283685A777D
S214012B80704701230B767047022801BF0122024BD2
S214012B901B681A70704700BFAC0F002038B50023C1
S214012BA084686068237604F0E3FB80B9032000F0B4
S214012BB0D9FB60B11D4D1E49286803F0F6FA00F0F6
S214012BC0F1FB00F023FC1B49286803F0EEFA012212
S214012BD0194B60691A61C369984798B9032000F0D8
S214012BE0C1FB60B1114D1249286803F0DEFA00F00E
S214012BF0D9FB00F00BFC1149286803F0D6FA012333
S214012C00637638BD032000F0ADFB0028F9D0074CF1
S214012C100749206803F0C9FA00F0C4FB00F0F6FB90
S214012C2020680749BDE8384003F0BFBAD810002035
S214012C3050B203007DB3030000D0035095B30300E8
S214012C40B4B30300012806D1034B1A681378B3FA0C
S214012C5083F35B0913707047A80F002013B5002299
S214012C60052183685A77CDE900210A210D4A586863
S214012C7004F0DCFB98B9032000F074FB78B10A4C31
S214012C800A49206803F091FA00F08CFB00F0BEFBC5
S214012C900749206802B0BDE8104003F086BA02B0CA
S214012CA010BD00BF832B0100D810002050B20300D6
S214012CB0D5B30300002330B5846885B06069A37777
S214012CC0436D98472389DFED456A9B1207EE103A5C
S214012CD0B8EEC77A27EE267A63898DED007A9B12C5
S214012CE007EE103AB8EEC77A27EE267AA3898DED5D
S214012CF0017A9B1207EE103AE389B8EEC77A9B1267
S214012D0007EE903AF8EEE77A27EE267A67EEA67A8D
S214012D10102168468DED027ACDED037A00F0ACF80D
S214012D20002859D1032000F01DFB88B12C4D2D49F8
S214012D30286803F03AFA00F035FB00F067FB0098CC
S214012D4026F07CFF02460B462868274903F02DFA39
S214012D50032000F007FB88B1214D2249286803F0C3
S214012D6024FA00F01FFB00F051FB019826F066FFE5
S214012D7002460B4628681C4903F017FA032000F0A8
S214012D80F1FA88B1164D1749286803F00EFA00F0DB
S214012D9009FB00F03BFB029826F050FF02460B466B
S214012DA02868114903F001FA032000F0DBFA88B124
S214012DB00B4D0C49286803F0F8F900F0F3FA00F01F
S214012DC025FB039826F03AFF02460B46286806497B
S214012DD003F0EBF90123237705B030BD0000003D79
S214012DE0D810002050B20300EDB3030070B50446BE
S214012DF00025012621610846C4E90255C4E9066595
S214012E00FFF7B4FB60611C2027F040F90B496060B6
S214012E10304600F08FFF0A4B04F11F0202200949D9
S214012E201A6000F087FF084B04F11A0228461A6060
S214012E3006492246BDE87040FFF70CBE452C01004E
S214012E40A80F0020892B0100AC0F0020C40A002027
S214012E5008B504F0C5FCFFF7DDFB04F0CEFCFFF778
S214012E6025FCFAE70144013A814200D1704711F886
S214012E70013D02F8013FF7E72DE9F0478C08E31D15
S214012E8023F0070300AFADEB030D6A462146FFF7BB
S214012E90E9FF06466B462246002115206D4619F0CD
S214012EA013FAA0B9032000F05DFA80B1DFF864815F
S214012EB05649D8F8000003F078F900F073FA00F0EC
S214012EC0A5FA32785249D8F8000003F06EF92A467E
S214012ED02146152019F026FA28B94E4B32784E496C
S214012EE0186803F062F906EB04082A4621464046B4
S214012EF0FFF7B8FF2B4622460021182019F0E4F907
S214012F00A0B9032000F02EFA80B1DFF808913F49FE
S214012F10D9F8000003F049F900F044FA00F076FA17
S214012F20325D3B49D9F8000003F03FF92A462146B5
S214012F30182019F0F7F928B9364B325D364918686A
S214012F4003F033F908EB04092A4621464846FFF701
S214012F5089FF2B46224600211B2019F0B5F9A8B996
S214012F60032000F0FFF988B1DFF8A8A02749DAF8B6
S214012F70000003F01AF900F015FA00F047FA16F807
S214012F8014202349DAF8000003F00FF92A462146F7
S214012F901B2019F0C7F930B91E4B16F814201E492C
S214012FA0186803F002F92A46214609EB0400FFF7E8
S214012FB059FF2B46224600211E2019F085F990B9AB
S214012FC0032000F0CFF970B1124E1049306803F0BB
S214012FD0ECF800F0E7F900F019FA18F814200C499B
S214012FE0306803F0E2F82A4621461E2019F09AF9C5
S214012FF0054630B9074B18F814200749186803F03E
S214013000D4F82846BD46BDE8F08700BF50B203009D
S21401301002B40300D81000201BB4030008F090BBD4
S21401302004F030BC10B5044600F00CF92046FFF75A
S21401303043FB10BD0120704700B5C3B008F0CAFAC3
S21401304008F0F3FA48B1FFF7F5FF30B101A819F01F
S214013050C0F810B901A8FFF7E5FF43B05DF804FB1F
S21401306000F027BA08B50321802001F081FF032173
S2140130704FF4806001F07CFF03214FF4906001F073
S21401308077FF08214FF4C06001F072FF08214FF46A
S214013090F06001F06DFF08213E2001F069FF082174
S2140130A02D2001F065FF002008BD10B501213A2052
S2140130B001F004FC002304221946184602F036FCEF
S2140130C0002301221946104602F030FCBDE81040EC
S2140130D0012200230221104602F028BC08B5184B35
S2140130E01B68C3F30743012B0ED1164B04205A6EFF
S2140130F04FF480231449520358BF144A4B6601F516
S2140131001041086258BF536602F028FF00F0E5F947
S21401311002F0B0FE02F040FF02F0CEFE02F002FF27
S21401312002F006FFFFF79EFF02F0B4FE00F0CAF9B8
S21401313000F06EFB00F034FEBDE8084003F0EABD87
S2140131400080E00F008000500090005000A000506A
S21401315008B500F0ADFBFFF7A8FF00F0D3FD00F0C7
S21401316067F8BDE8084000F0EDB908B502F05AFE70
S21401317002F068FEBDE80840FFF752BF00F048B90C
S21401318070477047FFF758BF704708B503F036F829
S214013190BDE8084000F042B808B500F088F904F030
S2140131A0ADF802F0FBFE03F0FFF906F0E3FE03F0D4
S2140131B099FC05F0C1FB07F0E3F8BDE80840FFF70E
S2140131C0E4BF000070B5124E9AB0354607AC0FCD7D
S2140131D00FC495E80F0006F1200584E80F000FCD17
S2140131E00FAC0FC40FCD0FC495E8070006F14C03D2
S2140131F084E807000FCB03AC84E80F00054B21469B
S214013200009307AA0FAB044803F084F81AB070BD08
S21401321024B70300B00F002030100020FFF7D2BF04
S214013220014B186803F070B930100020FFF7F8BFA3
S214013230024B0349186800F0BDBF00BFE80B002031
S214013240EC0B0020036837B523F47F433A4A23F09A
S21401325007039342044664D002F18272934268D116
S214013260B0F80510222964D10122344B00791A7076
S214013270002219F03FF8054630B3314C3149206839
S21401328002F093FF3049206802F08FFF00F08AF8C1
S21401329000F0BCF82D4B2E4A00932E493F232068A0
S2140132A002F083FF2B462C4A2C49206802F07DFF52
S2140132B0284600F0D3F82A49206802F076FF214913
S2140132C0206802F072FFFEE7207918F0EBFF054652
S2140132D000282ED01A4C1B49206802F066FF1A49B6
S2140132E0206802F062FF00F05DF800F08FF8174BDF
S2140132F0174A009317494323206802F056FF2B46CE
S214013300154A1649206802F050FF284600F0A6F834
S2140133101349206802F049FF0A49206802F045FF78
S214013320FEE7064B1B7823B103B0BDE8304004F03E
S2140133309BBA03B030BD00BFA0000601D410002028
S214013340D810002034B403002BB30300EEB70300FB
S21401335080B7030039B3030045B3030048B3030045
S2140133605DB303000B4B02461B788BB10A4B1B78EF
S214013370834234BF00200120084B1B783BB1084B29
S2140133801B7843FA02F212F0010F08BF00207047C3
S2140133900120F1E70C0C00200D0C0020DC100020B1
S2140133A00E0C002073B504F071F84FF47A740E46D3
S2140133B0054604F085F80246A5FB0401002304FB3C
S2140133C0061126F093FC4EF66023B0FBF4F23C2186
S2140133D0B0FBF3F304FB12040194B2FBF1F4B3FB6C
S2140133E0F1F501FB14220092054A01FB1533B0FBEF
S2140133F0F2F204480449006802F0D7FE02B070BD3C
S21401340080EE3600D81000200EB80300704700008A
S214013410012208B5074B1A700022074B1A700322C7
S214013420064B1A701F22064B1A7002F085FE054BDA
S214013430186008BD0C0C0020DC1000200D0C0020CC
S2140134400E0C0020D8100020024B0349186802F029
S214013450ACBE00BFD810002021B8030070B50C4CDC
S2140134600C490646206802F0A0FE02F065FE0546FD
S214013470206802F055FE3046FFF7E6FF284602F0C8
S2140134804FFE20680449BDE8704002F08EBE00BFC2
S214013490D810002023B8030025B80300042208B57D
S2140134A001231146184602F041FA002008BDFFF735
S2140134B0F5BF042208B511460023012002F036FAB2
S2140134C0002008BD08B501213A2001F0F7F9FFF701
S2140134D0C7FDBDE8084000F047B801213A2001F0D9
S2140134E0EDB970B50024064625465B21082000F09C
S2140134F03BFA102C04F1010300D170BD012B14D04E
S214013500022B14D0032B14D0042B14D0052B04D17A
S2140135106A1C2946D5B21C46E8E70D3C012C0CD99D
S214013520102B0CD0B21FD15CF5E70C21F3E7D121AB
S214013530F1E78021EFE70021EDE75A21EBE75D2176
S214013540E9E7000007B5082000F002FA02238DF82B
S2140135500030044B68460193FFF7C3FF03B05DF8E4
S21401356004FB00BF006A18102DE9F047434D88B0F0
S21401357001AC0FCD0FC495E80700012584E80700CC
S21401358001213A2001F09AF9DFF8FC800121282078
S21401359001F094F93A4B404601A903938DF8125075
S2140135A002F0F8FA2B4604220021022002F0BEF9AE
S2140135B02A4629460023022002F0B8F902212B46AA
S2140135C00846042202F0B2F904222B4611460020D6
S2140135D002F0ACF94FF002132A4C0226C4F830363A
S2140135E0A3F58033C4F82C361C231027C4F83466A0
S2140135F004F5005AC4F81C364FF4487004F008F974
S21401360004F580591420CAF8107004F001F923203B
S214013610C9F8107004F0FCF8B9214046CAF81070D9
S21401362002F018FB002330461A461946C9F81070F6
S21401363002F07CF9002329461A46304602F076F954
S2140136402B4631463046002202F070F900222B4606
S2140136501046042102F06AF9404602F06DFA002194
S2140136602820C4F83016C4F82C16C4F83416C4F84A
S2140136701C1601F023F908B0BDE8F08728B803004E
S21401368000127A0000C0035000C00550FEE700009B
S21401369008B500F02DF8124B12498B4212D30020C8
S2140136A0114B12498B4218D3FEF76EFD186850F87D
S2140136B02240586840F82240013298688242F5D389
S2140136C00C33EAE70022F8E71C6844F822000132CE
S2140136D05C68A242F8D30833E4E70022F8E700BFAB
S2140136E01803040024030400240304002403040034
S2140136F04FF400414FF0FF30124B134A10B59A6059
S214013700D3F8882042F47002C3F888200F4A9166E5
S21401371001F1884101F5005210664FF6DF705066E0
S2140137200220C3F8D000BFF34F8FBFF36F8F08247A
S2140137304FF440330648C0F88041D36004600B6103
S21401374010BD00BF00ED00E0002001000090005019
S21401375000E100E0014B1868704700BF140C002020
S214013760084B1B6F03F00703022B04D0032B05D075
S214013770012B05D0FEE7044B18687047034BFBE7A7
S2140137800348704700800050140C0020180C0020DD
S214013790002D310108B5FFF7E3FF054B1B6FC3F39F
S2140137A003330133B0FBF3F0024B186008BD00BFD2
S2140137B000800050100C00200048704700B4C4047C
S2140137C0014B1868704700BF180C0020054B1860A5
S2140137D0054B1B6F03F00703032B01D1FFF7DABF7D
S2140137E0704700BF180C0020008000500020704772
S2140137F000487047002D31014FF4004070474FF4E8
S2140138007A707047014B1868704700BF1C0C002087
S2140138100020836A10B5B3F5903F0AD2064C227891
S21401382012F0FD0F04D1DB69984708B90123237014
S21401383010BD4FF48170FBE7DD1000204FF0005300
S214013840074A1A60BFF34F8F0649074BCA6802F44E
S214013850E0621343CB60BFF34F8F00BFFDE700BFAD
S21401386002020FF000ED00E00400FA0500230360F9
S214013870704703680B6001607047036803B97047BF
S2140138808B4202D10B68036070471846F5E70000CB
S21401389005490A681318054883428CBF4FF0FF326A
S2140138A00B601046704700BF200C002000800020EF
S2140138B008B501213A2001F001F803210123042271
S2140138C0002002F033F8002001F0D6FF0122194B48
S2140138D04FF46070C3F8442401F012F8164B00F55B
S2140138E0D520D3F8F02000F2FC4042F00102C3F8E4
S2140138F0F020D3F8FC2042F08072C3F8FC200F4A77
S214013900A3F55D431A600E4B0222B0FBF3F00D4B9C
S21401391001381861C3F8F0204FF48072C3F804230D
S2140139204FF06043084A0020C3F8B02F074AC3F897
S214013930802E08BD00D0035000ED00E0FF030040DC
S214013940F8590D00000004E055CEACC50900010091
S2140139504FF060420123D2F8001E03FA00F008433C
S214013960C2F8000E002070474FF06043D3F8802E57
S21401397030B5D20715D501240B4D8440D5F8FC206F
S21401398042F08072C5F8FC20D3F8002E2243C3F81B
S214013990002E53F82020002AF0D003F82010002033
S2140139A030BD1120FCE700BF00ED00E02DE9F04F2F
S2140139B09A46564B85B01B7806460F461546DDF8E7
S2140139C03C909DF844B0DDF85080002B00F08D80CF
S2140139D0072A00F28C800E9B002B00F08880B9F13C
S2140139E0000F00F08480129BB3F5006F7FDC012886
S2140139F002D1109B002B7AD0454B03EB05131B7BA2
S214013A00002B76D0434C10220021684626F085FB19
S214013A1004EB45141022002F59D13946204626F0D2
S214013A207CFB43F210036380BBF1000F03D1E37804
S214013A3043F00303E370374A0E9B02EB451CCCE9C7
S214013A400193129B6901013BC3F30A009DF84C30B8
S214013A50012E03F003034FEA836343EA001E535823
S214013A602D48CDF800A000EA03004EEA00035350AB
S214013A7041D113230CF1100ECCF80C309CE80F004A
S214013A808EE80F006FF00301DCF81C20109B61F339
S214013A909F02012FCCF81C20CCF8143003D1CCF8AF
S214013AA01890CCF804300027194A290102EB0513B7
S214013AB042F80180159A28465A60694622469F6058
S214013AC05E7301F0A7FF384605B0BDE8F08F002110
S214013AD0204626F022FB4FF444736380BBF1000FAF
S214013AE0A9D1E37843F03003A4E70C48ECE70C488F
S214013AF0EAE70C48E8E7B8F1000FD4D19CF80230A9
S214013B0068F304138CF80230CDE700BF6012002082
S214013B10E0100020601100200F80FFF3028000F00B
S214013B20018000F0078000F038B5124B05461B787F
S214013B30DBB1E0B101F0C3FB0F4A00231146147B51
S214013B4054B92B6001251A0101EB03131D738C5028
S214013B5001F0BBFB204638BD0133082B02F11002F1
S214013B60EDD101F0B2FB0548F5E70548F3E7054856
S214013B70F1E700BF60120020E0100020048000F092
S214013B80028000F0018000F0154B13B51868002381
S214013B9001908DF8043001F092FB124B1C7824B191
S214013BA001F093FB104802B010BD01221A7001F01B
S214013BB08CFB0E4B01A81C731C7783F82C4083F8F2
S214013BC03C4083F84C4083F85C4083F86C4083F8B3
S214013BD07C4008238DF8073001F0EAFE2046E2E734
S214013BE094B8030060120020038000F0E01000206B
S214013BF010B588B00E9C009207940D9C0246069460
S214013C009DF8304005940B9C04949DF8284003943D
S214013C100024CDE9013420460B462146FFF7C6FEB7
S214013C2008B010BD10B588B00E9C009207940D9C8C
S214013C30024606949DF8304005940B9C04949DF82A
S214013C40284003940024CDE9013420460B46012187
S214013C50FFF7ACFE08B010BD2DE9F843174B1F6DFA
S214013C605B6D1F4000D5FEE701260025144CDFF8EA
S214013C705480DFF85490374217D02368C8F8506054
S214013C809BB1A168284601316268A1609847637BB1
S214013C90012B0AD148B909EB45131A7B60F341029F
S214013CA01A731A7F60F341021A770135082D4FEA1D
S214013CB0460604F11004DED1BDE8F8830000045086
S214013CC0E0100020002004506011002070B504466A
S214013CD001250B4E04B970BD94FAA4F0B0FA80F039
S214013CE005FA00F306EB001224EA03045368002BDE
S214013CF0F0D0117B11B191689847EBE79847E9E757
S214013D006412002008B5192001F0E2FA28B14FF03C
S214013D100072074BC3F880211A601A2001F0D8FA06
S214013D2028B14FF08062024BC3F880211A6008BDAB
S214013D3000E100E038B505460C4601F0C0FA002265
S214013D40044B03EB05135C601A73BDE8384001F0C1
S214013D50BCBA00BF64120020074BD3F82404D3F882
S214013D60202403F50053104000F0553020F0502079
S214013D70C3F82004FFF7AABF00C00350074BD3F8CF
S214013D802404D3F8202403F50053104000F0AA3091
S214013D9020F0A020C3F82004FFF798BF00C003500E
S214013DA0024B1968024B18681DF06CBF280C0020E6
S214013DB0240C00207047000037B5920004460D46DB
S214013DC0019227F035FA431C0BD060B929462046EC
S214013DD0019A26F06BF90028044808BF002003B0BA
S214013DE030BD0348FBE70348F9E700BF10E000F0E9
S214013DF021E000F024E000F013B5044601A801F02C
S214013E0079FE9DF80630012223804FF4807300204E
S214013E106380054B9B680A3303F01F0302FA03F322
S214013E20636002B010BD00BF0080E00F01F050BE1D
S214013E3008B501F03DFE002008BD10B5044644EA71
S214013E40010313F00303084609D1934201D1002070
S214013E5010BD54F8231040F823100133F5E721462E
S214013E60920026F033F9F2E710B5044627F0E8F998
S214013E70431C15D0B0B90C4B20469B680A3303F09F
S214013E801F020123934023F003032344984201D1E8
S214013E90002010BD50F8042B0132F7D00348F8E794
S214013EA00348F6E70348F4E70080E00F0EE000F071
S214013EB021E000F024E000F008B501F0F9F9014B2B
S214013EC0186008BDF81A0020014B186801F0F4B913
S214013ED0F81A00200A460139014402F05FBE0123A8
S214013EE0816480F85430704738B50546B0B1B9B131
S214013EF0B2B1B2F5006F13DC01F0E1F995F84C3080
S214013F0003F0FF041BB101F0E0F9064838BD0123B8
S214013F1085F84C3001F0D9F92046F7E70248F5E775
S214013F200248F3E7032000F0012000F0022000F031
S214013F3010B50446152001F0D9F930B994F854307B
S214013F40002BFBD005E0FFF787FE94F85430002BDA
S214013F50F9D010BD70B5054601F0B1F9AC6D064655
S214013F60013CAC654CB901F0A3F905462146012098
S214013F7002F000FF284601F09FF93046BDE8704088
S214013F8001F0A3B938B5144601F099F90023A364EA
S214013F9084F84C302364237F0546012B03D104F1BA
S214013FA0600003F0E5F9636B1BB100212046E26B6C
S214013FB09847284601F089F92046FFF7CBFF0120F4
S214013FC038BD70B5044601F07AF9A36D05464BB9C4
S214013FD001F06EF901210646084602F0CBFE304696
S214013FE001F06AF9A36D28460133A365BDE8704068
S214013FF001F06BB92DE9F04390460022436390F837
S2140140005C300446894687B080F85420C0F83C806E
S21401401043BB4FF4406346690568092E6B6124D99A
S214014020012605F12C0744352046FFF7CAFF154B3C
S2140140304A46CDE902630123216B0093A06A3B4601
S2140140400494CDF80480FFF7EDFD00232A46CDE960
S21401405003330093CDE90186E16A606A04F118032F
S214014060FFF7C6FD07B0BDE8F083A6F109030BBF55
S21401407005F1200705F1240738353C355E425E41DF
S214014080D2E700BF853F01002DE9F0471F46002318
S21401409088B080F85430109B0446436390F85C3037
S2140140A08846C76353BB4FF4406346690568092ECB
S2140140B06B6126D9012605F12C0944354FF0010A1A
S2140140C020460792FFF77DFF144B079ACDE902635E
S2140140D0216B4B46A06A04940197CDF800A0FFF728
S2140140E0A1FD00232A46CDE90333CDE901764346F7
S2140140F0E16A606ACDF800A0FFF77AFD08B0BDE876
S214014100F087A6F109030BBF05F1200905F1240983
S21401411038353C355E425E41D0E700BF853F010041
S2140141202DE9F04717460022436390F85C300446B9
S214014130884686B080F85420C7634BBB4FF4406373
S21401414046690568092E6B6125D9012605F12C0AF9
S21401415044354FF000092046FFF733FF144B216B1F
S214014160CDE9026304F138025346A06A049401972C
S214014170CDF80090FFF756FD01232A460093CDE9BE
S21401418003994346CDE90176E16A606AFFF730FD9F
S21401419006B0BDE8F087A6F109030BBF05F1200ABA
S2140141A005F1240A38353C355E425E41D1E700BF51
S2140141B0853F01002DE9F04104468B4F8AB003AEDE
S2140141C00D460FCF0FC697E8070086E80700002CBC
S2140141D000F008811DB985480AB0BDE8F08180224B
S2140141E00021204625F099FF2B68814A934240F032
S2140141F0B180282222654FF480224FF000087D4FBF
S214014200C4E90B7226462F4646F8043B0FCF0FC66D
S21401421097E80F0086E80F006B7E012B08BF8DF82C
S2140142201A30AB7E33B1012B40F0A2804FF40073FD
S214014230ADF81C302B7E0121012B03BF00238DF826
S21401424019304FF47A73EB683A20059300F036FB89
S2140142500121206D00F032FB2B691A1F0C2ABAD8F7
S214014260033B286803A98DF8183001F093FCAB696D
S21401427023F47F0323F47F4323B92268936843F42E
S214014280803393602B7A2879697940EA03406B7A08
S214014290AA7941EA0341AB7AEE7E42EA0342564BE3
S2140142A04FEA48184344002E6DD11D26C3F81C66FC
S2140142B0C3F83406C3F82C16C3F83026E97AEA792F
S2140142C042EA0142C3F82026E37BE27A84F84530CD
S2140142D0237F207A677AA57A217B94F80D80A67BC6
S2140142E084F84420002B58D10422019301F01EFBD0
S2140142F0019B01224146384601F018FBA27F314658
S214014300012A8CBF0123019B0422284601F00EFBE3
S214014310E37F3BB90123042294F8451094F8440046
S21401432001F004FB00F0CBFF344B1A78002A4ED183
S21401433001221A7000F0C9FF02F0E0FFFFF724FC2B
S214014340002104F12400FFF7EFFB0146002841D0CD
S2140143502B4841E72B4A93427FF43DAF2922226541
S2140143604FF4A02228484FF00108C4E90B0249E7A0
S214014370022B02D14FF480735AE7032B7FF42BAF45
S2140143804FF4407354E71C25C3F81C56C3F8340693
S214014390C3F82C16C3F8302696E70023012201F055
S2140143A0C5FA002304224146384601F0BFFAA37F2E
S2140143B00222012B94BF002301233146284601F037
S2140143C0B5FAE37F002BADD101230222A4E700F06A
S2140143D07CFFB3E704F12800FFF7A6FB00283FF4B3
S2140143E0FBAEB5E70948F7E6BCB80300022000F0CB
S2140143F000C005500200040000C00350AC1B0020A2
S214014400092000F00000065002000500012000F01F
S21401441070B5037F0446012B0D4616460DD0FFF7F7
S21401442063FD48B9324629462046054BFFF7E2FDB3
S2140144302046FFF77DFDA06C70BD0248FCE700BF7B
S214014440DF3E0100082000F07FB51546027F0446D6
S214014450012A0E4613D01A460393FFF745FD60B9AD
S2140144607DB1094A31462046039B00922A46FFF752
S2140144700BFE2046FFF75CFDA06C04B070BD034840
S214014480FBE70348F9E700BFDF3E0100082000F024
S214014490022000F070B5037F0446012B0D46164638
S2140144A00DD0FFF721FD48B9324629462046054B77
S2140144B0FFF736FE2046FFF73BFDA06C70BD0248B5
S2140144C0FCE700BFDF3E0100082000F0034B5A68FE
S2140144D012B19A6A002AFAD1704700BF004006500E
S2140144E0024A936A0342FCD1704700BF004006505F
S2140144F038B543680146B3FA83F3C3F11F04134B7F
S2140145005B680BB1FFF7E2FF0125114B20205D60D0
S214014510FFF7E6FF0B7A0D48002B14BF022200229C
S2140145204B7843EA0413134383604B7A002B14BF82
S214014530022200228B7A13434362064B5D600B789E
S21401454013B1FFF7C3FFC56038BD00BF004006507A
S214014550006006500050065008B51020FFF7C0FF57
S214014560024B1963BDE80840FFF7BABF004006508A
S214014570014B186B704700BF0040065008B5FFF7A7
S214014580A5FF02230449CB6000230B62FFF79EFFC1
S2140145900123CB6008BD00BF00400650044BD3F892
S2140145A08420D206FBD4D3F88400C0F38110704770
S2140145B00040005038B5104B0546D3F820310C4664
S2140145C003F00303022B0BD0032B0DD0012B0FD1CD
S2140145D0FFF7C0F8052305B1286004B1236038BD94
S2140145E0FFF7EEF80323F6E7FFF702F90223F2E7F7
S2140145F000231846EFE700BF0080005073B50D4654
S21401460000210E4B0191D3F88041064604F00304C5
S214014610012C09D0022C0CD00C460EB1019B336044
S21401462005B12C6002B070BD01A8FFF7C3FF0F24CF
S214014630F3E7FFF7DDF80190EFE700BF00800050D9
S21401464038B5174B0546D3F824310C4603F007035B
S214014650013B052B20D8DFE803F0030F171B0B13D4
S214014660FFF778F8052305B1286004B1236038BD4B
S214014670FFF770F80623F6E7FFF7A2F80323F2E741
S214014680FFF79EF80423EEE7FFF7B2F80223EAE706
S214014690FFF7ACF80723E6E700231846E3E700BF79
S2140146A00080005038B5104B0546D3F840310C4613
S2140146B003F00303022B0BD0032B0DD0012B0FD1DC
S2140146C0FFF79AF8092305B1286004B1236038BDC5
S2140146D0FFF798F80823F6E7FFF791F80B23F2E7C0
S2140146E000231846EFE700BF0080005038B5134B93
S2140146F00546D3F800320C4603F00703013B032BB3
S21401470018D8DFE803F0020A0E12FFF775F809233E
S21401471005B1286004B1236038BDFFF773F808239C
S214014720F6E7FFF76CF80B23F2E7FFF733F80E23F3
S214014730800AEDE700231846EAE700BF0080005034
S21401474038B5104B0546D3F840320C4603F0030348
S214014750022B0BD0032B0DD0012B0FD1FFF74CF8FA
S214014760092305B1286004B1236038BDFFF74AF874
S2140147700823F6E7FFF743F80B23F2E70023184672
S214014780EFE700BF0080005038B5104B0546D3F860
S21401479060310C4603F00303022B0BD0032B0DD024
S2140147A0012B0FD1FFF728F8092305B1286004B1C2
S2140147B0236038BDFFF726F80823F6E7FFF71FF852
S2140147C00B23F2E700231846EFE700BF00800050F6
S2140147D010B40D4C0B46D4F8204204F00304012C0F
S2140147E00AD0022C0CD008B1002101600BB10022C6
S2140147F01A605DF8044B70475DF8044BFFF7DABEAC
S2140148005DF8044BFFF74EBF00800050B0F5207FE7
S2140148101FD009D8B0F5007F15D003D868B1B0F520
S214014820C07F0AD000200CE0B0F5607FFAD10B4BB8
S214014830D3F88000C0F3011003E0084B186FC0F3F3
S214014840033001307047054BD3F89000C0F3046085
S214014850F7E7024B186FC0F38020F2E700800050A4
S2140148604FF400320E4B014610B500209A66FFF752
S214014870CDFF41F6713248430A490B4B88428CBF43
S2140148804FF480100020DC69DA639A6822F4401243
S21401489002439A60E20344BF0022DA6310BD00BF00
S2140148A000900050005A62020000035008B5FEF75F
S2140148B083FFBDE808400021FFF7D2BF420910B5CB
S2140148C010D0012A10D00B4B0B4C022A18BF2346DE
S2140148D000F01F0051B103F58053012202FA00F0E7
S2140148E0186010BD1346F3E7044BF1E703F50053D8
S2140148F0F3E700BF6880005060820050648000507B
S2140149001FB5002380280446019371D02AD80028B9
S21401491072D0A0F12004412C32D8412C30D8DFE8E7
S21401492004F06B6E6B6E7D7D7D7D6E6E873C9D6249
S2140149303C6E6E6E2F2F2F2F2F2F82546E6E6EA70A
S214014940A26E2F2F2F2F2F2F2F2F2F2F2F2F2F6B83
S2140149502F6B6B6B7D2F2F2F2F2F2F2F2F2F2F2F5F
S2140149602F2F6B6BB0F5806F58D021D8B0F5007F34
S2140149704FD008D8B0F5807F5FD0B0F5C07F3BD070
S214014980019804B010BDB0F5607F42D0F8D8B0F5FC
S214014990207F34D0B0F5407FF2D1FEF7FBFE024611
S2140149A04FF42070FFF732FFB2FBF0F0400821E031
S2140149B0B0F5C06F52D00DD8B0F5A06F33D0B0F5BA
S2140149C0B06F35D0B0F5906FDAD1002101A8FFF7AE
S2140149D037FED5E7B0F5E06F45D0B0F5F06F47D0BC
S2140149E0B0F5D06FCCD1002101A8FFF77FFEC7E755
S2140149F0FEF7B6FE0190C3E7FEF7CCFEFAE7FEF738
S214014A00C9FE02464FF42070FFF700FFB2FBF0F03C
S214014A10F0E7FEF7A5FE02462046F5E7002101A8CD
S214014A20FFF7C8FDACE7002101A8FFF7D1FEA7E715
S214014A30002101A8FFF7E2FDA2E702934FF0E02371
S214014A401B695B0705D5FEF7A5FE0290029B019345
S214014A5096E703A902A8FFF725FEF7E7002101A8BC
S214014A60FFF720FE8CE7002101A8FFF769FE87E724
S214014A70002101A8FFF788FE82E7000008B5802024
S214014A80FFF73EFF034B98429EBF4FF48032024B26
S214014A901A6708BD005A620200A000501FB5002325
S214014AA0B0F5807F019377D028D8382800F094801D
S214014AB00BD82438092810D809280ED8DFE800F0CA
S214014AC0676767670D0D620D377D52285FD008D87E
S214014AD03D283BD03E2800F08480019805B05DF863
S214014AE004FB8028F9D1414B1B6F03F00703013B00
S214014AF0032BF2D8DFE803F044413F6CB0F5D06FEA
S214014B005BD019D8B0F5A06F66D00AD8B0F5806F23
S214014B103DD0B0F5906FE0D1002001A9FFF790FDE0
S214014B20DBE7B0F5B06F2DD0B0F5C06FD5D1002062
S214014B3001A9FFF7B7FDD0E7B0F5006FECD00AD8B2
S214014B40B0F5E06F4DD0B0F5F06FC6D1002001A9E9
S214014B50FFF71AFEC1E7B0F5086FBED1234BD3F8B5
S214014B60003103F00303022B2CD0032B2ED0012B94
S214014B7030D1FEF725FE032300E005230193ACE7C1
S214014B800223FBE7002001A9FFF738FDA5E7002077
S214014B9001A9FFF70FFDA0E702934FF0E0231B6981
S214014BA05B0705D5FEF7F6FD0C230393039BE5E7AC
S214014BB003A902A8FFF776FDF8E7002001A9FFF791
S214014BC095FD8AE7FEF71EFE0823D7E7FEF70EFEE1
S214014BD00723D3E70123D1E7002001A9FFF7F8FD5A
S214014BE07BE7002001A9FFF7ABFD76E700800050C8
S214014BF008B5FFF753FF082811D00938012811D846
S214014C004FF40012094B4FF6FF705A6603F5D8337E
S214014C105B6A13F0010F18BF4FF4FA7008BD044B1E
S214014C201888FBE74FF6FF70F8E700BF00900050CA
S214014C30480C002070B504468020FFF72FFF03289C
S214014C4000F082804FF40022444B02215A6645F65A
S214014C500E03434AC2F88030424B9962012103F5A4
S214014C6080539962936DD903FCD4D4E900131B05D4
S214014C7043EA0163E17B94F822500B43217B94F8CD
S214014C80236043EA0143617B43EA0133A17B43EAA4
S214014C90811313619169D4E904031B0643EA806317
S214014CA001F000410B43A17EE07E0B43217E43EAE7
S214014CB00143617E43EA01239361E369126A002B93
S214014CC00CBF0021082122F00D0242EA030242EA4B
S214014CD08002234B42EA01021A6294F820204FEA2E
S214014CE0421232D1986A94F8211020F0330042EA39
S214014CF00112024342F001029A621B4A996D32EA9E
S214014D000101FBD1022217498A621A659A6D520087
S214014D10FCD41869A26820F4700040EA02504FF0F3
S214014D20004218610F4B9A611DB9022203F58053A8
S214014D309A6216B901220D4B9A6294F824301BB17F
S214014D40074B0B4AC3F8802070BD996A21F03301E6
S214014D5031430A4342EA4502EEE700BF00900050A5
S214014D6000C0005000D000500300014000E0005099
S214014D70F1A7FFFF014B93F900007047AD1B002020
S214014D80F0B5D0E901434FF480061A4A4178057818
S214014D9056664FF4D156022702F5B8325662164EC1
S214014DA04F2977604FF0010728BF4F2106F580563F
S214014DB077601669F603FCD441EA052151611B01AF
S214014DC0417B43EA04230B43017B43EA410393609F
S214014DD0C37B817B1B0143EA4113417C0B43017C6E
S214014DE043EA41035360837C13B16FF4D15353629A
S214014DF0F0BD00BF0090005000100250014B18801B
S214014E00704700BF480C00204FF4001208B5184B3D
S214014E105A660223174A5360936813F48033FBD112
S214014E20012822D1FEF7CCFC134B984215D003F58E
S214014E30122303F5F863984213D0104B00EB80025F
S214014E40400AB3FBF0F0520A0A4BDA6201221863F9
S214014E505A620022074B5A6008BD45F67A10084A86
S214014E60F2E745F61A00074AEEE75362F1E700BF9C
S214014E70009000500040025000F0490264666666E9
S214014E80D8B80500BBCF05000029CCBF0121002101
S214014E90FFF7E6BCB0F5207F10B50C4642D008D827
S214014EA0B0F5007F33D003D888B1B0F5C07F0ED0FF
S214014EB010BDB0F5607FFBD11F4B013CD3F88010CD
S214014EC021F0300141EA0414C3F88040F0E7FFF70F
S214014ED0EDFC00F035F84FF48031184A164B116797
S214014EE0196F013C21F4704141EA04341C67FEF756
S214014EF051FC0446FFF752FBC0F102012046FFF7C2
S214014F00C3FF00F023F8BDE81040FFF7B7BD0A4B1A
S214014F10013CD3F8901021F0F85141EA0464C3F83B
S214014F209040C5E7044B013C196F21F4806141EACA
S214014F3084241C67BCE700BF00800050009000502E
S214014F4002214FF42070FFF7A5BF000008B54FF40B
S214014F50C070FFF7D5FCBDE80840044988428CBF05
S214014F60022101214FF42070FFF794BF80F0FA026E
S214014F70B0F5807F70B50C4600F0F88029D8382847
S214014F8000F04B8110D82438092816D8092814D8DF
S214014F90DFE810F0DC00DC00DC00DC0013001300AE
S214014FA0CD00130047003301522800F0CF8005D80A
S214014FB03D2851D03E2800F0418170BD8028FCD1AB
S214014FC08B1E052B00F2B080DFE803F0AB99AE69CB
S214014FD0AEA8B0F5D06F00F0108132D8B0F5A06F52
S214014FE000F01B8116D8B0F5806F00F0AF80B0F5E9
S214014FF0906FE2D1023C052C8CBF0021974B984A5A
S21401500098BF195DD2F8243123F007030B43C2F889
S2140150102431D2E7B0F5B06F00F08980B0F5C06FEB
S214015020CBD1083C032C8CBF00218E4B8C4A98BFF9
S214015030195DD2F8403123F003030B43C2F8403127
S214015040BBE7B0F5006FD5D016D8B0F5E06F00F02D
S214015050F580B0F5F06FB0D1083C032C8CBF002171
S214015060814B7F4A98BF195DD2F8603123F0030364
S2140150700B43C2F86031A0E7B0F5086F9DD1CC1E96
S214015080052C8CBF0021794B754A98BF195DD2F863
S214015090003123F003030B43C2F800318DE70025EE
S2140150A002260121022000F0A3F9FFF7FFFBFFF71C
S2140150B047FF4FF480316E4B694A1967136F23F02F
S2140150C0070333431367FEF765FB0646FFF766FAE9
S2140150D0C0F102013046FFF7D7FE0121002000F0A3
S2140150E0C7F9FFF733FFFFF7C9FC002D7FF465AF63
S2140150F0032C7FF462AF01225E4B9A625DE74FF4A8
S21401510000225B4B0E465A66012203F540539D6A08
S21401511003F58053C5F340059A62C2E700250426CD
S214015120BFE700250126BCE700252E46B9E7022C7D
S21401513003D0A4F10F0044424441494BD3F88011F7
S21401514021F003010C43C3F8804136E7023C032CEF
S2140151508CBF0021484B424A98BF195DD2F82031D6
S21401516023F003030B43C2F8203126E7A1F108041C
S214015170082C3FF622AF01A353F824F0A1510100F9
S214015180A1510100BB4F0100A1510100CF51010007
S214015190BB4F0100BB4F0100BB4F0100A1510100F5
S2140151A04FF480322E4B3549586E03F580535A66BC
S2140151B00B6A43F001030B62C1035CBF304B5A66B6
S2140151C04FF0E022136923F004031361F5E64FF470
S2140151D08032234B2949586E03F580535A660B6A71
S2140151E023F001030B62C3035CBF254B5A664FF0E5
S2140151F0E022136943F00403E7E7083C062C8CBF62
S2140152000021204B164A98BF195DD2F8003223F0D0
S21401521007030B43C2F80032CFE60F2C0CD0102C3C
S21401522014BF002102210E4AD2F8203223F00303D4
S2140152300B43C2F82032C0E60121F4E7083C032CF8
S2140152408CBF0021104B064A98BF195DD2F8403238
S21401525023F003030B43C2F84032AEE6E0B8030086
S21401526000800050DCB80300DCB80300EDB8030092
S2140152700090005000E00050D8B8030000C007506E
S21401528000A00050E6B80300DCB803000028ABBF5E
S21401529000F16040054B00F5614000F00F00ACBF27
S2140152A090F80003185C0009704700BF14ED00E099
S2140152B0EFF3108072B6704700B962B67047EFF32D
S2140152C01180302383F31188704780F3118870476B
S2140152D0054B420953F8223000F01F0023FA00F074
S2140152E0C04300F00100704700E100E0014608B548
S2140152F0EFF31083DB0702D50122104608BDFFF746
S214015300E7FF02460028F7D10846FFF7BFFF014630
S214015310EFF3118313B1B0EB131FEDD2074B5B68AC
S214015320C3F30803002BE8D0103B58B2FFF7AEFFDB
S21401533088428CBF00220122DFE700BF00ED00E0BB
S214015340194B10B51B6873B3184A5268012A2AD044
S214015350174A8020C2F80031FFF7A0FB05281FD1AD
S2140153604FF4C070FFF752FA0128044604D1022117
S2140153704FF4C070FFF78EFD07220E4B1A61012213
S214015380A3F580535A60094A1369DB07FCD5012C43
S21401539009D12146BDE810404FF4C070FFF77ABD31
S2140153A00122054B5A6010BDB01B002000C0015001
S2140153B00080005000E0015000D00150044A4178BE
S2140153C0536F23F4407343EA01235367704700BFCA
S2140153D000400050FFF7B4BF034A0179D36E23F0B3
S2140153E030030B43D36670470040005070470000FF
S2140153F0F8B504461C4BD3F88420D106FBD4D3F869
S2140154008430C3F381139C422CD0FEF7A9F9012CFA
S214015410064602D12146FFF737FDFFF749FF4FF059
S2140154200072124B07465A662046FFF7DFFF4FF41D
S21401543080630D4D621E93402B676B6E9A0103D4F9
S214015440D5F884309B060AD53846FFF735FF022C7F
S21401545008D13046BDE8F8400021FFF715BDD5F864
S2140154608430EAE7F8BD00BF0040005000600050FD
S21401547007B518B90191FEF773F90199064B1B7828
S21401548043B1064B984205D8012003B05DF804EB02
S214015490FFF7AEBF0220F8E7B41B0020005A6202F5
S2140154A00278034B012100201A70FFF7E1BF00BF0D
S2140154B0B41B00204FF0004210B501244AF6CD314E
S2140154C0154B5A66154A03F50B2354605A6C19643A
S2140154D0224088B9996811F0010F114903D08C60F8
S2140154E0D86AC007FCD501234B6012B10D4B0E4A9A
S2140154F01A641DF00AFD10BDD96A0907FCD42021E3
S214015500074B59620121A3F58053996005494B6AFF
S2140155109B06FCD5E9E700BF0090005000500950FB
S21401552000600950004009503254FFFF4FF000421E
S21401553038B5194B194C5A66012203F50C235A60EB
S2140155404AF6CD33656C2364437815409340134384
S214015550134AD363A368827823F0740343EA0213E1
S214015560C278002A14BF042200221343A3600279E2
S214015570837943EA022323614279C37943EA02230A
S21401558063610078FFF796FF0DB1064B23641DF0AB
S214015590BCFC012038BD00BF0090005000400950FF
S2140155A0004000503254FFFFC36C0B42FCD17047E1
S2140155B008B543680246DB0714D50A235021036366
S2140155C0FFF7F2FF136C9907FCD1936A012110468D
S2140155D09362FFF7E9FF136C1B0604D4012302F55F
S2140155E00052536008BD536BF5E738B50C460121F0
S2140155F0024600F58053596004F00F0540F2FF7132
S214015600FFF7D2FF78210563FFF7CEFF04F0010311
S214015610610748BF43F00203116C01F00301994290
S214015620FAD138BD10B50446FFF7C2FF002341F298
S21401563002020849E360A360226104F50052E361B7
S2140156406361A36123626362E362A3645164A3623C
S21401565010BD00BF7F370C0109B9FFF7A9BFFFF7DF
S214015660C4BF036C1B06FCD5406BC0B27047036C0D
S2140156705B06FCD5C163704738B50446154639B993
S214015680184B984214BF08463820FFF739F90146EF
S2140156906368A06800F0E00040281AD003D8D0B1B3
S2140156A020281AD038BD602819D08028FAD10123C5
S2140156B06B434901B1FBF3F10B4A2039204602EA5C
S2140156C0C1020121FFF770FFA262BDE83840FFF773
S2140156D06BBF0623ECE71023EAE70823E8E7042379
S2140156E0E6E700BF0000035AF8FF7F00436870B585
S2140156F004460D4616461BB140F2FF71FFF754FFF4
S2140157002046FFF78FFFE9896B7B22690B43298AC5
S21401571022F44C520B4322F0030213432361A26886
S2140157202B7B297E22F0804222F0E2020B431343B8
S2140157306A691343A360AB681BB9A36843F00043CF
S214015740A360EB69002B52D0A268197A42EA815213
S214015750A260A268997A42EA4142A2609A88A16848
S21401576002F4C0420A43A260A268597842EA810262
S214015770A260A268597B42EAC102A260A268997B34
S21401578042EA0112A260A268997842EA8122A260E6
S214015790DA799979520242EA8122E2601A7802F0B5
S2140157A0FD01012908BFE168A2F1020204BF41F030
S2140157B00401E160012A4FF0010294BF204921490A
S2140157C0C1F8C0205A7A04F580510A621AB1E2681B
S2140157D042F40062E260DA7A4AB1E26842F40042D8
S2140157E0E2601B7B184A03F00F03C2F8803036B123
S2140157F096F8203004F58051A3B101238B61052171
S2140158002046FFF7F2FEAA6812B16968FFF734FF77
S21401581020462978FFF720FF236CDB4313F4405F13
S214015820FAD170BD626996F8223096F8210022F00E
S21401583009020343134343F001034B61DFE700BF53
S21401584000D4035000E40350009003500022FFF7F9
S2140158504DBFFFF7FBBF70B5054614460E46FFF772
S21401586027FD296881EA040202EA06044C402C60FE
S214015870BDE87040FFF720BD70470000072AF7B566
S21401588001F0030614461F464FF003012CD895007D
S214015890A94000FA05F21C480191FFF7DCFF0199C7
S2140158A01A4806FA05F2FFF7D6FF194B19499DF873
S2140158B02000002F08BF1946012303FA04F40C60E8
S2140158C0154B1649002808BF0B461C60144B9DF863
S2140158D02400C3F820441031A3F6DC33002808BFA7
S2140158E00B461C6003B0F0BDA2F10805AD00A9404F
S2140158F000FA05F20B480191FFF7ADFF01990A483E
S21401590006FA05F2CFE700BF00C4035008C40350EF
S21401591010E4035010D4035014D4035014E403507D
S21401592000E0035004C403500CC40350F8B5044609
S2140159300D461F4616464AB101238B403021194AAF
S21401594001FB0022FFB141F21001535004EB440366
S214015950072D4FF00F014FEA031317D8A80006FAD8
S21401596000F2814010481844FFF775FF56B901212F
S21401597030230C4801FA05F503FB040077B141F228
S2140159801003C550F8BD42F21001DEE7A5F108008C
S214015990800006FA00F281400448E4E742F2100370
S2140159A0EFE700BF00C0035004C003500CC0035013
S2140159B010B5012104462020FEF780FF0121212099
S2140159C0FEF77CFF0122114B5A60227812069A607C
S2140159D06178A27842EA01429A61FF229A62002225
S2140159E09A631A644FF000425A654FF0FF324FF443
S2140159F0001103F500531A65054AC2F88011E378D1
S214015A001B01DBB282F81533116010BD0000045093
S214015A1000E100E02DE9F04101250C46C3B2DFF8B4
S214015A2088E0D1F800809D408F7ACB7A94F80DC03B
S214015A30097BCEF850500EF5005E4EF820804FF0F0
S214015A40300E184E1B050EFB006043EA074343EA7F
S214015A50415322F00302C0F860C0C3650267FFF736
S214015A602EFC736D2B437365237A13B1336C2B4372
S214015A703364637A13B1B36B2B43B3632279A3798F
S214015A8043EA0243084A93616179E37943EA0143B1
S214015A9006498B61034B55639D64BDE8F041FFF7F2
S214015AA014BC00BF00000450002004500010045035
S214015AB04FF40032054B9A6641F6713203F51C33FA
S214015AC0DA63012203F50053DA6070470090005054
S214015AD041F671320121064BDA6303F50052D160BB
S214015AE00022DA634FF40032A3F518339A66704742
S214015AF0000003504FF48032064B5A6603F5E62346
S214015B005B69C3F38512827003F03F021B0B427080
S214015B10037070470090005038B50546144621B909
S214015B204FF42070FEF7ECFE014601396400B1FB2C
S214015B30F4F10902E96138BD012200F5805310B580
S214015B405A6040F6AA6341F20502436100230E49FA
S214015B508360C365C26000F500520361C361C3641C
S214015B6091640A498365884202D0094CA04207D154
S214015B708842036502D0064B984201D10023436553
S214015B800123536010BD00BFFFFF010000C0055098
S214015B900000065038B50D46FFF7CEFF0122A97B5F
S214015BA000F580535A602A8A8368002914BF4FF48F
S214015BB08061002142F0010213432A7D0B43002A33
S214015BC014BF4FF0005200228360836804461343DB
S214015BD08360AB7C5BB11D4AEB7C90422DD1A2F574
S214015BE01032C2F88C31E36D43F08003E3652B7B02
S214015BF02046D5E9011243F48053E360FFF78CFF9A
S214015C006B7B0BB1102363616B7D1BB1A36843F4FF
S214015C108033A360AB7D1BB1A36843F40043A3604C
S214015C20EB7D2A7E1B07120503F0E04302F4E00237
S214015C301343A3652B78636138BD054A904204BFC0
S214015C40A2F52032C2F89C31CDE700BF00C0055056
S214015C500000065083695A06FCD5C16383699B061A
S214015C60FCD5406AC0B2704738B50446054D1DF0F4
S214015C7073F90FCC0FC594E8030085E803000020F4
S214015C8038BD00BFB81B002047F6FF739A42F0B537
S214015C9063D0022963D8334BCF0003EBC10013F85E
S214015CA031108478012913D10025C3781B1B9D422E
S214015CB002D3E018C0B2F0BD591B4668A3EB5101F0
S214015CC036F911609642D4BF0D4601F1FF33EEE777
S214015CD040680028EFD0B0F90010914204DBB0F91B
S214015CE002109142B8BF114682883B44FF2A19BF71
S214015CF0C8222826B0F90620B0F90860A2EB0102F6
S214015D000CBF0125002592FBF6F25F782A447B1E24
S214015D10934228BF13464FF47A7E00EBC305AE6864
S214015D20EA88AC4611FB02621E4622EAE2720133A1
S214015D3002F5FA729F42B2FBFEF204D9BCF80CC01F
S214015D4008359445EBD200EBC6008088904228BF08
S214015D501046A04238BF2046ACE7FF20ABE7002044
S214015D60A9E700BFB81B00200229F0B553D82B487D
S214015D7000EBC10410F83110636801290FD1E078F7
S214015D80A478904294BFC4EB0001C4EB0201001B4F
S214015D90CAB28242C8BF002233F91200F0BD002BFE
S214015DA039D0A178914202D3B3F90200F6E7E1783F
S214015DB0B3F900009142F1D999886478A1F1FF0600
S214015DC0013C714203F10405E4B2714103F10C0791
S214015DD01FFA82FCCEB2B44216D805EBC1014FF4CD
S214015DE07A756A43B1F902404968521A04EBD471D4
S214015DF002EB610292FBF4F29042CFDBB3F90200B0
S214015E009042CBDC10B2C9E737F831E04E1CE645CC
S214015E10E3D33146DEE70248C0E700BFB81B0020E7
S214015E200080FFFF08B50448FFF71EFFBDE80840E5
S214015E3001201DF0ABB800BFF0C00300004870475A
S214015E404A0C00207FB50222084B0949CDE90123FF
S214015E504FF00073CDE90313052301A94FF0FF307E
S214015E6005931DF0FBF807B05DF804FB006A180007
S214015E700002040007B56B46054A1068516803C363
S214015E806846FFF753FB002003B05DF804FB00BF34
S214015E90F3B8030013B50024064A6846536F43F06F
S214015EA00103536700948DF80440FFF795FA2046E6
S214015EB002B010BD0040005030B58BB06C46154D99
S214015EC00FCD0FC40FCD0FC495E8030084E803007F
S214015ED0114BD3F84C21120314D4D3F85041E4B239
S214015EE08DF81940FEF746FF204480F308008DF830
S214015EF018000A48FDF76AFC6846FEF79BFE00207C
S214015F000BB030BD064B1C884FF6FF739C4208BF92
S214015F108C24E5E7FCB803000080E00F00F049029E
S214015F200001E00F08B50020FEF76EFF002008BD57
S214015F3030B5094D87B001AC0FCD0FC42B6801A851
S214015F4023603F238DF80530FEF71AFF6420FEF725
S214015F5055FF002007B030BD24B903006FF00402DE
S214015F60502110B50A480B4C12F0800FD3B21BBF5C
S214015F7003F00F03043BA3181B1802F101020CBF28
S214015F8083F800131976402AEED1002010BD00BF19
S214015F9000ED00E000E100E000F078B838B501F06F
S214015FA0ADF90446E0B901F08BFA4FF4167343439A
S214015FB00C4803F5742303F23F23B3FBF0F30A4ABC
S214015FC00A4913600A220D680948013A12F0FF02D5
S214015FD040F8043BF9D103EBC3022B4413440B6096
S214015FE0204638BD40420F000C1C0020D81B002064
S214015FF0DC1B0020012208B5034B1A7001F039FAA8
S214016000024B186008BD00BFD41B0020081C0020EE
S214016010F8B5144C237823B301F02BFA124B134D29
S2140160201B68134EC01A012838BF0120114B124FAE
S21401603018602B7856F8232046F82300111A3A6880
S2140160400E48521A0A213A600932B2FBF1F20133C4
S214016050DBB20260B3FBF1F201FB12332B700023BB
S2140160602370F8BDD41B0020081C0020041C00204F
S214016070DC1B0020D01B0020D81B00200C1C00209D
S214016080014B1868704700BF0C1C002020234FF4FA
S21401609000220A4981F82C33094B5A66094A03F54E
S2140160A0405303F50050426702674FF48050C1F831
S2140160B08401486003445A67704700BF00E100E06E
S2140160C000900050010000A0044B9A6DD20702D444
S2140160D00028FAD170470120704700BF00C0005069
S2140160E00C4B10B51C6FE20707D5012203F50053D0
S2140160F01A67FFF78DFF00F00FFF14F000521CBF68
S214016100054B1A67002CBEBF4FF00042024B1A67C0
S21401611010BD00BF00C0005000E00050FFF7E0BF18
S21401612010B50446FFF7C4F8024B1C60FFF7C4F82D
S214016130002010BD101C002010B5FFF7B9F8034B66
S2140161401C68FFF7B9F8204610BD00BF101C0020E0
S21401615007B530B9CDE90012FFF7EEFFDDE9001211
S21401616030B1436823B1006803B05DF804EB18470B
S214016170232003B05DF804FB30B51C4685B058B942
S214016180CDE90012FFF7D8FFDDE9001204B903AC30
S21401619020B9232005B030BD03B903AC8568002DB6
S2140161A0F7D023460068A847F4E70EB477B507ABE7
S2140161B053F8046B05460193B0B9FFF7BDFF0446DB
S2140161C005463046019924F07BF9AC42064602D0DA
S2140161D02046FFF7A5FF002ED4BF3720002003B0CE
S2140161E0BDE8704003B07047FFF7A6FF854204463E
S2140161F0E7D02846FFF794FFE3E7000010B5002438
S21401620000F0E4F90348044B84604360FFF788FF1D
S214016210204610BD181C00201D62010007B5044B66
S2140162200093044B1B8800F0E7F903B05DF804FB0C
S214016230141C0020500C00200122036B19B103F539
S21401624080539A64704703F500539A645A64704702
S2140162500422036B03F580539A64704738B50446ED
S214016260026B136C5906FCD50023E16B1A4694F8B1
S2140162703800FFF75BFB0023616C1A4694F8400078
S214016280FFF754FB94F85830DA0706D50023E16C83
S2140162901A4694F84800FFF749FB94F858309B07D4
S2140162A006D50023616D1A4694F85000FFF73EFBB1
S2140162B00021206B094DFFF7CFF90021606BFEF737
S2140162C0FDFA284604F15C01FDF7D7FA2B6813B9ED
S2140162D0034800F0FFFD002038BD00BF241C00204D
S2140162E0281C002008B5006BFFF7C1F9002008BD87
S2140162F0012910B505D8064B1C685C3C14F15C0FEF
S21401630000D110BD206B0521FFF7A6F9E46DF4E777
S214016310241C00202DE9F0418AB01C4606AB064637
S21401632088461846174600211022109D23F0F5FED8
S214016330227903460AB18DF81820FB61637930464D
S214016340002B14BF01230223CDE90333654B4246DC
S2140163500293654B29460193644B0093644B00F00E
S214016360C5FA0646002840F09580A36801216B63B4
S214016370A3693A206B64237D85F840302369EB637B
S214016380237B85F83830236AEB64237F85F8483011
S214016390A36A6B6594F8243085F8503023682B6324
S2140163A0FEF78CFA012304222169207BFFF7BEFA4F
S2140163B001230222A169207DFFF7B8FA3E7085F815
S2140163C058600121A068FEF779FA6379012113BBB1
S2140163D04FF4C060FEF772FA1021A068FEF7C8FD00
S2140163E039462068FFF735FA0222424B2169C3F885
S2140163F0C020227B42EA0142C3F8D020A169227D57
S21401640042EA0142C3F8CC202379032B67D8DFE8A0
S21401641003F02A15455E4FF48060FEF74FFA0F2110
S214016420A068FEF7A5FD39462068FFF70FFA95F834
S214016430583043F0040385F85830D5E7002795F81F
S214016440583043F0010385F8583000230222216AB0
S214016450207FFFF76BFA226A237F43EA0243264A2C
S214016460C2F8C43007BB04232068052100F500529A
S214016470536400F580529364FFF7EEF81F4B1B68D8
S2140164801BB91F491F4800F013FD1C4805F15C01AC
S214016490FDF7EFF930460AB0BDE8F08195F85830BF
S2140164A043F0020385F8583000230422A16A94F8C9
S2140164B02400FFF73BFA01230F4AA16AC2F8C03055
S2140164C094F8243043EA0143C2F8C830CBE795F884
S2140164D05830012743F0030385F85830B5E72326E3
S2140164E0D8E700BF5D620100516201003962010018
S2140164F0E562010000C4035000D40350241C0020B0
S214016500540C0020281C0020026B10B5936C526CB2
S2140165100446134059070ED500F060FAD8B1206B37
S214016520FFF79FF80146204600F068FA0422236B25
S21401653003F500535A64236B5A6CD20711D5012117
S21401654003F5005251641B6C9B060AD52046BDE834
S214016550104000F095BA0422236B03F500539A64A9
S214016560E9E710BD00207047FEE74FF40053002016
S2140165704B607047012070470020704707B5002028
S21401658001AB0190FFF7F8FD0198002808BF4FF016
S214016590FF3003B05DF804FB10B514460020FFF78A
S2140165A0D7FD204610BD0000034B022218680023C9
S2140165B08068194623F0C0BE680D00204FF0604287
S2140165C0D2F8803E1B02FBD47047000008B5074B8B
S2140165D01A6842B9012208201A60FDF7B9F9044980
S2140165E0044800F065FC002008BD00BF381C0020F0
S2140165F05C0C0020301C00202DE9F0470F461546A4
S2140166001E46002402F1040802F109094FEA132A82
S2140166105FFA88F84C4502D30020BDE8F0871CB32A
S214016620012C05D141460820FDF79EF90134F1E71A
S214016630022C1BD0032C01D1F1B2F4E7042C17D0A5
S214016640052C04D1089B13F8011B0893EBE7AB1D3F
S214016650A3420FD0EB1DA3420CD005F10803A342C1
S2140166600AD0BB1F195DDEE75B21DCE7D121DAE743
S2140166705146D8E75A21D6E75D21D4E790F82A306B
S21401668001223BB190F82E30022B03D180F82E2048
S214016690184670471346FBE780F82410704790F8B9
S2140166A02400704790F82B0070470000002808DB94
S2140166B00123420900F01F0003FA00F0014B43F8E2
S2140166C02200704700E100E0002809DB01224309AF
S2140166D000F01F0002FA00F0024A603342F823007D
S2140166E0704700BF00E100E0F8B504460D4690F89B
S2140166F02B3081B173B990F82C60FEF7D9FD0546B1
S2140167000121304600F036FB2846FEF7D5FD012371
S21401671084F82B30F8BD002BFCD090F82C70FEF7D7
S214016720C7FD06462946384600F024FB3046FEF7EC
S214016730C3FD84F82B50EDE770B504460568FFF7F6
S214016740FBFC844202D10020FFF7EAFC95F9280001
S214016750FFF7BAFF95F92830002B0DDB01215A0906
S21401676003F01F0301FA03F31449203241F82230E3
S214016770BFF34F8FBFF36F8F95F92900FFF7A4FF83
S21401678095F92930002B0DDB01215A0903F01F036F
S21401679001FA03F30949203241F82230BFF34F8F43
S2140167A0BFF36F8F00232846C4E90033C4E90433DE
S2140167B0A360EB68BDE87040184700BF00E100E049
S2140167C02DE9F047044616460D4690F82480FEF75C
S2140167D076FD94F82A2003469AB1FEF776FD94F8E2
S2140167E02D90FEF765FD07460121484600F0C2FAE6
S2140167F03846FEF761FDFEF762FD0022034684F887
S2140168002A201846FEF761FD2E44B8F1000F23D169
S214016810AE4205D1204663680121BDE8F04718471E
S21401682094F82630002BF3D02046236815F8011B78
S21401683098470028ECD0BDE8F08794F826305BB185
S2140168402B780A2B03D10D21204623689847204632
S214016850236815F8011B9847AE42EED1DAE72DE919
S214016860F7434FF00009044690461E46C3F80090D1
S2140168704F1E3368434505D2FEF721FDA269C2B912
S214016880FEF723FD94F827305BB911230122204639
S2140168900DF107018DF80730FFF792FF012384F809
S2140168A027303368002B0CBF1B20002003B0BDE847
S2140168B0F083E16922698A5C07F8012F2569226A5B
S2140168C00135954208BF4D46A2692561013AA2618C
S2140168D0FEF7FBFCA3682046984733680133336014
S2140168E0C7E708B5FFF76CFF002008BDF8B51F46DF
S2140168F0536806460C461546002B5BD09368002B62
S2140169005AD030220021204623F007FC6B682B4A20
S214016910E361AB68204623622B7B84F82430AB7B93
S214016920276084F8253040F20113E384069B002794
S2140169306360079BA360089BE3602B7884F828308C
S2140169406B7884F829301E4B346073601D4BB3603E
S2140169501D4B33611D4B73611D4BF3601D4B336241
S214016960012384F82E30B2611B4AF2619DF828207B
S21401697084F82D209DF8242084F82A3084F82C20D1
S214016980697B84F82B70FFF7AFFE95F90100FFF7DE
S2140169909BFE95F90100FFF789FE95F90000FFF7C8
S2140169A093FE95F90000FFF781FE3046FFF7B8FB2E
S2140169B03846F8BD2220FCE72120FAE7E966010007
S2140169C0E36801005F680100996601009F660100A7
S2140169D0396701007D660100A566010010B5044611
S2140169E0FEF76DFCA269236A9A4203D2FEF76DFC9C
S2140169F0012010BDFEF769FC0020FAE737B5044612
S214016A000D4600E000BFFEF75AFC94F8253002461A
S214016A106BB1132D07D1002384F8263003B0BDE8EF
S214016A203040FEF752BC112D01D10123F4E7636912
S214016A30E1691046CD54A16963690131A161216AFA
S214016A4001338B42636104BF00236361FEF73DFCA3
S214016A50042384F82E3094F825307BB1A269236A8A
S214016A609A420BD11323012220460DF107018DF81E
S214016A700730FFF7A5FE002384F8273003B030BDAA
S214016A8090F82A3073B5044603F0FF01A3B94368B2
S214016A9001919847012384F82A3094F82D60FEF777
S214016AA007FC05460199304600F064F92846FEF7D2
S214016AB003FC022384F82E3002B070BDBFF35F8F53
S214016AC0074B5A6A22F480325A62D3F8942022F095
S214016AD00102C3F89420BFF34F8FBFF36F8F704747
S214016AE000ED00E070B52648264CFFF7E7FF84422C
S214016AF008BF4FF08043244A18BF20F01F03D2F886
S214016B00C01018BF203B21F0FF0141F0A001B3F1F6
S214016B10005FC2F8C0100CD31C4D1D4E296843F00F
S214016B200103C2F898100131C2F89C60C2F8A03087
S214016B302960844210D01548164B0268124923F08A
S214016B401F0343F00303C1F89820C1F89C30124B91
S214016B500132C1F8A0300260BFF35F8F05220A4BF5
S214016B60C3F894205A6A42F480325A62BFF34F8FB8
S214016B70BFF36F8FBFF34F8FBFF36F8F70BD00BF33
S214016B80CC0D00207C0F002000ED00E03C1C002016
S214016B90030000209B0F0020E1FFFF3F10B51446C5
S214016BA0FFF78CFF1F2C24D91C4A1D4CD2F8C0308D
S214016BB023F47F4343F48073C2F8C030C2061CBF7F
S214016BC020F01F002030CB06144A236818BF21F09E
S214016BD01F0120F01F0021F01F01C2F8983040F07D
S214016BE0030041F003010133C2F89C00C2F8A01073
S214016BF02360BFF35F8F0522084BC3F894205A6ABF
S214016C0042F480325A62BFF34F8FBFF36F8FBFF3E8
S214016C104F8FBFF36F8F002010BD00BF00ED00E067
S214016C203C1C0020BFF34F8F0549064BCA6802F48F
S214016C30E0621343CB60BFF34F8F00BFFDE700BF99
S214016C4000ED00E00400FA0508B5FFF7EBFF08BD0C
S214016C50034B1B78002B14BF01200220704700BF96
S214016C60541C00200329F8B598BF124B05460E4662
S214016C708CBF00245C5C032805D8DFE800F002081E
S214016C800B0E44F002040C4B1F684FB9F8BD44F0DC
S214016C900804F8E744F02004F5E744F08004F2E73E
S214016CA07B681A68144203D0314628465B689847C9
S214016CB03F68EAE738B90300501C002038B5104D8C
S214016CC02B78ABB10F4C23781BB100F0E9F9002308
S214016CD02370002000F006FA0B4C50B100F00CFABD
S214016CE00023012120782B70FFF7BCFF01232370BE
S214016CF038BD0122054B1A702278054B1A70F7E74A
S214016D004E1C0020491C0020401C00204D1C002069
S214016D105C1C002070B5FEF7CBFA114E05463378A1
S214016D208BB900F0EBFA044620B12846FEF7C4FA08
S214016D30204670BD0B48FCF799FD0B4B1C6000F01C
S214016D40BFFB0A4B186000F02FF900F0F3F9084B6F
S214016D5000241860012328463370FEF7ADFAE7E7F2
S214016D604A1C0020501C0020601C0020581C0020DB
S214016D70441C002000292DE9F34114BF0121FF2105
S214016D80254A00F1FF30135C0B4413543AD0234ECE
S214016D903278012A36D9FFF75BFF0128044634D83A
S214016DA01F4FFEF785FA3B781BB31E4D2B781BB998
S214016DB001222A701C4A1370DFF8708098F80030A0
S214016DC033B1019000F06CF90023019888F8003087
S214016DD0FEF772FA012000F085F9FEF769FA2B78C2
S214016DE02BB1019000F088F9002301982B70002345
S214016DF03B70FEF761FA3078A04203D02146FFF7D8
S214016E0031FF347002B0BDE8F081032AF3D10228C5
S214016E10F1D100F0A9F9EEE7541C0020401C002037
S214016E204E1C0020481C00204D1C0020491C002040
S214016E3010B50446FEF73CFA002C14BF0121FF21D1
S214016E40064A13780B44DBB21370B3FA83F3BDE83A
S214016E501040034A5B091370FEF72EBA571C002038
S214016E60561C002068B5FEF723FA094B06461B7828
S214016E70012B04D8FEF720FA0025284668BD054BED
S214016E801D6800F05BF905443046FEF715FAF4E795
S214016E90401C0020601C002007B5FEF709FA01908F
S214016EA0FFF70CFF019803B05DF804EBFEF704BA98
S214016EB038B541600446FEF7FBF90546214604480D
S214016EC0FCF7D7FC2846BDE83840FEF7F5B900BF09
S214016ED0501C002013B50190FEF7EAF9044601990B
S214016EE00448FCF7CAFC204602B0BDE81040FEF795
S214016EF0E3B900BF501C0020054B1B685843054BE7
S214016F0000F5742000F23F20B0FBF3F0704700BF9D
S214016F10581C002040420F0010B5094B1B786BB17E
S214016F20084C237853B100F0E7F80023064A237093
S214016F3013700123054A1370054A137010BD00BF74
S214016F40401C00204D1C00204E1C00204B1C002025
S214016F504C1C00207047000073B5114E0446337870
S214016F60834212D000238DF8043080B102238DF8BD
S214016F70053001A8FEF722FA0A4D402054B1FFF76A
S214016F80BBFF2B68181A2860347002B070BD8DF8EC
S214016F900500EEE7FFF7B0FF2B681844F3E700BFE4
S214016FA0640C00206C1C002073B5002401A88DF829
S214016FB00440FEF775FA20464FF40024FFF7CCFF95
S214016FC03149324B0A6F02F007021A60D1F82031BC
S214016FD0D1F8240101F580514C664FF400344C661B
S214016FE001F598318969032A00F0070001F00201D2
S214016FF041D003F003039C1E63426341022808BF8D
S21401700043F001032248234D037061B31E4A3BB986
S214017010D2F8003103F00303591E4B424B41037073
S214017020D2F8003103F00303022B26D0032B27D01E
S214017030012B18D1FCF7C4FBA8B1174B411EDC6825
S2140170400023024608461946C4F30B04134E0134C6
S21401705004EB8404E4FB060122F048FEFFF74CFF34
S2140170602B68184428606420FFF746FF2B681844F5
S214017070286002B070BD0123C0E7FCF7C3FBDBE765
S214017080FCF7B4FBD8E700BF00800050641C00206A
S214017090691C00206C1C002000C0015040420F00FB
S2140170A038B50C4B1B786BB10B4C23787BB90B4B6B
S2140170B00B4D9A6D12F4803F05D0DB6D9B0702D510
S2140170C00123AB6238BDFEF795FF0123AB620023B7
S2140170D02370F7E7691C0020681C002000C00050E0
S2140170E000D00050034B1B780BB1FEF7EDBF01201B
S2140170F0704700BF691C002008B5FEF76BF9094A06
S2140171000949136F096823F007030B431367074BFD
S2140171101B7813B10122064B9A62BDE80840FCF7C2
S21401712039BB00BF00800050641C0020691C002091
S21401713000E000504FF4C870FFF7DEBE08B5054BFF
S214017140187818B1FEF79CFF00EBD000024B1B68C5
S214017150184408BD691C00206C1C00200122014B4C
S2140171601A707047691C00207047000010B500F0C7
S214017170B1FA0A4C0A4B19682368C31A01B10BB954
S214017180206010BD4A699A423ABF9B1A0022D21A61
S2140171904A6128BF00238968F0E700BF741C0020FD
S2140171A0881C0020C38870B504460D463BB9FFF71E
S2140171B059FE8542064602D2FFF76EFE35460F4956
S2140171C065610B68ABB90C60A36011E0AD1A9A68F3
S2140171D0184665612AB113465A69AA42F6D950B1D2
S2140171E01A4613468460A36013B15969491B596155
S2140171F070BD0020F0E70C60F5E700BF881C00209A
S21401720038B5134D2B685B6993B1124A0220146896
S2140172101C4400F069FA204600F072FA00230E4979
S2140172202A680B70D088800709D501230B7038BDFA
S214017230022000F059FA022000F096FAEEE7926872
S214017240002AF4D050690344012BEBD9EFE700BFC5
S214017250881C0020741C00207C1C002070B516467B
S2140172609DF81420C0E903360271049ABDF818305F
S21401727002600022C380826004460D4600F02AFAAE
S2140172803044A0613DB9E368656113B120462168C9
S214017290984796B13546FEF70BF80646FFF766FFA8
S2140172A029462046FFF77EFF054B1B68A34201D106
S2140172B0FFF7A6FF3046FDF7FFFF002070BD00BFB9
S2140172C0881C002000220C490B687BB183420AD13E
S2140172D083687AB1936083681BB15A6941690A442D
S2140172E05A61002070471A469B68EEE70028EFD0E7
S2140172F0022070470B60EEE7881C002070B5FDF792
S214017300DEFF144E05463478FCB9134B1C60134B54
S2140173101C60134B1C8000F0ADF9012000F0E4F96D
S21401732000F03EFA0F4B0246186020B92846FDF7DA
S214017330CCFF232070BD234640F2E7310A4822F0F5
S214017340D5FC0A4B1860012333702846FDF7BDFFB4
S2140173500020EFE7701C0020881C0020741C002011
S2140173607E1C0020841C002018FCFFFF781C0020D7
S2140173702DE9F0410546F8B1FDF79AFF0F4F064695
S214017380FFF7F4FE2846D7F80080FFF79BFF044678
S21401739028B13046FDF790FF2046BDE8F081A845AC
S2140173A03B6803D123B1FFF72BFFF2E7002BF0D1A7
S2140173B0022000F0CDF9ECE72224EDE7881C00203E
S2140173C070B586B015461E460446059180B1FFF796
S2140173D0CFFFBDF82C30002202939DF828302046BE
S2140173E0CDE9006305992B46FFF738FF06B070BD5F
S2140173F02220FBE738B50C46054698B191B100232B
S2140174000B70FDF75CFF0121074B1B680BB122785F
S2140174101AB1FDF75AFF002038BDAB4214BF9B6876
S2140174202170F3E72220F7E7881C0020F0B51F46FD
S214017430002387B00D46164604468DF81730A0B1D6
S2140174400DF11701FFF7D6FF9DF817207AB9BDF8A1
S2140174503430294602939DF830302046CDE900733A
S2140174603346FFF7FBFE07B0F0BD2220FBE7032003
S214017470F9E738B5FDF723FF054600F02BF904467A
S2140174802846FDF722FF204638BD000070B5FDF7FF
S21401749016FF064600F01EF9084B04461D8801201B
S2140174A0ADB200F06DF918B100F014F904460135DB
S2140174B03046FDF70AFF2046294670BD7E1C002097
S2140174C0014B1868704700BF841C00200C4B70B538
S2140174D01B680D46834211D340F2E73100248C46E7
S2140174E02146084B4FF47A721E680023E0FB06C162
S2140174F0604622F0FBFB2860204670BD2120FCE799
S214017500781C0020841C00200F4B10B51A689AB115
S2140175104FF47A71531E1342A0FB01010ED1B2FA49
S21401752082F2C2F11F04531CD243E04001FA03F376
S214017530184321FA02F20243104610BD002322F03E
S214017540D5FB0246F8E700BF841C0020C2072DE9E0
S214017550F34704460BD53F4A138801339BB2138089
S214017560FFF704FE3C4B1B680BB1FFF749FEA30770
S2140175706DD5FDF7A4FE002605463746FFF7F6FD56
S214017580B146DFF8D480D8F800400CB163698BB1FE
S2140175900022324B012F1A7002D1022E08BF1F7033
S2140175A0002C44D0FFF72CFE284602B0BDE8F04779
S2140175B0FDF78BBE23461A792179914288BF1C4676
S2140175C09B6813B15A69002AF5D02846FDF77DFE5F
S2140175D0256985B300F07EF8A269861AF317B542CD
S2140175E079EB030328DA23691344A3610123226993
S2140175F082B17BB9A91B0191FDF761FE8246019913
S2140176002046FFF7CFFDA369226950461344A361C4
S214017610FDF75BFEE368E688013713B12046216873
S2140176209847FDF74CFE0546FFF7A0FDABE70220A5
S21401763000F08EF8B8E72E46FDF741FE824620465A
S214017640FFF740FE5046FDF740FE0023CFE702B0AD
S214017650BDE8F0877E1C0020881C0020801C0020CE
S214017660034B5A6812B19A6A002AFAD1704700BFD2
S2140176700040065030B5144B85B001AC93E80700C6
S21401768084E8070001213D20FDF718F901250023B4
S21401769020468DF804300295FCF72AFF03220B4C96
S2140176A004F500539A615A61FCF768FFFFF7D8FFAB
S2140176B0E560FFF7D5FF4FF48022054BC3F8802124
S2140176C01A6005B030BD00BF3CB90300004006504B
S2140176D000E100E0014B186A704700BF0040065009
S2140176E00020FCF745BF000000F001038207034AB3
S2140176F048BF43F002039361704700BF0050065035
S214017700F8B50446FDF7D4FD104F06463D6AFFF76F
S214017710E7FF7A69920704D4421B052A01D8A842DA
S2140177200ED1631B042B98BF6C1D0020B4F1FF3FE4
S2140177302CBF2146611EFCF70FFF0220FFF7D4FF86
S2140177403046BDE8F840FDF7B7BD00BF0040065023
S21401775000F001038207034A48BF43F00203936126
S214017760704700BF0060065000F001038207034A1D
S21401777048BF43F002035361704700BF00500650F4
S214017780064B01285B6904D0022805D1C3F34000EB
S214017790704703F001007047002070470040065014
S2140177A03D20FDF7ADB8000010B5FDF788FD044695
S2140177B0094B5B699A07094A03F0010003F00303CA
S2140177C048BF40F002005361FFF7C0FE2046BDE807
S2140177D01040FDF77ABD00BF00400650006006501D
S2140177E008B5FBF77BFCFBF7B3FCFBF7D5FCFBF717
S2140177F0BCFCBDE80840FBF7C1BC08B5FBF7C0FC04
S214017800FBF7BFFCFBF7BEFCBDE80840FBF7BCBCC2
S21401781010B50446FBF7BEFF0C4BA0F57A729A42F0
S21401782012D84FF47A73B0FBF3F05C43084BB3FB0A
S214017830F0F0B4FBF0F0022806D9BDE810400323AF
S214017840B0FBF3F000F00CB810BD00BFFFC99A3BC7
S21401785040420F0000000000000000000000000091
S214017860013800D0FCE77047FBF7E8BF08B504F025
S214017870EFF80AF01DFB07F06BF908F06CFA002030
S21401788008BD0000024A0349034803F079BD00BF62
S21401789048B9030094B903006CB9030038B504462F
S2140178A0FDF706FD0546204622F0F0FB0446284675
S2140178B0FDF702FD204638BD37B504460191FDF7B8
S2140178C0F7FC01990546204622F0A0FB044628460F
