S00E00006D32305F6965732E73333777
S214012000C00A002001360100FD350100FD35010042
S21401201089610100FD350100FD350100FD35010036
S214012020FD350100FD350100FD350100FD350100DE
S214012030FD350100F8AC030009300100FD35010053
S214012040FD350100FD350100FD350100FD350100BE
S214012050FD350100FD350100FD350100FD350100AE
S214012060FD350100FD350100FD350100FD3501009E
S214012070FD350100FD350100FD350100FD3501008E
S214012080FD350100FD350100C56C0100FD3501007F
S214012090FD350100B53B0100FD350100FD350100B0
S2140120A0FD350100D93C0100B53C0100FD350100BC
S2140120B0FD350100D5820300FD350100C18C03000A
S2140120C0798C0300758C0300B1840300BD8C03007A
S2140120D07D8C0300958C0300818C0300218D030009
S2140120E0456503000D670300018D0300FD35010002
S2140120F0C95D0100FD350100FD350100FD3501001A
S214012100FD350100FD350100FD350100FD350100FD
S214012110FD350100FD350100FD350100FD350100ED
S214012120FD350100FD350100FD350100FD350100DD
S214012130FD350100FD350100FD350100FD350100CD
S21401214010B5054C237833B9044B13B1044800E0AD
S21401215000BF0123237010BD7C0F0020000000008B
S214012160C4F7030008B5034B1BB10349034800E05D
S21401217000BF08BD00000000800F0020C4F7030068
S214012180A3F5803A704700BF174B002B08BF134BCF
S2140121909D46FFF7F5FF00218B460F461348144A6C
S2140121A0121A27F042FA0E4B002B00D098470D4B1F
S2140121B0002B00D098470020002104000D000D4898
S2140121C0002802D00C4800E000BF27F0C3F9200029
S2140121D0290000F033FE27F0A9F900BF000008002F
S2140121E00000000000000000C00A00207C0F002054
S2140121F0682B002000000000000000000621836A12
S21401220018470821836A18470279002102F0FE0266
S214012210C368027118470279002142F00102C368BF
S214012220027118474279012142F00402C3684271E3
S21401223018474279012102F0FB02C3684271184730
S214012240437910B403F01F031943CAB2C3680121CE
S2140122505DF8044B42711847037910B403F00F037D
S2140122601943CAB2C36800215DF8044B02711847CE
S214012270037910B423F00E031943CAB2C3680021D0
S2140122805DF8044B027118474279012122F00202DF
S21401229042F00202C3684271184738B504460D463B
S2140122A08369011D9847E3792B7038BD036982B0B5
S2140122B0019102B0184700001FB500238DF80710E2
S2140122C08DF80D100222806803A98DF80C3002F0FB
S2140122D08FF890B9032000F0FDFF70B1084C094952
S2140122E0206803F0B8FD01F015F801F047F806493B
S2140122F020680DF1070203F0AEFD04B010BD00BF6B
S2140123002C10002060A7030065A70300FF2313B568
S2140123108DF801308DF802308DF8033004238900E2
S21401232041F020018DF80010806869460DEB03022C
S21401233002F038F880B9032000F0CCFF60B1084CF9
S2140123400849206803F087FD00F0E4FF01F016F865
S2140123500549206803F07FFD9DF8040002B010BD1A
S2140123602C10002060A7030084A7030037B504469D
S2140123701C4804F0DBFC636A20469847194804F0C1
S214012380D5FC6E232370D02363704023A3700023F3
S214012390E3702168236920469847124804F0C6FC7A
S2140123A02046A369211D9847032000F093FF90B1B2
S2140123B00D4D0E49286803F04EFD00F0ABFF00F00E
S2140123C0DDFFE37922790193A3790949009328680F
S2140123D0637903F040FD034804F0A8FC002003B035
S2140123E030BD00BFA08601002C10002060A70300AE
S2140123F0B3A703002DE9F04106460024134D144F00
S21401240005EB040801224146B06801F0AFFF80B930
S214012410032000F05FFF60B10E49386803F01BFD32
S21401242000F078FF00F0AAFF42460B49386803F037
S21401243012FD0134032CE3D12888AB7840BA80B270
S21401244043EA002040F31700BDE8F081980F002012
S2140124502C10002060A70300DCA7030013B5890039
S21401246041F040018DF804108DF8052080680222A5
S21401247001A901F0BDFF80B9032000F02BFF60B178
S214012480074C0849206803F0E6FC00F043FF00F023
S21401249075FF0549206803F0DEFC02B010BD00BFE1
S2140124A02C10002060A70300F9A703001FB54322E4
S2140124B08DF80820C1F307228DF80A20C1F30742E0
S2140124C00B0E01918DF809108DF80B2080680522FE
S2140124D002A98DF80C3001F08BFF80B9032000F0C3
S2140124E0F9FE60B1074C0849206803F0B4FC00F01F
S2140124F011FF00F043FF0549206803F0ACFC04B06F
S21401250010BD00BF2C10002060A70300F9A7030030
S214012510232313B58DF80030FF230A468DF80130CA
S2140125208DF802308DF803308DF8043069460523A6
S214012530806801F037FF80B9032000F0CBFE60B160
S214012540074C0849206803F086FC00F0E3FE00F023
S21401255015FF0549206803F07EFC02B010BD00BFE0
S2140125602C10002060A7030084A7030010B50446C2
S2140125705C2027F013F8144A8460C260134A026193
S214012580134A4261134A8261134AC261134A0262C4
S214012590134A4262134A8262134AC262134A0263B0
S2140125A0134A4263134A8263134AC263134A02649C
S2140125B0134A4264134A8264134AC264134A026588
S2140125C0134A826510BD00BF5D240100AD240100E1
S2140125D00D230100112501006D23010003220100D6
S2140125E0FD210100B92201009B220100AD2201005C
S2140125F017220100092201002522010041220100C3
S21401260071220100592201003322010089220100B2
S214012610F523010013B50B213D2002F057FC0121E3
S2140126203D2002F0F9F804F0F7F880B9032000F035
S21401263051FE60B1144C1549206803F00CFC00F003
S21401264069FE00F09BFE1249206803F004FC01209D
S2140126500024034602462146CDE9004002F064FF0D
S2140126600222012011462346CDE9000002F05CFF5C
S214012670202026F093FF074B196800F0ADFB064BB0
S214012680186002B010BD00BF2C10002060A7030028
S21401269029A80300E80B00209C0F0020014B1868B6
S2140126A000F0DBB99C0F002070B50368A04A23F444
S2140126B07F4323F00703934288B005D09D4A934297
S2140126C000F04E8108B070BD0DF10F0104A819F09D
S2140126D0C7F8044630B3984D9849286803F0BBFB09
S2140126E09749286803F0B7FB00F014FE00F046FE99
S2140126F0944B954A009395496E23286803F0ABFBEB
S2140127002346934A9349286803F0A5FB204600F028
S2140127105DFE9149286803F09EFB8849286803F00E
S2140127209AFBFEE79DF8153001468DF818309DF8A6
S214012730143008228DF819309DF8133012208DF8C8
S2140127401A30FF238DF81B30FE238DF81C309DF8C0
S21401275012308DF81D309DF811308DF81E309DF821
S21401276010308DF81F3006AB19F036F8054630B339
S214012770714C7249206803F06EFB7149206803F0C2
S2140127806AFB00F0C7FD00F0F9FD6E4B6E4A009340
S2140127906E497E23206803F05EFB2B466C4A6D492A
S2140127A0206803F058FB284600F010FE6A492068AE
S2140127B003F051FB6149206803F04DFBFEE7674ECD
S2140127C0304618F095FF054630B35B4C5B492068F0
S2140127D003F041FB5A49206803F03DFB00F09AFDE7
S2140127E000F0CCFD574B584A009358498223206885
S2140127F003F031FB2B46564A5649206803F02BFB63
S214012800284600F0E3FD5449206803F024FB4B49B9
S214012810206803F020FBFEE70221307818F0A2FFC3
S214012820044630B3444D4549286803F014FB444937
S214012830286803F010FB00F06DFD00F09FFD414B92
S214012840414A009341498723286803F004FB234645
S2140128503F4A4049286803F0FEFA204600F0B6FDDC
S2140128603D49286803F0F7FA3449286803F0F3FA7B
S214012870FEE7A022034600901146307818F050FF7C
S214012880054630B32C4C2D49206803F0E4FA2C4958
S214012890206803F0E0FA00F03DFD00F06FFD294BE3
S2140128A0294A009329499023206803F0D4FA2B463D
S2140128B0274A2849206803F0CEFA284600F086FD0C
S2140128C02549206803F0C7FA1C49206803F0C3FABB
S2140128D0FEE70221307818F059FF054600283FF43C
S2140128E0F1AE154C1549206803F0B5FA1449206875
S2140128F003F0B1FA00F00EFD00F040FD114B124A54
S214012900009312499423206803F0A5FA2B46104A37
S2140129101049206803F09FFA284600F057FD0E493B
S214012920206803F098FA0549206803F094FAFEE758
S214012930A0000100A00006012C10002044A90300FD
S2140129403BA803007EA8030040A8030049A8030093
S21401295055A8030058A803006DA80300C00A00206C
S2140129602E4C0221207818F0FDFE054630B32C4C83
S2140129702C49206803F06FFA2B49206803F06BFAA4
S21401298000F0C8FC00F0FAFC284B294A00932949BC
S214012990A223206803F05FFA2B46274A27492068BE
S2140129A003F059FA284600F011FD2549206803F086
S2140129B052FA1C49206803F04EFAFEE702212078FD
S2140129C018F0E4FE054600283FF47CAE144C154989
S2140129D0206803F040FA1449206803F03CFA00F03E
S2140129E099FC00F0CBFC114B114A00931149A72327
S2140129F0206803F030FA2B460F4A1049206803F08E
S214012A002AFA284600F0E2FC0D49206803F023FA72
S214012A100449206803F01FFAFEE700BFC00A002041
S214012A202C10002044A903003BA803007EA8030045
S214012A3040A8030049A8030055A8030058A80300AE
S214012A406DA8030070B506460C200D46144626F008
S214012A50A5FDC0E90065846070BD70B50446456893
S214012A602B68002B00DA70BD22689A420CD12046F2
S214012A706B68984740B1AB682360EB68002BF2D0D7
S214012A802046BDE8704018471035E9E78368187E90
S214012A9070478368587E70478368987F031F584243
S214012AA0584170478368987E18B1987F043818BFDC
S214012AB001207047836801209A7FD87602449A776E
S214012AC070478368187F18B1D87FB0FA80F0400944
S214012AD070478368187F18B1D87F003818BF012067
S214012AE070478368DB6913F0FF2F0CBF01200020BD
S214012AF070478368587F18B1D87FB0FA80F04009D4
S214012B0070478368D87F7047002210B583685C6978
S214012B105A765A839B7F022B0AD80122064B2046FF
S214012B201A61236D98472046236ABDE8104018476E
S214012B30032BF2D010BD00BF00E0035000228368D3
S214012B401A777047002310B5846860696383836DC4
S214012B509847A37F043324F8130010BD4FF4807206
S214012B6083689A837047002283685A7770470123E7
S214012B700B767047022801BF0122024B1B681A70B0
S214012B80704700BFA40F002038B500238468606832
S214012B90237603F07BFE80B9032000F09BFB60B137
S214012BA01D4D1E49286803F056F900F0B3FB00F0EE
S214012BB0E5FB1B49286803F04EF90122194B6069B1
S214012BC01A61C369984798B9032000F083FB60B186
S214012BD0114D1249286803F03EF900F09BFB00F006
S214012BE0CDFB1149286803F036F90123637638BD19
S214012BF0032000F06FFB0028F9D0074C0749206836
S214012C0003F029F900F086FB00F0B8FB20680749BD
S214012C10BDE8384003F01FB92C10002060A7030060
S214012C208DA8030000D00350A5A80300C4A8030084
S214012C30012806D1034B1A681378B3FA83F35B09AC
S214012C4013707047A00F002013B50022052183687A
S214012C505A77CDE900210A210D4A586803F074FE1F
S214012C6098B9032000F036FB78B10A4C0A4920686F
S214012C7003F0F1F800F04EFB00F080FB07492068F6
S214012C8002B0BDE8104003F0E6B802B010BD00BFC8
S214012C906F2B01002C10002060A70300E5A803009D
S214012CA0002330B5846885B06069A377436D984783
S214012CB02389DFED456A9B1207EE103AB8EEC77A14
S214012CC027EE267A63898DED007A9B1207EE103A7D
S214012CD0B8EEC77A27EE267AA3898DED017A9B1284
S214012CE007EE103AE389B8EEC77A9B1207EE903AE0
S214012CF0F8EEE77A27EE267A67EEA67A102168467E
S214012D008DED027ACDED037A00F0ACF8002859D1AA
S214012D10032000F0DFFA88B12C4D2D49286803F016
S214012D209AF800F0F7FA00F029FB009826F00EFA60
S214012D3002460B462868274903F08DF8032000F069
S214012D40C9FA88B1214D2249286803F084F800F0B9
S214012D50E1FA00F013FB019826F0F8F902460B465B
S214012D6028681C4903F077F8032000F0B3FA88B10D
S214012D70164D1749286803F06EF800F0CBFA00F0FC
S214012D80FDFA029826F0E2F902460B462868114938
S214012D9003F061F8032000F09DFA88B10B4D0C4951
S214012DA0286803F058F800F0B5FA00F0E7FA03983F
S214012DB026F0CCF902460B462868064903F04BF884
S214012DC00123237705B030BD0000003D2C10002004
S214012DD060A70300FDA8030070B504460025012680
S214012DE021610846C4E90255C4E90665FFF7BEFB42
S214012DF060611C2026F0D2FB0B496060304600F073
S214012E0047FF0A4B04F11F02022009491A6000F02D
S214012E103FFF084B04F11A0228461A60064922466B
S214012E20BDE87040FFF70EBE312C0100A00F002058
S214012E30752B0100A40F0020C40A002008B503F07A
S214012E405DFFFFF7E7FB03F066FFFFF727FCFAE7F6
S214012E500144013A814200D1704711F8013D02F860
S214012E60013FF7E72DE9F0478C08E31D23F0070340
S214012E7000AFADEB030D6A462146FFF7E9FF0646B4
S214012E806B462246002115206D4618F0A5FCA0B918
S214012E90032000F01FFA80B1DFF864815649D8F8A4
S214012EA0000002F0D8FF00F035FA00F067FA327839
S214012EB05249D8F8000002F0CEFF2A4621461520D6
S214012EC018F0B8FC28B94E4B32784E49186802F013
S214012ED0C2FF06EB04082A4621464046FFF7B8FF24
S214012EE02B4622460021182018F076FCA0B90320B4
S214012EF000F0F0F980B1DFF808913F49D9F80000F9
S214012F0002F0A9FF00F006FA00F038FA325D3B49FC
S214012F10D9F8000002F09FFF2A462146182018F033
S214012F2089FC28B9364B325D3649186802F093FFA2
S214012F3008EB04092A4621464846FFF789FF2B4637
S214012F40224600211B2018F047FCA8B9032000F0F8
S214012F50C1F988B1DFF8A8A02749DAF8000002F025
S214012F607AFF00F0D7F900F009FA16F81420234981
S214012F70DAF8000002F06FFF2A4621461B2018F0FF
S214012F8059FC30B91E4B16F814201E49186802F079
S214012F9062FF2A46214609EB0400FFF759FF2B463C
S214012FA0224600211E2018F017FC90B9032000F0DD
S214012FB091F970B1124E1049306802F04CFF00F0E2
S214012FC0A9F900F0DBF918F814200C49306802F072
S214012FD042FF2A4621461E2018F02CFC054630B931
S214012FE0074B18F814200749186802F034FF2846E2
S214012FF0BD46BDE8F08700BF60A7030012A9030025
S2140130002C1000202BA9030007F022BE03F0C2BE3D
S21401301010B5044600F0CEF82046FFF745FB10BD7C
S2140130200120704700B5C3B007F05CFD07F085FDD1
S21401303048B1FFF7F5FF30B101A818F052FB10B9FF
S21401304001A8FFF7E5FF43B05DF804FB00F0E9B91E
S21401305008B50321802001F039FF03214FF4806079
S21401306001F034FF03214FF4906001F02FFF082197
S2140130704FF4C06001F02AFF08214FF4F06001F020
S21401308025FF08213E2001F021FF08212D2001F017
S2140130901DFF002008BD10B501213A2001F0BCFB40
S2140130A0002304221946184602F096FA002301224C
S2140130B01946104602F090FABDE81040012200239E
S2140130C00221104602F088BA08B5184B1B68C3F3F4
S2140130D00743012B0ED1164B04205A6E4FF4802362
S2140130E01449520358BF144A4B6601F51041086251
S2140130F058BF536602F088FD00F0A7F902F010FDF4
S21401310002F0A0FD02F02EFD02F062FD02F066FD67
S214013110FFF79EFF02F014FD00F08CF900F030FB83
S21401312000F0ECFDBDE8084003F094B80080E00F25
S214013130008000500090005000A0005008B500F03C
S21401314065FBFFF7A8FF00F08BFD00F029F8BDE84E
S214013150084000F0AFB908B500F061F903F05CFB78
S21401316002F072FD02F0E0FE06F08CF902F05AFF62
S21401317004F06AFE06F08CFBBDE8084002F094BE3F
S21401318008B502F0A5FC02F0B3FCBDE80840FFF765
S2140131903DBF00F0F5B870477047FFF743BF704773
S2140131A0024B0349186800F0B3BF00BFE80B0020CC
S2140131B0EC0B0020036837B523F47F433A4A23F02B
S2140131C007039342044664D002F18272934268D1A7
S2140131D0B0F80510222964D10122344B00791A7007
S2140131E0002218F00FFB054630B3314C31492068F8
S2140131F002F031FE3049206802F02DFE00F08AF818
S21401320000F0BCF82D4B2E4A00932E493F23206830
S21401321002F021FE2B462C4A2C49206802F01BFEA8
S214013220284600F0D3F82A49206802F014FE214906
S214013230206802F010FEFEE7207918F0BBFA05467A
S21401324000282ED01A4C1B49206802F004FE1A49A9
S214013250206802F000FE00F05DF800F08FF8174BD2
S214013260174A009317494323206802F0F4FD2B46C2
S214013270154A1649206802F0EEFD284600F0A6F829
S2140132801349206802F0E7FD0A49206802F0E3FDD1
S214013290FEE7064B1B7823B103B0BDE8304003F0D0
S2140132A06BBD03B030BD00BFA00006012810002092
S2140132B02C10002044A903003BA80300A0AC030087
S2140132C032AC030049A8030055A8030058A8030020
S2140132D06DA803000B4B02461B788BB10A4B1B787B
S2140132E0834234BF00200120084B1B783BB1084BBA
S2140132F01B7843FA02F212F0010F08BF0020704754
S2140133000120F1E70C0C00200D0C002030100020ED
S2140133100E0C002073B503F047FB4FF47A740E468B
S214013320054603F05BFB0246A5FB0401002304FBF4
S214013330061125F063FF4EF66023B0FBF4F23C2144
S214013340B0FBF3F304FB12040194B2FBF1F4B3FBFC
S214013350F1F501FB14220092054A01FB1533B0FB7F
S214013360F2F204480449006802F075FD02B070BD2F
S21401337080EE36002C100020C0AC03007047000021
S214013380012208B5074B1A700022074B1A70032258
S214013390064B1A701F22064B1A7002F023FD054BCE
S2140133A0186008BD0C0C0020301000200D0C002009
S2140133B00E0C00202C100020024B0349186802F066
S2140133C04ABD00BF2C100020D3AC030070B50C4CD6
S2140133D00C490646206802F03EFD02F003FD054654
S2140133E0206802F0F3FC3046FFF7E6FF284602F0BD
S2140133F0EDFC20680449BDE8704002F02CBD00BF1A
S2140134002C100020D5AC0300D7AC0300042208B56D
S21401341001231146184602F0DFF8002008BDFFF729
S214013420F5BF042208B511460023012002F0D4F8A6
S214013430002008BD08B501213A2001F0EDF9FFF79B
S21401344005FEBDE8084000F047B801213A2001F02A
S214013450E3B970B50024064625465B21082000F036
S21401346031FA102C04F1010300D170BD012B14D0E8
S214013470022B14D0032B14D0042B14D0052B04D10B
S2140134806A1C2946D5B21C46E8E70D3C012C0CD92E
S214013490102B0CD0B21FD15CF5E70C21F3E7D1213C
S2140134A0F1E78021EFE70021EDE75A21EBE75D2107
S2140134B0E9E7000007B5082000F0F8F902238DF8C7
S2140134C00030044B68460193FFF7C3FF03B05DF875
S2140134D004FB00BF006A18102DE9F047434D88B081
S2140134E001AC0FCD0FC495E80700012584E807005D
S2140134F001213A2001F090F9DFF8FC800121282013
S21401350001F08AF93A4B404601A903938DF812500F
S21401351002F096F92B4604220021022002F05CF804
S2140135202A4629460023022002F056F802212B469D
S2140135300846042202F050F804222B4611460020C9
S21401354002F04AF84FF002132A4C0226C4F830362D
S214013550A3F58033C4F82C361C231027C4F8346630
S21401356004F5005AC4F81C364FF4487003F0DEFB2D
S21401357004F580591420CAF8107003F0D7FB2320F5
S214013580C9F8107003F0D2FBB9214046CAF8107092
S21401359002F0B6F9002330461A461946C9F81070EB
S2140135A002F01AF8002329461A46304602F014F8AB
S2140135B02B4631463046002202F00EF800222B46FA
S2140135C01046042102F008F8404602F00BF90021EB
S2140135D02820C4F83016C4F82C16C4F83416C4F8DB
S2140135E01C1601F019F908B0BDE8F087DCAC030041
S2140135F000127A0000C0035000C00550FEE700002C
S21401360008B500F02DF8124B12498B4212D3002058
S214013610114B12498B4218D3FEF7B6FD186850F8C5
S2140136202240586840F82240013298688242F5D319
S2140136300C33EAE70022F8E71C6844F8220001325E
S2140136405C68A242F8D30833E4E70022F8E700BF3B
S214013650CCF70300D8F70300D8F70300D8F7030028
S2140136604FF400414FF0FF30124B134A10B59A60E9
S214013670D3F8882042F47002C3F888200F4A916676
S21401368001F1884101F5005210664FF6DF70506671
S2140136900220C3F8D000BFF34F8FBFF36F8F08240B
S2140136A04FF440330648C0F88041D36004600B6194
S2140136B010BD00BF00ED00E00020010000900050AA
S2140136C000E100E0014B1868704700BF140C0020B1
S2140136D0084B1B6F03F00703022B04D0032B05D006
S2140136E0012B05D0FEE7044B18687047034BFBE738
S2140136F00348704700800050140C0020180C00206E
S214013700002D310108B5FFF7E3FF054B1B6FC3F32F
S21401371003330133B0FBF3F0024B186008BD00BF62
S21401372000800050100C00200048704700B4C4040C
S214013730014B1868704700BF180C0020054B186035
S214013740054B1B6F03F00703032B01D1FFF7DABF0D
S214013750704700BF180C0020008000500020704702
S21401376000487047002D31014FF4004070474FF478
S2140137707A707047014B1868704700BF1C0C002018
S2140137800020836A10B5B3F5903F0AD2064C227822
S21401379012F0FD0F04D1DB69984708B901232370A5
S2140137A010BD4FF48170FBE7311000204FF000533D
S2140137B0074A1A60BFF34F8F0649074BCA6802F4DF
S2140137C0E0621343CB60BFF34F8F00BFFDE700BF3E
S2140137D002020FF000ED00E00400FA05002303608A
S2140137E0704703680B6001607047000005490A686E
S2140137F01318054883428CBF4FF0FF320B6010460A
S214013800704700BF200C00200080002008B5012171
S2140138103A2001F001F8032101230422002001F0DF
S214013820DBFE002001F07FFE0122194B4FF4607091
S214013830C3F8442401F012F8164B00F5D520D3F84E
S214013840F02000F2FC4042F00102C3F8F020D3F869
S214013850FC2042F08072C3F8FC200F4AA3F55D43BA
S2140138601A600E4B0222B0FBF3F00D4B01381861C3
S214013870C3F8F0204FF48072C3F804234FF060437E
S214013880084A0020C3F8B02F074AC3F8802E08BDA7
S21401389000D0035000ED00E0FF030040F8590D0092
S2140138A0000004E055CEACC5090001004FF06042AF
S2140138B00123D2F8001E03FA00F00843C2F8000EF6
S2140138C0002070474FF06043D3F8802E30B5D20702
S2140138D015D501240B4D8440D5F8FC2042F08072AA
S2140138E0C5F8FC20D3F8002E2243C3F8002E53F867
S2140138F02020002AF0D003F82010002030BD11202F
S214013900FCE700BF00ED00E02DE9F04F9A46564B6C
S21401391085B01B7806460F461546DDF83C909DF8A7
S21401392044B0DDF85080002B00F08D80072A00F2AD
S2140139308C800E9B002B00F08880B9F1000F00F000
S2140139408480129BB3F5006F7FDC012802D1109BA7
S214013950002B7AD0454B03EB05131B7B002B76D04F
S214013960434C10220021684625F05FFE04EB451407
S2140139701022002F59D13946204625F056FE43F233
S21401398010036380BBF1000F03D1E37843F0030318
S214013990E370374A0E9B02EB451CCCE90193129B60
S2140139A06901013BC3F30A009DF84C30012E03F078
S2140139B003034FEA836343EA001E53582D48CDF8AC
S2140139C000A000EA03004EEA0003535041D113233E
S2140139D00CF1100ECCF80C309CE80F008EE80F00AE
S2140139E06FF00301DCF81C20109B61F39F02012F8E
S2140139F0CCF81C20CCF8143003D1CCF81890CCF8B5
S214013A0004300027194A290102EB051342F8018008
S214013A10159A28465A60694622469F605E7301F0F1
S214013A204FFE384605B0BDE8F08F0021204625F050
S214013A30FCFD4FF444736380BBF1000FA9D1E3781A
S214013A4043F03003A4E70C48ECE70C48EAE70C48DF
S214013A50E8E7B8F1000FD4D19CF8023068F30413FC
S214013A608CF80230CDE700BFB411002034100020DE
S214013A70B41000200F80FFF3028000F0018000F0F8
S214013A80078000F038B5124B05461B78DBB1E0B174
S214013A9001F0C3FB0F4A00231146147B54B92B6077
S214013AA001251A0101EB03131D738C5001F0BBFBBA
S214013AB0204638BD0133082B02F11002EDD101F08A
S214013AC0B2FB0548F5E70548F3E70548F1E700BF0F
S214013AD0B411002034100020048000F0028000F0B1
S214013AE0018000F0154B13B51868002301908DF87E
S214013AF0043001F092FB124B1C7824B101F093FBC9
S214013B00104802B010BD01221A7001F08CFB0E4B5A
S214013B1001A81C731C7783F82C4083F83C4083F87B
S214013B204C4083F85C4083F86C4083F87C40082363
S214013B308DF8073001F092FD2046E2E748AD03001C
S214013B40B4110020038000F03410002010B588B0B6
S214013B500E9C009207940D9C024606949DF83040F8
S214013B6005940B9C04949DF8284003940024CDE909
S214013B70013420460B462146FFF7C6FE08B010BDAD
S214013B8010B588B00E9C009207940D9C02460694D0
S214013B909DF8304005940B9C04949DF828400394AE
S214013BA00024CDE9013420460B460121FFF7ACFE87
S214013BB008B010BD2DE9F843174B1F6D5B6D1F4014
S214013BC000D5FEE701260025144CDFF85480DFF807
S214013BD05490374217D02368C8F850609BB1A1684B
S214013BE0284601316268A1609847637B012B0AD1A0
S214013BF048B909EB45131A7B60F341021A731A7F21
S214013C0060F341021A770135082D4FEA460604F1A2
S214013C101004DED1BDE8F883000004503410002003
S214013C2000200450B410002070B5044601250B4E48
S214013C3004B970BD94FAA4F0B0FA80F005FA00F366
S214013C4006EB001224EA03045368002BF0D0117B24
S214013C5011B191689847EBE79847E9E7B81100205A
S214013C6008B5192001F0E2FA28B14FF00072074BAF
S214013C70C3F880211A601A2001F0D8FA28B14FF053
S214013C808062024BC3F880211A6008BD00E100E0A3
S214013C9038B505460C4601F0C0FA0022044B03EB8A
S214013CA005135C601A73BDE8384001F0BCBA00BF6A
S214013CB0B8110020074BD3F82404D3F8202403F5C9
S214013CC00053104000F0553020F05020C3F8200477
S214013CD0FFF7AABF00C00350074BD3F82404D3F85C
S214013CE0202403F50053104000F0AA3020F0A02055
S214013CF0C3F82004FFF798BF00C00350024B1968B1
S214013D00024B18681DF046BA280C0020240C00202F
S214013D107047000037B5920004460D46019226F022
S214013D2017FD431C0BD060B929462046019A25F0A1
S214013D3045FC0028044808BF002003B030BD0348F6
S214013D40FBE70348F9E700BF10E000F021E000F0D0
S214013D5024E000F013B5044601A801F021FD9DF80A
S214013D600630012223804FF4807300206380054BC8
S214013D709B680A3303F01F0302FA03F3636002B081
S214013D8010BD00BF0080E00F01F0F8BC08B501F0DF
S214013D90E5FC002008BD10B5044644EA010313F013
S214013DA00303084609D1934201D1002010BD54F8FF
S214013DB0231040F823100133F5E72146920025F041
S214013DC00DFCF2E710B5044626F0BAFC431C15D0EC
S214013DD0B0B90C4B20469B680A3303F01F0201233F
S214013DE0934023F003032344984201D1002010BDE1
S214013DF050F8042B0132F7D00348F8E70348F6E7FA
S214013E000348F4E70080E00F0EE000F021E000F048
S214013E1024E000F008B501F0F9F9014B186008BD7F
S214013E20481A0020014B186801F0F4B9481A00201E
S214013E300A460139014402F051B90123816480F830
S214013E405430704738B50546B0B1B9B1B2B1B2F524
S214013E50006F13DC01F0E1F995F84C3003F0FF0434
S214013E601BB101F0E0F9064838BD012385F84C3056
S214013E7001F0D9F92046F7E70248F5E70248F3E7EB
S214013E80032000F0012000F0022000F010B50446E7
S214013E90152001F0D9F930B994F85430002BFBD035
S214013EA005E0FFF787FE94F85430002BF9D010BDDB
S214013EB070B5054601F0B1F9AC6D0646013CAC653E
S214013EC04CB901F0A3F905462146012002F0F2F9AA
S214013ED0284601F09FF93046BDE8704001F0A3B9CD
S214013EE038B5144601F099F90023A36484F84C30E0
S214013EF02364237F0546012B03D104F1600002F001
S214013F00C5FC636B1BB100212046E26B984728462F
S214013F1001F089F92046FFF7CBFF012038BD70B5C7
S214013F20044601F07AF9A36D05464BB901F06EF926
S214013F3001210646084602F0BDF9304601F06AF94D
S214013F40A36D28460133A365BDE8704001F06BB947
S214013F502DE9F04390460022436390F85C30044616
S214013F60894687B080F85420C0F83C8043BB4FF4A4
S214013F70406346690568092E6B6124D9012605F15F
S214013F802C0744352046FFF7CAFF154B4A46CDE9B4
S214013F9002630123216B0093A06A3B460494CDF88B
S214013FA00480FFF7EDFD00232A46CDE90333009395
S214013FB0CDE90186E16A606A04F11803FFF7C6FDE0
S214013FC007B0BDE8F083A6F109030BBF05F1200792
S214013FD005F1240738353C355E425E41D2E700BF25
S214013FE0E13E01002DE9F0471F46002388B080F826
S214013FF05430109B0446436390F85C308846C76390
S21401400053BB4FF4406346690568092E6B6126D998
S214014010012605F12C0944354FF0010A2046079286
S214014020FFF77DFF144B079ACDE90263216B4B46E0
S214014030A06A04940197CDF800A0FFF7A1FD002324
S2140140402A46CDE90333CDE901764346E16A606A43
S214014050CDF800A0FFF77AFD08B0BDE8F087A6F11D
S21401406009030BBF05F1200905F1240938353C3554
S2140140705E425E41D0E700BFE13E01002DE9F04718
S21401408017460022436390F85C300446884686B0A3
S21401409080F85420C7634BBB4FF4406346690568FC
S2140140A0092E6B6125D9012605F12C0A44354FF0FE
S2140140B000092046FFF733FF144B216BCDE902635D
S2140140C004F138025346A06A04940197CDF8009093
S2140140D0FFF756FD01232A460093CDE9039943468F
S2140140E0CDE90176E16A606AFFF730FD06B0BDE80A
S2140140F0F087A6F109030BBF05F1200A05F1240A92
S21401410038353C355E425E41D1E700BFE13E0100F5
S2140141102DE9F04104468B4F8AB003AE0D460FCF12
S2140141200FC697E8070086E80700002C00F0088114
S2140141301DB985480AB0BDE8F081802200212046DD
S21401414025F073FA2B68814A934240F0B180282209
S21401415022654FF480224FF000087D4FC4E90B72B0
S21401416026462F4646F8043B0FCF0FC697E80F00AA
S21401417086E80F006B7E012B08BF8DF81A30AB7EE8
S21401418033B1012B40F0A2804FF40073ADF81C3020
S2140141902B7E0121012B03BF00238DF819304FF42C
S2140141A07A73EB683A20059300F036FB0121206D07
S2140141B000F032FB2B691A1F0C2ABAD8033B286879
S2140141C003A98DF8183001F03BFBAB6923F47F039C
S2140141D023F47F4323B92268936843F480339360C2
S2140141E02B7A2879697940EA03406B7AAA7941EA01
S2140141F00341AB7AEE7E42EA0342564B4FEA481839
S2140142004344002E6DD11D26C3F81C66C3F8340640
S214014210C3F82C16C3F83026E97AEA7942EA014255
S214014220C3F82026E37BE27A84F84530237F207AA0
S214014230677AA57A217B94F80D80A67B84F84420C2
S214014240002B58D10422019301F0C6F9019B0122EB
S2140142504146384601F0C0F9A27F3146012A8CBF9B
S2140142600123019B0422284601F0B6F9E37F3BB9FE
S2140142700123042294F8451094F8440001F0ACF9A7
S21401428000F0CBFF344B1A78002A4ED101221A7067
S21401429000F0C9FF02F0C0FAFFF724FC002104F188
S2140142A02400FFF7EFFB0146002841D02B4841E7E9
S2140142B02B4A93427FF43DAF292222654FF4A02278
S2140142C028484FF00108C4E90B0249E7022B02D146
S2140142D04FF480735AE7032B7FF42BAF4FF44073F0
S2140142E054E71C25C3F81C56C3F83406C3F82C162D
S2140142F0C3F8302696E70023012201F06DF900236A
S21401430004224146384601F067F9A37F0222012BB9
S21401431094BF002301233146284601F05DF9E37F6F
S214014320002BADD101230222A4E700F07CFFB3E706
S21401433004F12800FFF7A6FB00283FF4FBAEB5E723
S2140143400948F7E670AD0300022000F000C00550F2
S2140143500200040000C00350FC1A0020092000F0EF
S2140143600000065002000500012000F070B5037F32
S2140143700446012B0D4616460DD0FFF763FD48B9DE
S214014380324629462046054BFFF7E2FD2046FFF759
S2140143907DFDA06C70BD0248FCE700BF3B3E0100FE
S2140143A0082000F07FB51546027F0446012A0E4616
S2140143B013D01A460393FFF745FD60B97DB1094A4C
S2140143C031462046039B00922A46FFF70BFE204605
S2140143D0FFF75CFDA06C04B070BD0348FBE7034823
S2140143E0F9E700BF3B3E0100082000F0022000F084
S2140143F070B5037F0446012B0D4616460DD0FFF718
S21401440021FD48B9324629462046054BFFF736FEC0
S2140144102046FFF73BFDA06C70BD0248FCE700BFDD
S2140144203B3E0100082000F0034B5A6812B19A6A1D
S214014430002AFAD1704700BF00400650024A936A2C
S2140144400342FCD1704700BF0040065038B54368B0
S2140144500146B3FA83F3C3F11F04134B5B680BB138
S214014460FFF7E2FF0125114B20205D60FFF7E6FF15
S2140144700B7A0D48002B14BF022200224B7843EA28
S2140144800413134383604B7A002B14BF02220022CD
S2140144908B7A13434362064B5D600B7813B1FFF7CB
S2140144A0C3FFC56038BD00BF00400650006006501F
S2140144B00050065008B51020FFF7C0FF024B1963E5
S2140144C0BDE80840FFF7BABF00400650014B186B25
S2140144D0704700BF0040065008B5FFF7A5FF02234E
S2140144E00449CB6000230B62FFF79EFF0123CB60DC
S2140144F008BD00BF00400650044BD3F88420D20606
S214014500FBD4D3F88400C0F38110704700400050FC
S21401451038B5104B0546D3F820310C4603F003039B
S214014520022B0BD0032B0DD0012B0FD1FFF7CAF8AE
S214014530052305B1286004B1236038BDFFF7F8F8FC
S2140145400323F6E7FFF70CF90223F2E700231846E8
S214014550EFE700BF0080005073B50D4600210E4BFB
S2140145600191D3F88041064604F00304012C09D0DA
S214014570022C0CD00C460EB1019B336005B12C60A9
S21401458002B070BD01A8FFF7C3FF0F24F3E7FFF7E2
S214014590E7F80190EFE700BF0080005038B5174BF1
S2140145A00546D3F824310C4603F00703013B052BDF
S2140145B020D8DFE803F0030F171B0B13FFF782F871
S2140145C0052305B1286004B1236038BDFFF77AF8EA
S2140145D00623F6E7FFF7ACF80323F2E7FFF7A8F8A0
S2140145E00423EEE7FFF7BCF80223EAE7FFF7B6F885
S2140145F00723E6E700231846E3E700BF00800050E4
S21401460038B5104B0546D3F840310C4603F003038A
S214014610022B0BD0032B0DD0012B0FD1FFF7A4F8E3
S214014620092305B1286004B1236038BDFFF7A2F85D
S2140146300823F6E7FFF79BF80B23F2E7002318465B
S214014640EFE700BF0080005038B5134B0546D3F89E
S21401465000320C4603F00703013B032B18D8DFE8B2
S21401466003F0020A0E12FFF77FF8092305B128604E
S21401467004B1236038BDFFF77DF80823F6E7FFF79E
S21401468076F80B23F2E7FFF73DF80E23800AEDE7F5
S21401469000231846EAE700BF0080005038B5104BEB
S2140146A00546D3F840320C4603F00303022B0BD029
S2140146B0032B0DD0012B0FD1FFF756F8092305B1B7
S2140146C0286004B1236038BDFFF754F80823F6E7E5
S2140146D0FFF74DF80B23F2E700231846EFE700BF7C
S2140146E00080005038B5104B0546D3F860310C46B3
S2140146F003F00303022B0BD0032B0DD0012B0FD19C
S214014700FFF732F8092305B1286004B1236038BDEC
S214014710FFF730F80823F6E7FFF729F80B23F2E74F
S21401472000231846EFE700BF0080005010B40D4C80
S2140147300B46D4F8204204F00304012C0AD0022CC4
S2140147400CD008B1002101600BB100221A605DF89F
S214014750044B70475DF8044BFFF7DABE5DF8044B77
S214014760FFF74EBF00800050B0F5207F1FD009D85C
S214014770B0F5007F15D003D868B1B0F5C07F0AD078
S21401478000200CE0B0F5607FFAD10B4BD3F8800027
S214014790C0F3011003E0084B186FC0F3033001307B
S2140147A07047054BD3F89000C0F30460F7E7024B5F
S2140147B0186FC0F38020F2E7008000504FF40032FB
S2140147C00E4B014610B500209A66FFF7CDFF41F665
S2140147D0713248430A490B4B88428CBF4FF4801014
S2140147E00020DC69DA639A6822F4401202439A6078
S2140147F0E20344BF0022DA6310BD00BF0090005000
S214014800005A62020000035008B5FEF78DFFBDE8AE
S21401481008400021FFF7D2BF420910B510D0012A87
S21401482010D00B4B0B4C022A18BF234600F01F007A
S21401483051B103F58053012202FA00F0186010BD51
S2140148401346F3E7044BF1E703F50053F3E700BF24
S2140148506880005060820050648000501FB50023BD
S21401486080280446019371D02AD8002872D0A0F17E
S2140148702004412C32D8412C30D8DFE804F06B6E8E
S2140148806B6E7D7D7D7D6E6E873C9D623C6E6E6E31
S2140148902F2F2F2F2F2F82546E6E6EA7A26E2F2FC3
S2140148A02F2F2F2F2F2F2F2F2F2F2F6B2F6B6B6B22
S2140148B07D2F2F2F2F2F2F2F2F2F2F2F2F2F6B6B3C
S2140148C0B0F5806F58D021D8B0F5007F4FD008D80A
S2140148D0B0F5807F5FD0B0F5C07F3BD0019804B0C3
S2140148E010BDB0F5607F42D0F8D8B0F5207F34D047
S2140148F0B0F5407FF2D1FEF705FF02464FF4207077
S214014900FFF732FFB2FBF0F0400821E0B0F5C06FD0
S21401491052D00DD8B0F5A06F33D0B0F5B06F35D00A
S214014920B0F5906FDAD1002101A8FFF737FED5E781
S214014930B0F5E06F45D0B0F5F06F47D0B0F5D06F69
S214014940CCD1002101A8FFF77FFEC7E7FEF7C0FE26
S2140149500190C3E7FEF7D6FEFAE7FEF7D3FE02465E
S2140149604FF42070FFF700FFB2FBF0F0F0E7FEF720
S214014970AFFE02462046F5E7002101A8FFF7C8FD75
S214014980ACE7002101A8FFF7D1FEA7E7002101A8A7
S214014990FFF7E2FDA2E702934FF0E0231B695B07F6
S2140149A005D5FEF7AFFE0290029B019396E703A999
S2140149B002A8FFF725FEF7E7002101A8FFF720FE72
S2140149C08CE7002101A8FFF769FE87E7002101A80F
S2140149D0FFF788FE82E7000008B58020FFF73EFF5C
S2140149E0034B98429EBF4FF48032024B1A6708BDB4
S2140149F0005A620200A000501FB50023B0F5807F68
S214014A00019377D028D8382800F094800BD8243822
S214014A10092810D809280ED8DFE800F0676767670D
S214014A200D0D620D377D52285FD008D83D283BD04A
S214014A303E2800F08480019805B05DF804FB8028CC
S214014A40F9D1414B1B6F03F00703013B032BF2D84F
S214014A50DFE803F044413F6CB0F5D06F5BD019D866
S214014A60B0F5A06F66D00AD8B0F5806F3DD0B0F52E
S214014A70906FE0D1002001A9FFF790FDDBE7B0F5CC
S214014A80B06F2DD0B0F5C06FD5D1002001A9FFF7CA
S214014A90B7FDD0E7B0F5006FECD00AD8B0F5E06FFF
S214014AA04DD0B0F5F06FC6D1002001A9FFF71AFE70
S214014AB0C1E7B0F5086FBED1234BD3F8003103F040
S214014AC00303022B2CD0032B2ED0012B30D1FEF763
S214014AD02FFE032300E005230193ACE70223FBE747
S214014AE0002001A9FFF738FDA5E7002001A9FFF77F
S214014AF00FFDA0E702934FF0E0231B695B0705D586
S214014B00FEF700FE0C230393039BE5E703A902A827
S214014B10FFF776FDF8E7002001A9FFF795FD8AE784
S214014B20FEF728FE0823D7E7FEF718FE0723D3E78C
S214014B300123D1E7002001A9FFF7F8FD7BE700205C
S214014B4001A9FFF7ABFD76E70080005008B5FFF737
S214014B5053FF082811D00938012811D84FF4001244
S214014B60094B4FF6FF705A6603F5D8335B6A13F0AC
S214014B70010F18BF4FF4FA7008BD044B1888FBE705
S214014B804FF6FF70F8E700BF00900050480C002079
S214014B9070B504468020FFF72FFF032800F08280BF
S214014BA04FF40022444B02215A6645F60E03434A4F
S214014BB0C2F88030424B9962012103F58053996215
S214014BC0936DD903FCD4D4E900131B0543EA0163B2
S214014BD0E17B94F822500B43217B94F8236043EA4F
S214014BE00143617B43EA0133A17B43EA81131361ED
S214014BF09169D4E904031B0643EA806301F000418E
S214014C000B43A17EE07E0B43217E43EA0143617E96
S214014C1043EA01239361E369126A002B0CBF00216A
S214014C20082122F00D0242EA030242EA8002234BE7
S214014C3042EA01021A6294F820204FEA421232D167
S214014C40986A94F8211020F0330042EA01120243D8
S214014C5042F001029A621B4A996D32EA0101FBD1C8
S214014C60022217498A621A659A6D5200FCD41869A5
S214014C70A26820F4700040EA02504FF0004218612A
S214014C800F4B9A611DB9022203F580539A6216B939
S214014C9001220D4B9A6294F824301BB1074B0B4A44
S214014CA0C3F8802070BD996A21F0330131430A436D
S214014CB042EA4502EEE700BF0090005000C00050F7
S214014CC000D000500300014000E00050F1A7FFFFB4
S214014CD0014B93F900007047FD1A0020F0B5D0E9AA
S214014CE001434FF480061A4A4178057856664FF418
S214014CF0D156022702F5B8325662164E4F29776012
S214014D004FF0010728BF4F2106F5805677601669D8
S214014D10F603FCD441EA052151611B01417B43EABC
S214014D2004230B43017B43EA41039360C37B817BEE
S214014D301B0143EA4113417C0B43017C43EA4103D7
S214014D405360837C13B16FF4D1535362F0BD00BF3F
S214014D500090005000100250014B1880704700BFB1
S214014D60480C00204FF4001208B5184B5A6602236F
S214014D70174A5360936813F48033FBD1012822D17C
S214014D80FEF7D6FC134B984215D003F5122303F514
S214014D90F863984213D0104B00EB8002400AB3FB35
S214014DA0F0F0520A0A4BDA62012218635A620022B4
S214014DB0074B5A6008BD45F67A10084AF2E745F6F1
S214014DC01A00074AEEE75362F1E700BF0090005071
S214014DD00040025000F0490264666666D8B80500D5
S214014DE0BBCF05000029CCBF01210021FFF7E6BC9F
S214014DF0B0F5207F10B50C4642D008D8B0F5007F3C
S214014E0033D003D888B1B0F5C07F0ED010BDB0F551
S214014E10607FFBD11F4B013CD3F8801021F030019D
S214014E2041EA0414C3F88040F0E7FFF7EDFC00F018
S214014E3035F84FF48031184A164B1167196F013C4B
S214014E4021F4704141EA04341C67FEF75BFC04461A
S214014E50FFF752FBC0F102012046FFF7C3FF00F047
S214014E6023F8BDE81040FFF7B7BD0A4B013CD3F865
S214014E70901021F0F85141EA0464C3F89040C5E768
S214014E80044B013C196F21F4806141EA84241C67BC
S214014E90BCE700BF008000500090005002214FF494
S214014EA02070FFF7A5BF000008B54FF4C070FFF7EC
S214014EB0D5FCBDE80840044988428CBF0221012187
S214014EC04FF42070FFF794BF80F0FA02B0F5807FB0
S214014ED070B50C4600F0F88029D8382800F04B81D0
S214014EE010D82438092816D8092814D8DFE810F075
S214014EF0DC00DC00DC00DC0013001300CD00130036
S214014F0047003301522800F0CF8005D83D2851D004
S214014F103E2800F0418170BD8028FCD18B1E052BF8
S214014F2000F2B080DFE803F0AB99AE69AEA8B0F549
S214014F30D06F00F0108132D8B0F5A06F00F01B8161
S214014F4016D8B0F5806F00F0AF80B0F5906FE2D163
S214014F50023C052C8CBF0021974B984A98BF195DDF
S214014F60D2F8243123F007030B43C2F82431D2E7E9
S214014F70B0F5B06F00F08980B0F5C06FCBD1083CBA
S214014F80032C8CBF00218E4B8C4A98BF195DD2F83A
S214014F90403123F003030B43C2F84031BBE7B0F5C1
S214014FA0006FD5D016D8B0F5E06F00F0F580B0F5FB
S214014FB0F06FB0D1083C032C8CBF0021814B7F4A97
S214014FC098BF195DD2F8603123F003030B43C2F892
S214014FD06031A0E7B0F5086F9DD1CC1E052C8CBFC3
S214014FE00021794B754A98BF195DD2F8003123F03C
S214014FF003030B43C2F800318DE700250226012189
S214015000022000F0A3F9FFF7FFFBFFF747FF4FF47D
S21401501080316E4B694A1967136F23F007033343D8
S2140150201367FEF76FFB0646FFF766FAC0F102014B
S2140150303046FFF7D7FE0121002000F0C7F9FFF741
S21401504033FFFFF7C9FC002D7FF465AF032C7FF417
S21401505062AF01225E4B9A625DE74FF400225B4B22
S2140150600E465A66012203F540539D6A03F58053A6
S214015070C5F340059A62C2E700250426BFE700256E
S2140150800126BCE700252E46B9E7022C03D0A4F181
S2140150900F0044424441494BD3F8801121F00301EB
S2140150A00C43C3F8804136E7023C032C8CBF002139
S2140150B0484B424A98BF195DD2F8203123F00303CA
S2140150C00B43C2F8203126E7A1F10804082C3FF66D
S2140150D022AF01A353F824F0FD500100FD5001005A
S2140150E0174F0100FD5001002B510100174F010021
S2140150F0174F0100174F0100FD5001004FF4803299
S2140151002E4B3549586E03F580535A660B6A43F0A9
S21401511001030B62C1035CBF304B5A664FF0E022BD
S214015120136923F004031361F5E64FF48032234B31
S2140151302949586E03F580535A660B6A23F001031A
S2140151400B62C3035CBF254B5A664FF0E02213691E
S21401515043F00403E7E7083C062C8CBF0021204BF4
S214015160164A98BF195DD2F8003223F007030B43A5
S214015170C2F80032CFE60F2C0CD0102C14BF002141
S21401518002210E4AD2F8203223F003030B43C2F861
S2140151902032C0E60121F4E7083C032C8CBF002135
S2140151A0104B064A98BF195DD2F8403223F003032C
S2140151B00B43C2F84032AEE694AD030000800050C7
S2140151C090AD030090AD0300A1AD03000090005028
S2140151D000E000508CAD030000C0075000A0005056
S2140151E09AAD030090AD03000028ABBF00F160400C
S2140151F0054B00F5614000F00F00ACBF90F80003CE
S214015200185C0009704700BF14ED00E0EFF3108052
S21401521072B6704700B962B67047EFF3118030235B
S21401522083F31188704780F311887047054B420954
S21401523053F8223000F01F0023FA00F0C04300F0BC
S2140152400100704700E100E0014608B5EFF3108366
S214015250DB0702D50122104608BDFFF7E7FF02462D
S2140152600028F7D10846FFF7BFFF0146EFF3118389
S21401527013B1B0EB131FEDD2074B5B68C3F3080302
S214015280002BE8D0103B58B2FFF7AEFF88428CBF28
S21401529000220122DFE700BF00ED00E0194B10B548
S2140152A01B6873B3184A5268012A2AD0174A80200D
S2140152B0C2F80031FFF7A0FB05281FD14FF4C070DC
S2140152C0FFF752FA0128044604D102214FF4C070B8
S2140152D0FFF78EFD07220E4B1A610122A3F58053BC
S2140152E05A60094A1369DB07FCD5012C09D121460E
S2140152F0BDE810404FF4C070FFF77ABD0122054BA0
S2140153005A6010BD001B002000C0015000800050F4
S21401531000E0015000D00150044A4178536F23F455
S214015320407343EA01235367704700BF00400050B3
S214015330FFF7B4BF034A0179D36E23F030030B4362
S214015340D36670470040005070470000F8B5044629
S2140153501C4BD3F88420D106FBD4D3F88430C3F396
S21401536081139C422CD0FEF7B3F9012C064602D1DC
S2140153702146FFF737FDFFF749FF4FF00072124B4A
S21401538007465A662046FFF7DFFF4FF480630D4D50
S214015390621E93402B676B6E9A0103D4D5F8843056
S2140153A09B060AD53846FFF735FF022C08D1304652
S2140153B0BDE8F8400021FFF715BDD5F88430EAE7CF
S2140153C0F8BD00BF004000500060005007B518B996
S2140153D00191FEF77DF90199064B1B7843B1064B07
S2140153E0984205D8012003B05DF804EBFFF7AEBF85
S2140153F00220F8E7041B0020005A62020278034BE1
S214015400012100201A70FFF7E1BF00BF041B002036
S2140154104FF0004210B501244AF6CD31154B5A66BD
S214015420154A03F50B2354605A6C1964224088B957
S214015430996811F0010F114903D08C60D86AC00732
S214015440FCD501234B6012B10D4B0E4A1A641CF0B9
S214015450E4FF10BDD96A0907FCD42021074B596225
S2140154600121A3F58053996005494B6A9B06FCD53B
S214015470E9E700BF00900050005009500060095055
S214015480004009503254FFFF4FF0004238B5194B27
S214015490194C5A66012203F50C235A604AF6CD339D
S2140154A0656C23644378154093401343134AD363D2
S2140154B0A368827823F0740343EA0213C278002AB1
S2140154C014BF042200221343A3600279837943EABE
S2140154D0022323614279C37943EA02236361007898
S2140154E0FFF796FF0DB1064B23641CF096FF0120D3
S2140154F038BD00BF009000500040095000400050E9
S2140155003254FFFF70B5054614460E46FFF77EFE81
S214015510296881EA040202EA06044C402C60BDE8D0
S2140155207040FFF777BE7047072AF7B501F003060C
S21401553014461F464FF003012CD89500A94000FAE7
S21401554005F21C480191FFF7DDFF01991A4806FA9A
S21401555005F2FFF7D7FF194B19499DF82000002FD8
S21401556008BF1946012303FA04F40C60154B1649CB
S214015570002808BF0B461C60144B9DF82400C3F896
S21401558020441031A3F6DC33002808BF0B461C600C
S21401559003B0F0BDA2F10805AD00A94000FA05F27E
S2140155A00B480191FFF7AEFF01990A4806FA05F28A
S2140155B0CFE700BF00C4035008C4035010E40350F3
S2140155C010D4035014D4035014E4035000E00350E5
S2140155D004C403500CC40350F8B504460D461F46D8
S2140155E016464AB101238B403021194A01FB00229D
S2140155F0FFB141F21001535004EB4403072D4FF065
S2140156000F014FEA031317D8A80006FA00F28140EB
S21401561010481844FFF776FF56B9012130230C488D
S21401562001FA05F503FB040077B141F21003C550FA
S214015630F8BD42F21001DEE7A5F10800800006FA87
S21401564000F281400448E4E742F21003EFE700BFAE
S21401565000C0035004C003500CC0035010B5012114
S21401566004462020FFF7D8F801212120FFF7D4F8BF
S2140156700122114B5A60227812069A606178A2784C
S21401568042EA01429A61FF229A6200229A631A64F0
S2140156904FF000425A654FF0FF324FF4001103F508
S2140156A000531A65054AC2F88011E3781B01DBB284
S2140156B082F81533116010BD0000045000E100E0CF
S2140156C02DE9F04101250C46C3B2DFF888E0D1F898
S2140156D000809D408F7ACB7A94F80DC0097BCEF876
S2140156E050500EF5005E4EF820804FF0300E184EEA
S2140156F01B050EFB006043EA074343EA415322F0D1
S2140157000302C0F860C0C3650267FFF786FD736DCC
S2140157102B437365237A13B1336C2B433364637A5B
S21401572013B1B36B2B43B3632279A37943EA0243E4
S214015730084A93616179E37943EA014306498B613B
S214015740034B55639D64BDE8F041FFF76CBD00BF98
S2140157500000045000200450001004504FF40032A2
S214015760054B9A6641F6713203F51C33DA63012262
S21401577003F50053DA6070470090005041F671322D
S2140157800121064BDA6303F50052D1600022DA6389
S2140157904FF40032A3F518339A66704700000350A1
S2140157A04FF48032064B5A6603F5E6235B69C3F372
S2140157B08512827003F03F021B0B42700370704724
S2140157C00090005038B50546144621B94FF42070B4
S2140157D0FFF744F8014601396400B1FBF4F1090210
S2140157E0E96138BD012200F5805310B55A6040F6D4
S2140157F0AA6341F20502436100230E498360C36533
S214015800C26000F500520361C361C36491640A4932
S2140158108365884202D0094CA04207D188420365BD
S21401582002D0064B984201D1002343650123536001
S21401583010BD00BFFFFF010000C00550000006506C
S21401584038B50D46FFF7CEFF0122A97B00F5805340
S2140158505A602A8A8368002914BF4FF480610021A8
S21401586042F0010213432A7D0B43002A14BF4FF076
S2140158700052002283608368044613438360AB7C36
S2140158805BB11D4AEB7C90422DD1A2F51032C2F8D5
S2140158908C31E36D43F08003E3652B7B2046D5E92D
S2140158A0011243F48053E360FFF78CFF6B7B0BB16F
S2140158B0102363616B7D1BB1A36843F48033A3603F
S2140158C0AB7D1BB1A36843F40043A360EB7D2A7E46
S2140158D01B07120503F0E04302F4E0021343A3653D
S2140158E02B78636138BD054A904204BFA2F5203289
S2140158F0C2F89C31CDE700BF00C00550000006503D
S21401590083695A06FCD5C16383699B06FCD5406A48
S214015910C0B2704738B50446054D1CF0A5FD0FCC46
S2140159200FC594E8030085E80300002038BD00BFDA
S214015930081B002047F6FF739A42F0B563D0022990
S21401594063D8334BCF0003EBC10013F831108478D2
S214015950012913D10025C3781B1B9D4202D3E018F1
S214015960C0B2F0BD591B4668A3EB510136F9116070
S2140159709642D4BF0D4601F1FF33EEE7406800289A
S214015980EFD0B0F90010914204DBB0F90210914259
S214015990B8BF114682883B44FF2A19BFC822282671
S2140159A0B0F90620B0F90860A2EB01020CBF012590
S2140159B0002592FBF6F25F782A447B1E934228BFAD
S2140159C013464FF47A7E00EBC305AE68EA88AC4610
S2140159D011FB02621E4622EAE272013302F5FA72F6
S2140159E09F42B2FBFEF204D9BCF80CC008359445C0
S2140159F0EBD200EBC6008088904228BF1046A0423A
S214015A0038BF2046ACE7FF20ABE70020A9E700BF80
S214015A10081B00200229F0B553D82B4800EBC1041F
S214015A2010F83110636801290FD1E078A47890420C
S214015A3094BFC4EB0001C4EB0201001BCAB2824250
S214015A40C8BF002233F91200F0BD002B39D0A1786F
S214015A50914202D3B3F90200F6E7E178B3F9000008
S214015A609142F1D999886478A1F1FF06013C71420F
S214015A7003F10405E4B2714103F10C071FFA82FC3D
S214015A80CEB2B44216D805EBC1014FF47A756A431B
S214015A90B1F902404968521A04EBD47102EB610273
S214015AA092FBF4F29042CFDBB3F902009042CBDCDA
S214015AB010B2C9E737F831E04E1CE645E3D331466C
S214015AC0DEE70248C0E700BF081B00200080FFFF9A
S214015AD008B50448FFF71EFFBDE8084001201CF08A
S214015AE0DDBC00BFA4B50300004870474A0C002087
S214015AF07FB50222084B0949CDE901234FF0007317
S214015B00CDE90313052301A94FF0FF3005931CF0DF
S214015B102DFD07B05DF804FB006A180000020400C2
S214015B2007B56B46054A1068516803C36846FFF718
S214015B30ABFC002003B05DF804FB00BFA7AD03007B
S214015B4013B50024064A6846536F43F001035367B2
S214015B5000948DF80440FFF7EDFB204602B010BD1F
S214015B600040005030B58BB06C46154D0FCD0FC4BC
S214015B700FCD0FC495E8030084E80300114BD3F85A
S214015B804C21120314D4D3F85041E4B28DF81940D5
S214015B90FFF79EF8204480F308008DF818000A48A5
S214015BA0FDF7CCFD6846FEF7F3FF00200BB030BDD5
S214015BB0064B1C884FF6FF739C4208BF8C24E5E712
S214015BC0B0AD03000080E00F00F049020001E00FD5
S214015BD008B50020FFF7C6F8002008BD30B5094D0E
S214015BE087B001AC0FCD0FC42B6801A823603F23FB
S214015BF08DF80530FFF772F86420FFF7ADF8002046
S214015C0007B030BDD8AD03006FF00402502110B5C7
S214015C100A480B4C12F0800FD3B21BBF03F00F03E0
S214015C20043BA3181B1802F101020CBF83F80013F2
S214015C301976402AEED1002010BD00BF00ED00E02D
S214015C4000E100E000F078B838B500F0E5FD044664
S214015C50E0B900F0C3FE4FF4167343430C4803F556
S214015C60742303F23F23B3FBF0F30A4A0A49136095
S214015C700A220D680948013A12F0FF0240F8043B77
S214015C80F9D103EBC3022B4413440B60204638BD05
S214015C9040420F005C1B0020281B00202C1B00200C
S214015CA0012208B5034B1A7000F071FE024B186012
S214015CB008BD00BF241B0020581B0020F8B5144C5B
S214015CC0237823B300F063FE124B134D1B68134E6B
S214015CD0C01A012838BF0120114B124F18602B78CB
S214015CE056F8232046F82300111A3A680E48521A2D
S214015CF00A213A600932B2FBF1F20133DBB20260EB
S214015D00B3FBF1F201FB12332B7000232370F8BDB5
S214015D10241B0020581B0020541B00202C1B002095
S214015D20201B0020281B00205C1B0020014B18684C
S214015D30704700BF5C1B002020234FF400220A4955
S214015D4081F82C33094B5A66094A03F5405303F58B
S214015D500050426702674FF48050C1F884014860E2
S214015D6003445A67704700BF00E100E0009000500E
S214015D70010000A0044B9A6DD20702D40028FAD184
S214015D8070470120704700BF00C000500C4B10B593
S214015D901C6FE20707D5012203F500531A67FFF7C8
S214015DA08DFF00F047FB14F000521CBF054B1A672D
S214015DB0002CBEBF4FF00042024B1A6710BD00BF59
S214015DC000C0005000E00050FFF7E0BF10B50446E9
S214015DD0FFF71CFA024B1C60FFF71CFA002010BDEF
S214015DE0601B002010B5FFF711FA034B1C68FFF784
S214015DF011FA204610BD00BF601B002007B530B960
S214015E00CDE90012FFF7EEFFDDE9001230B143687D
S214015E1023B1006803B05DF804EB1847232003B0F4
S214015E205DF804FB30B51C4685B058B9CDE90012C3
S214015E30FFF7D8FFDDE9001204B903AC20B923202F
S214015E4005B030BD03B903AC8568002DF7D02346F5
S214015E500068A847F4E70EB477B507AB53F8046BB0
S214015E6005460193B0B9FFF7BDFF04460546304627
S214015E70019923F0ADFDAC42064602D02046FFF75D
S214015E80A5FF002ED4BF3720002003B0BDE8704028
S214015E9003B07047FFF7A6FF85420446E7D02846C1
S214015EA0FFF794FFE3E7000010B5002400F04EF87A
S214015EB00348044B84604360FFF788FF204610BD0B
S214015EC0681B0020C95E010007B5044B0093044B14
S214015ED01B8800F051F803B05DF804FB641B00203A
S214015EE0500C002000207047FEE74FF400530020BE
S214015EF04B607047012070470020704707B50020AF
S214015F0001AB0190FFF78EFF0198002808BF4FF004
S214015F10FF3003B05DF804FB10B514460020FFF710
S214015F206DFF204610BD0000034B022218680023B7
S214015F308068194623F088BC600D00204FF060424F
S214015F40D2F8803E1B02FBD47047000008B5074B11
S214015F501A6842B9012208201A60FDF7A7FC044915
S214015F60044800F045FA002008BD00BF7C1B002055
S214015F70540C0020741B00202DE9F0470F461546EF
S214015F801E46002402F1040802F109094FEA132A09
S214015F905FFA88F84C4502D30020BDE8F0871CB3B1
S214015FA0012C05D141460820FDF78CFC0134F1E7B0
S214015FB0022C1BD0032C01D1F1B2F4E7042C17D02C
S214015FC0052C04D1089B13F8011B0893EBE7AB1DC6
S214015FD0A3420FD0EB1DA3420CD005F10803A34248
S214015FE00AD0BB1F195DDEE75B21DCE7D121DAE7CA
S214015FF05146D8E75A21D6E75D21D4E7BFF35F8F34
S214016000074B5A6A22F480325A62D3F8942022F05F
S2140160100102C3F89420BFF34F8FBFF36F8F704711
S21401602000ED00E070B52648264CFFF7E7FF8442F6
S21401603008BF4FF08043244A18BF20F01F03D2F850
S214016040C01018BF203B21F0FF0141F0A001B3F1C1
S214016050005FC2F8C0100CD31C4D1D4E296843F0DA
S2140160600103C2F898100131C2F89C60C2F8A03052
S2140160702960844210D01548164B0268124923F055
S2140160801F0343F00303C1F89820C1F89C30124B5C
S2140160900132C1F8A0300260BFF35F8F05220A4BC0
S2140160A0C3F894205A6A42F480325A62BFF34F8F83
S2140160B0BFF36F8FBFF34F8FBFF36F8F70BD00BFFE
S2140160C0C40D0020740F002000ED00E0801B0020AE
S2140160D003000020930F0020E1FFFF3F10B5144698
S2140160E0FFF78CFF1F2C24D91C4A1D4CD2F8C03058
S2140160F023F47F4343F48073C2F8C030C2061CBF4A
S21401610020F01F002030CB06144A236818BF21F068
S2140161101F0120F01F0021F01F01C2F8983040F047
S214016120030041F003010133C2F89C00C2F8A0103D
S2140161302360BFF35F8F0522084BC3F894205A6A89
S21401614042F480325A62BFF34F8FBFF36F8FBFF3B3
S2140161504F8FBFF36F8F002010BD00BF00ED00E032
S214016160801B0020BFF34F8F0549064BCA6802F417
S214016170E0621343CB60BFF34F8F00BFFDE700BF64
S21401618000ED00E00400FA0508B5FFF7EBFF08BDD7
S214016190034B1B78002B14BF01200220704700BF61
S2140161A0981B00200329F8B598BF124B05460E46EA
S2140161B08CBF00245C5C032805D8DFE800F00208E9
S2140161C00B0E44F002040C4B1F684FB9F8BD44F0A7
S2140161D00804F8E744F02004F5E744F08004F2E709
S2140161E07B681A68144203D0314628465B68984794
S2140161F03F68EAE7ECAD0300941B002038B5104D6C
S2140162002B78ABB10F4C23781BB100F0D7F90023E4
S2140162102370002000F0F4F90B4C50B100F0FAF9AD
S2140162200023012120782B70FFF7BCFF0123237088
S21401623038BD0122054B1A702278054B1A70F7E714
S214016240921B00208D1B0020841B0020911B002028
S214016250A01B002070B5FEF7D9FF114E0546337816
S2140162608BB900F0D9FA044620B12846FEF7D2FFD2
S214016270204670BD0B48FDF7B1FA0B4B1C6000F0D1
S214016280ADFB0A4B186000F01DF900F0E1F9084B70
S21401629000241860012328463370FEF7BBFFE7E7AA
S2140162A08E1B0020941B0020A41B00209C1B00209A
S2140162B0881B002000292DE9F34114BF0121FF218D
S2140162C0254A00F1FF30135C0B4413543AD0234E99
S2140162D03278012A36D9FFF75BFF0128044634D805
S2140162E01F4FFEF793FF3B781BB31E4D2B781BB950
S2140162F001222A701C4A1370DFF8708098F800306B
S21401630033B1019000F05AF90023019888F8003063
S214016310FEF780FF012000F073F9FEF777FF2B7878
S2140163202BB1019000F076F9002301982B70002321
S2140163303B70FEF76FFF3078A04203D02146FFF78F
S21401634031FF347002B0BDE8F081032AF3D1022890
S214016350F1D100F097F9EEE7981B0020841B00208E
S214016360921B00208C1B0020911B00208D1B0020FF
S21401637010B50446FEF74AFF002C14BF0121FF2189
S214016380064A13780B44DBB21370B3FA83F3BDE805
S2140163901040034A5B091370FEF73CBF9B1B0020AD
S2140163A09A1B002068B5FEF731FF094B06461B789D
S2140163B0012B04D8FEF72EFF0025284668BD054BA5
S2140163C01D6800F049F905443046FEF723FFF4E75F
S2140163D0841B0020A41B002007B5FEF717FF0190C1
S2140163E0FFF70CFF019803B05DF804EBFEF712BF50
S2140163F038B541600446FEF709FF054621460448C4
S214016400FDF7EFF92846BDE83840FEF703BF00BFA9
S214016410941B0020054B1B685843054B00F5742060
S21401642000F23F20B0FBF3F0704700BF9C1B00203A
S21401643040420F0010B5094B1B786BB1084C23780E
S21401644053B100F0E7F80023064A237013700123C6
S214016450054A1370054A137010BD00BF841B002047
S214016460911B0020921B00208F1B0020901B0020F8
S2140164707047000073B5114E04463378834212D03C
S21401648000238DF8043080B102238DF8053001A871
S214016490FEF742FF0A4D402054B1FFF7BBFF2B68C1
S2140164A0181A2860347002B070BD8DF80500EEE74A
S2140164B0FFF7B0FF2B681844F3E700BF5C0C002021
S2140164C0B01B002073B5002401A88DF80440FEF728
S2140164D095FF20464FF40024FFF7CCFF3149324B9D
S2140164E00A6F02F007021A60D1F82031D1F82401B0
S2140164F001F580514C664FF400344C6601F5983135
S2140165008969032A00F0070001F0020141D003F077
S21401651003039C1E63426341022808BF43F0010344
S2140165202248234D037061B31E4A3BB9D2F80031AD
S21401653003F00303591E4B424B410370D2F800315E
S21401654003F00303022B26D0032B27D0012B18D1EF
S214016550FDF7EEF8A8B1174B411EDC680023024692
S21401656008461946C4F30B04134E013404EB8404A5
S214016570E4FB060122F042FEFFF74CFF2B681844AD
S21401658028606420FFF746FF2B681844286002B095
S21401659070BD0123C0E7FDF7EDF8DBE7FDF7DEF898
S2140165A0D8E700BF00800050A81B0020AD1B0020CC
S2140165B0B01B002000C0015040420F0038B50C4B04
S2140165C01B786BB10B4C23787BB90B4B0B4D9A6D3B
S2140165D012F4803F05D0DB6D9B0702D50123AB6229
S2140165E038BDFFF75DFB0123AB6200232370F7E79D
S2140165F0AD1B0020AC1B002000C0005000D0005096
S214016600034B1B780BB1FFF7B5BB0120704700BFEA
S214016610AD1B002008B5FEF78BFE094A0949136F2A
S214016620096823F007030B431367074B1B7813B165
S2140166300122064B9A62BDE80840FDF763B800BF29
S21401664000800050A81B0020AD1B002000E0005079
S2140166504FF4C870FFF7DEBE08B5054B187818B1C1
S214016660FFF764FB00EBD000024B1B68184408BD23
S214016670AD1B0020B01B00200122014B1A70704791
S214016680AD1B00207047000010B500F0B1FA0A4CAF
S2140166900A4B19682368C31A01B10BB9206010BDF3
S2140166A04A699A423ABF9B1A0022D21A4A6128BF07
S2140166B000238968F0E700BFB81B0020CC1B002030
S2140166C0C38870B504460D463BB9FFF76BFE85429D
S2140166D0064602D2FFF780FE35460F4965610B6814
S2140166E0ABB90C60A36011E0AD1A9A6818466561F3
S2140166F02AB113465A69AA42F6D950B11A46134628
S2140167008460A36013B15969491B596170BD0020AB
S214016710F0E70C60F5E700BFCC1B002038B5134D41
S2140167202B685B6993B1124A022014681C4400F07E
S21401673069FA204600F072FA00230E492A680B70A7
S214016740D088800709D501230B7038BD022000F0E0
S21401675059FA022000F096FAEEE79268002AF4D081
S21401676050690344012BEBD9EFE700BFCC1B002097
S214016770B81B0020C01B002070B516469DF81420DB
S214016780C0E903360271049ABDF81830026000228F
S214016790C380826004460D4600F02AFA3044A061A8
S2140167A03DB9E368656113B120462168984796B103
S2140167B03546FEF72BFD0646FFF766FF29462046BF
S2140167C0FFF77EFF054B1B68A34201D1FFF7A6FF2B
S2140167D03046FEF71FFD002070BD00BFCC1B002019
S2140167E000220C490B687BB183420AD183687AB1D7
S2140167F0936083681BB15A6941690A445A61002053
S21401680070471A469B68EEE70028EFD002207047D3
S2140168100B60EEE7CC1B002070B5FEF7FEFC144EB5
S21401682005463478FCB9134B1C60134B1C60134BA4
S2140168301C8000F0ADF9012000F0E4F900F03EFA0A
S2140168400F4B0246186020B92846FEF7ECFC2320C1
S21401685070BD234640F2E7310A4822F0CFFC0A4BCE
S2140168601860012333702846FEF7DDFC0020EFE7B1
S214016870B41B0020CC1B0020B81B0020C21B00202C
S214016880C81B002018FCFFFFBC1B00202DE9F041AF
S2140168900546F8B1FEF7BAFC0F4F0646FFF7F4FEC1
S2140168A02846D7F80080FFF79BFF044628B13046FC
S2140168B0FEF7B0FC2046BDE8F081A8453B6803D151
S2140168C023B1FFF72BFFF2E7002BF0D1022000F0F7
S2140168D0CDF9ECE72224EDE7CC1B002070B586B09D
S2140168E015461E460446059180B1FFF7CFFFBDF859
S2140168F02C30002202939DF828302046CDE9006313
S21401690005992B46FFF738FF06B070BD2220FBE73E
S21401691038B50C46054698B191B100230B70FEF7C9
S2140169207CFC0121074B1B680BB122781AB1FEF7DC
S2140169307AFC002038BDAB4214BF9B682170F3E798
S2140169402220F7E7CC1B0020F0B51F46002387B0B6
S2140169500D46164604468DF81730A0B10DF1170105
S214016960FFF7D6FF9DF817207AB9BDF834302946CF
S21401697002939DF830302046CDE900733346FFF789
S214016980FBFE07B0F0BD2220FBE70320F9E738B590
S214016990FEF743FC054600F02BF904462846FEF7B1
S2140169A042FC204638BD000070B5FEF736FC0646B0
S2140169B000F01EF9084B04461D880120ADB200F018
S2140169C06DF918B100F014F9044601353046FEF7AA
S2140169D02AFC2046294670BDC21B0020014B1868C0
S2140169E0704700BFC81B00200C4B70B51B680D46D6
S2140169F0834211D340F2E73100248C462146084BEE
S214016A004FF47A721E680023E0FB06C1604622F04E
S214016A10F5FB2860204670BD2120FCE7BC1B00204A
S214016A20C81B00200F4B10B51A689AB14FF47A7143
S214016A30531E1342A0FB01010ED1B2FA82F2C2F13B
S214016A401F04531CD243E04001FA03F3184321FA12
S214016A5002F20243104610BD002322F0CFFB02468D
S214016A60F8E700BFC81B0020C2072DE9F34704461C
S214016A700BD53F4A138801339BB21380FFF704FE00
S214016A803C4B1B680BB1FFF749FEA3076DD5FEF71C
S214016A90C4FB002605463746FFF7F6FDB146DFF88C
S214016AA0D480D8F800400CB163698BB10022324B18
S214016AB0012F1A7002D1022E08BF1F70002C44D07D
S214016AC0FFF72CFE284602B0BDE8F047FEF7ABBB49
S214016AD023461A792179914288BF1C469B6813B1D7
S214016AE05A69002AF5D02846FEF79DFB256985B32D
S214016AF000F07EF8A269861AF317B54279EB030314
S214016B0028DA23691344A3610123226982B17BB980
S214016B10A91B0191FEF781FB824601992046FFF7EA
S214016B20CFFDA369226950461344A361FEF77BFBA0
S214016B30E368E688013713B1204621689847FEF7D7
S214016B406CFB0546FFF7A0FDABE7022000F08EF8D0
S214016B50B8E72E46FEF761FB82462046FFF740FE69
S214016B605046FEF760FB0023CFE702B0BDE8F08792
S214016B70C21B0020CC1B0020C41B0020034B5A68FC
S214016B8012B19A6A002AFAD1704700BF0040065037
S214016B9030B5144B85B001AC93E8070084E80700D4
S214016BA001213D20FDF738FE0125002320468DF802
S214016BB004300295FDF74AFC03220B4C04F5005302
S214016BC09A615A61FDF788FCFFF7D8FFE560FFF789
S214016BD0D5FF4FF48022054BC3F880211A6005B01B
S214016BE030BD00BFF0AD03000040065000E100E0FC
S214016BF0014B186A704700BF004006500020FDF7A1
S214016C0065BC000000F001038207034A48BF43F059
S214016C1002039361704700BF00500650F8B5044662
S214016C20FEF7F4FA104F06463D6AFFF7E7FF7A696A
S214016C30920704D4421B052A01D8A8420ED1631B31
S214016C40042B98BF6C1D0020B4F1FF3F2CBF2146DA
S214016C50611EFDF72FFC0220FFF7D4FF3046BDE88A
S214016C60F840FEF7D7BA00BF0040065000F0010317
S214016C708207034A48BF43F002039361704700BF8F
S214016C800060065000F001038207034A48BF43F044
S214016C9002035361704700BF00500650064B01289F
S214016CA05B6904D0022805D1C3F34000704703F0A6
S214016CB00100704700207047004006503D20FDF758
S214016CC0CDBD000010B5FEF7A8FA0446094B5B6976
S214016CD09A07094A03F0010003F0030348BF40F096
S214016CE002005361FFF7C0FE2046BDE81040FEF7E4
S214016CF09ABA00BF004006500060065008B5FCF77F
S214016D00E3F9FCF71BFAFCF726FAFCF739FABDE8BB
S214016D100840FCF73EBA08B5FCF73DFAFCF73CFA2A
S214016D20FCF73BFABDE80840FCF739BA10B5044653
S214016D30FCF7E8FC0C4BA0F57A729A4212D84FF495
S214016D407A73B0FBF3F05C43084BB3FBF0F0B4FB93
S214016D50F0F0022806D9BDE810400323B0FBF3F09B
S214016D6000F006B810BD00BFFFC99A3B40420F00B5
S214016D70013800D0FCE77047FCF718BD08B504F0F1
S214016D80EFF80AF01DFB07F06BF908F06CFA00202B
S214016D9008BD0000024A0349034803F079BD00BF5D
S214016DA0FCAD030048AE030020AE030038B5044630
S214016DB0FEF72CFA0546204622F0F0FB044628464C
S214016DC0FEF728FA204638BD37B504460191FEF78E
S214016DD01DFA01990546204622F0A0FB04462846E6
S214016DE0FEF718FA204603B030BD38B50546FEF763
S214016DF00DFA0446284622F0D9FB2046BDE8384065
S214016E00FEF708BA0A4619B1024B00211B6818475B
S214016E10704700BF600C002000F4E040B0F5805FD2
S214016E2004D0A0F5005358425841704701207047DE
S214016E300E4B0340B3F1607F06D1B1F5885F14BFF6
S214016E406FF0860000207047B3F1707F0BD101F41C
S214016E50E043B3F5005F06D111F4E06F0CBF6FF0AD
S214016E608600002070476FF0860070470000C07FE4
S214016E708A42F8B507460D4600F021819B4822F06C
S214016E80FF01814210D09A4C22F4FF7323F00103D4
S214016E90A34209D0974B994206D0974922F47F73B3
S214016EA023F003038B4223D125F0FF01814210D04A
S214016EB08F4825F4FF7323F00103834209D08D4BDD
S214016EC0994206D08C4925F47F7323F003038B4245
S214016ED00ED115F0FF030BD0884943F000738B42A7
S214016EE006D16A4032F0FF030CBF01200020F8BD36
S214016EF005F0FE43B3F1A06F17D102F0FE43B3F1E4
S214016F00A06F40F0DE8082EA050333F47E1340F082
S214016F10D88015F40040EAD0C5F30540C2F3054217
S214016F2090428CBF00200120E1E7B3F1407F40F0A2
S214016F30B38002F0FE43B3F1407F40F0C28082EAA4
S214016F40050333F47E1640F0BC8039462846FFF729
S214016F506FFF002840F0B580694C12F47C1C04EAEF
S214016F60020438D0B4F1607FC2F3054C7AD165498A
S214016F70D3B243F000738B4278D003F17E410439DB
S214016F80012975D960498B4276D001318B4275D083
S214016F9001318B4274D001318B426BD001318B426F
S214016FA06AD001318B4269D003318B4264D0013102
S214016FB08B4263D001318B4262D001318B4208BFD4
S214016FC0402615F47C1FC5F305435BD1664514BF07
S214016FD0002001208BE7B4F1607F2BD14949D3B261
S214016FE043F000738B426ED003F17E4104390129D0
S214016FF06CD945498B426FD001318B426FD001313C
S2140170008B426FD001318B4263D001318B4263D00A
S21401701001318B4263D003318B425DD001318B420B
S2140170205DD001318B425DD001318B4208BF4FF0FC
S214017030400C9CE7B4F1707FC3D107F4E043B3F58D
S214017040005F05D14FF0010CC7F302230CFA03FCD5
S21401705007F4E043B3F5005FB3D10126C7F302237B
S2140170609E40AEE7B4F1707FABD1F1E71026A8E7FA
S2140170701426A6E74026A4E71C26A2E72026A0E7BA
S21401708030269EE712F47C1F01D1B34217D02A04A2
S2140170907FF52DAF634544E7B3F1106F11D125F0AD
S2140170A01F6323F4702363B902F0FE43B3F1106F3C
S2140170B007D11648104040F01060A84287E701202B
S2140170C015E7002013E74FF0100C50E74FF0140CB3
S2140170D04DE74FF0400C4AE74FF01C0C47E74FF0E6
S2140170E0200C44E74FF0300C41E700BF00130006C8
S2140170F0000200060009000600040006FF00000268
S2140171000000C07F03000002080000020000FFF636
S2140171107FB500F0FE46B6F1106F0D4603D06FF056
S214017120850004B070BD20F01F6424F47024002C88
S214017130F5D10A9C0294099C0194089C009401F0E4
S21401714001F810F1860FECD16B681B0AE9D1E6E76E
S2140171502DE9F843884617461C4601F0C9F805464E
S214017160002859D1D8F80060B6F8009009F4E04339
S214017170B3F5804FF36808BF27F0010737EA03032A
S21401718042D1002C48D02F4A24F0FF03934211D05D
S2140171902D4924F4FF7222F001028A420AD02B4ABA
S2140171A0934207D024F47F7222F0030201F50071A6
S2140171B08A4234D114F0FF0231D022498B4211D0D9
S2140171C0214824F4FF7121F0010181420AD01F49B0
S2140171D08B4207D024F47F7323F00303A1F5A0614B
S2140171E08B4204D142F00073194A93421ED02246C4
S2140171F048463169FFF73CFE074668B922464846CD
S2140172007169FFF735FED0B96FF08405002330466B
S214017210C8F8003001F0BAF82846BDE8F88304F053
S214017220FE43B3F1407F04D12304E0D56FF0860519
S214017230ECE7B3F1A06FF7D0054B9C42D6E73D468D
S214017240EAE700BF00130006000200060009000678
S214017250FF00000238B5037904460D4633B9A3682A
S21401726020462B6001F092F838B938BDD0E90812F3
S21401727001F050F90028F2D0F7E700232B60F4E77D
S21401728000F0FE43B3F1407F70B505460E4640F070
S2140172909980FFF7CDFD002840F0968015F47C1FFD
S2140172A005D0C5F30543032B13700DD86BE04C4B8B
S2140172B02B40B3F1607F69D14A49EBB243F00073CA
S2140172C08B4231D110231370454C2C40B4F1607FB2
S2140172D06AD14449EAB242F000728A4275D002F19C
S2140172E07E410439012972D93F498A4271D0013160
S2140172F08A4270D001318A426FD001318A4211D060
S21401730001318A4265D001318A4264D003318A4212
S2140173105FD001318A425ED001318A425DD00131AF
S2140173208A424FD140214BE003F17E4104390129C5
S21401733001D81423C7E72C498B4201D11C23C2E78D
S2140173402A498B4201D12023BDE729498B4201D12D
S2140173503023B8E727498B4201D14023B3E72649BA
S2140173608B42EBD001318B42EDD003318B42E5D01D
S21401737001318B42E7D001318B42E9D001318B429A
S214017380EBD0002313706FF085001DE0B3F1707F22
S214017390F7D101F4E043B3F5005FF2D10123C1F365
S2140173A002218B40DBB27EE7B4F1707F0AD106F48E
S2140173B0E042B2F5005F05D10121C6F302229140F9
S2140173C08B4201D96FF0860070BD1021F8E71421B9
S2140173D0F6E71C21F4E72021F2E73021F0E700BFB1
S2140173E00000C07F0300000208000002090000023E
S2140173F00A0000020B0000020C0000022DE9F04713
S214017400174624220D460021044692B00DEB0200D9
S2140174109A46DDE91A868DF81F10DDF8709022F085
S21401742004F91D9B2046002B18BF4FF480622B46A3
S21401743008BF4FF4006208A9FFF78AFE044620BB86
S214017440DDF820C009ACBCE80F000FC49CE80700BB
S21401745084E807002846BDF824100DF11F02FFF747
S2140174600FFF044688B99DF81F30B34224D8CDE9F2
S2140174700339CDE901A8089900972B46D1E90812EE
S21401748009A800F00CFE044620B10023C9F80060EC
S2140174908DF81F309DF81F00B04204D2321A212108
S2140174A0404422F0C2F8089800F070FF002C18BF84
S2140174B0204612B0BDE8F0876FF08904E5E70023A7
S2140174C02DE9F341D0E9016804460F4630461146DE
S2140174D0136000F065FF054688B9304600F062FF8C
S2140174E0054660B9F6B276B9B8F1000F05D1E36882
S2140174F023F47F4323F0030363B16FF08605284628
S21401750002B0BDE8F0810146A06800F044FE002804
S214017510EDD1F2E74FF6F87362889A421CD8238BB6
S21401752023F00103002BE8D1394601A800F09EFEA6
S21401753005460028E3D10FCC3F683E460FC694E8C7
S21401754007003B7986E807000BB9019BBB603B8BC4
S21401755023F001033B83D2E76FF08505CFE7B0F553
S214017560105F0DD009D8B0F5885F10D0B0F5905FE8
S2140175700DD041F20103984209D06FF085007047A3
S21401758021F04003802B02D0B1F5807F06D111F0A7
S214017590070F14BF6FF08600002070476FF086005B
S2140175A0704770B5046A05460E463CB90120FFF7E0
S2140175B00BFC286228B120466E6270BD6FF08A000F
S2140175C0FBE76FF08C00F8E773B50E4611460546EB
S2140175D00192FFF7E6FF044620B93146019A286A70
S2140175E021F0FCFF204602B070BD2DE9F041089D58
S2140175F088461F46048802B32046FFF70DFCE0B11B
S2140176002B680BB9D3002B6020462968FFF7A7FF2C
S214017610044678B9CE1DB2EBD60F11D1069B9A421D
S21401762011D84146384621F0D9FF2B68079A07330F
S214017630DB0813602046BDE8F0816FF08504F9E7AA
S2140176406FF08604F6E76FF08904F3E710B5044699
S214017650006A10B1616AFFF7D5FB206AFFF7C5FB28
S2140176600020C4E9080010BD38B50446FFF7EEFF58
S214017670E3692822012B0CBF05466FF09605002111
S214017680204621F0D2FF284638BD13B5044660B126
S21401769001A900F02DFE044638B90198C369012BF3
S2140176A006D900F073FE6FF08304204602B010BDC9
S2140176B00379FF2B0BD01BB1806800F085FE0446D2
S2140176C00198FFF7D1FF002818BF0446EDE76FF0D9
S2140176D08404F5E773B5044608460E4600F0D6FB6B
S2140176E0002320461A4601A9FFF732FD70B9344639
S2140176F0019D0FCD0FC495E8070084E80700338B82
S214017700019803F00103338300F040FE02B070BD20
S21401771070B5144602881D461046049EFFF77CFB92
S21401772050B944F2010322F44050984204D002F4C6
S2140177304F42B2F5824F0ED1B4420FD822462846A8
S21401774021F04CFF0021321B281921F06EFF00208A
S214017750059B1C6070BD6FF08500FBE76FF089002C
S214017760F8E72DE9F04188461F4616468CB022B34D
S214017770002301223B6002A9FFF7EAFCD0B9DDF83D
S21401778008C003AC6546CDE90A000FCD0FC495E8E5
S214017790070084E80700CDE900674346DCE90812E4
S2140177A003A800F03EFC0446029800F0EFFD002C12
S2140177B018BF20460CB0BDE8F0816FF08900F9E7EC
S2140177C070B51446028844F2010022F440568642FF
S2140177D0049D04D002F44F40B0F5824F13D102F459
S2140177E0E042B2F5804F0ED1AC420FD81846224681
S2140177F021F0F4FE00212A1B204421F016FF002070
S214017800059B1C6070BD6FF08500FBE76FF089007B
S214017810F8E72DE9F0438946984617468DB052B3EE
S214017820002302A91A46C8F80030FFF791FCE0B918
S214017830029E33885B041BD5354603ACCDE90A00AE
S2140178400FCD0FC495E8070084E80700CDE900785E
S2140178504B46D6E9081203A800F0EEFB0446029850
S21401786000F094FD002C18BF20460DB0BDE8F08353
S2140178706FF08604F3E76FF08900F6E72DE9F04133
S2140178801F46002388B0054688461646CDE90433D0
S21401789007923B60002A5FD0B2F1005F5FD205AA73
S2140178A004A9FFF70CFE0446A0B9049B1B6ABBB1F2
S2140178B0049B41465A882846069206AA029203F17C
S2140178C0240201925A6A00921B6A324600F082FB39
