:020000021000EC
:10200000C00A0020AD320100A9320100A93201004E
:10201000AD570100A9320100A9320100A932010027
:10202000A9320100A9320100A9320100A932010040
:10203000A93201002CA70300C92C0100A93201001C
:10204000A9320100A9320100A9320100A932010020
:10205000A9320100A9320100A9320100A932010010
:10206000A9320100A9320100A9320100A932010000
:10207000A9320100A9320100A9320100A9320100F0
:10208000A9320100A9320100E9620100A932010070
:10209000A93201007D360100A9320100A9320100F8
:1020A000A9320100A13701007D370100A9320100EA
:1020B000A932010005790300A9320100F182030071
:1020C000A9820300A5820300E17A0300ED820300E8
:1020D000AD820300C5820300B18203005183030077
:1020E000755B03003D5D030031830300A9320100ED
:1020F000ED530100A9320100A9320100A93201000B
:10210000A9320100A9320100A9320100A93201005F
:10211000A9320100A9320100A9320100A93201004F
:10212000A9320100A9320100A9320100A93201003F
:10213000A9320100A9320100A9320100A93201002F
:1021400010B5054C237833B9044B13B1044800E0B3
:1021500000BF0123237010BD7C0F00200000000091
:10216000F8F1030008B5034B1BB10349034800E035
:1021700000BF08BD00000000800F0020F8F1030040
:10218000A3F5803A704700BF174B002B08BF134BD5
:102190009D46FFF7F5FF00218B460F461348144A72
:1021A000121A26F0BCFF0E4B002B00D098470D4BA7
:1021B000002B00D098470020002104000D000D489E
:1021C000002802D00C4800E000BF26F03DFF2000B0
:1021D000290000F093FC26F023FF00BF0000080058
:1021E0000000000000000000C00A00207C0F00205A
:1021F000682B0020000000000000000010B504461D
:10220000642026F045FF846010BD0000F7B50B2167
:102210003D2002F0F7F901213D2001F099FE03F085
:102220000DFE80B9032000F0B5FE60B11C4C1D49C5
:10223000206803F022F900F0CDFE00F0FFFE1A49FD
:10224000206803F01AF9012400254AF23453174E8E
:10225000174FC6F800332246C7F8244423462146C8
:1022600028460194009502F0BFFC02222346114645
:102270002846CDE9005402F0B7FC0E4BC7F82044C5
:10228000C3F824440C4B2020C6F8003326F000FF8E
:102290000A4B196800F0FAFB094B186003B0F0BD57
:1022A0002810002058A203005DA2030000C00350C4
:1022B00000E0035000D00350CB5AFFFFE80B002092
:1022C000980F0020014B186800F0DBB9980F002030
:1022D00070B50368A04A23F47F4323F007039342B9
:1022E00088B005D09D4A934200F04E8108B070BD81
:1022F0000DF10F0104A818F0CBFD044630B3984D42
:102300009849286803F0B9F89749286803F0B5F8A8
:1023100000F060FE00F092FE944B954A00939549C0
:102320006F23286803F0A9F82346934A9349286845
:1023300003F0A3F8204600F0A9FE9149286803F0B5
:102340009CF88849286803F098F8FEE79DF8153056
:1023500001468DF818309DF8143008228DF8193098
:102360009DF8133012208DF81A30FF238DF81B30A2
:10237000FE238DF81C309DF812308DF81D309DF82D
:1023800011308DF81E309DF810308DF81F3006ABDF
:1023900018F03AFD054630B3714C7249206803F0DD
:1023A0006CF87149206803F068F800F013FE00F043
:1023B00045FE6E4B6E4A00936E497F23206803F002
:1023C0005CF82B466C4A6D49206803F056F82846A5
:1023D00000F05CFE6A49206803F04FF8614920680C
:1023E00003F04BF8FEE7674E304618F099FC0546BF
:1023F00030B35B4C5B49206803F03FF85A492068D2
:1024000003F03BF800F0E6FD00F018FE574B584A89
:10241000009358498323206803F02FF82B46564A2F
:102420005649206803F029F8284600F02FFE544949
:10243000206803F022F84B49206803F01EF8FEE7FD
:102440000221307818F0A6FC044630B3444D4549CB
:10245000286803F012F84449286803F00EF800F0E9
:10246000B9FD00F0EBFD414B414A009341498823FF
:10247000286803F002F823463F4A4049286802F0E2
:10248000FCFF204600F002FE3D49286802F0F5FFFF
:102490003449286802F0F1FFFEE7A02203460090CD
:1024A0001146307818F054FC054630B32C4C2D49B9
:1024B000206802F0E2FF2C49206802F0DEFF00F005
:1024C00089FD00F0BBFD294B294A0093294991233E
:1024D000206802F0D2FF2B46274A2849206802F0E4
:1024E000CCFF284600F0D2FD2549206802F0C5FF48
:1024F0001C49206802F0C1FFFEE70221307818F085
:102500005DFC054600283FF4F1AE154C15492068E6
:1025100002F0B3FF1449206802F0AFFF00F05AFD4B
:1025200000F08CFD114B124A00931249952320684C
:1025300002F0A3FF2B46104A1049206802F09DFFCD
:10254000284600F0A3FD0E49206802F096FF0549D9
:10255000206802F092FFFEE7A0000100A000060143
:102560002810002078A303006FA20300B2A203008A
:1025700074A203007DA2030089A203008CA20300C1
:10258000A1A20300C00A00202E4C0221207818F0DE
:1025900001FC054630B32C4C2C49206802F06DFF3D
:1025A0002B49206802F069FF00F014FD00F046FDA1
:1025B000284B294A00932949A323206802F05DFF94
:1025C0002B46274A2749206802F057FF284600F08B
:1025D0005DFD2549206802F050FF1C49206802F08B
:1025E0004CFFFEE70221207818F0E8FB05460028A2
:1025F0003FF47CAE144C1549206802F03EFF1449AC
:10260000206802F03AFF00F0E5FC00F017FD114BE6
:10261000114A00931149A823206802F02EFF2B468F
:102620000F4A1049206802F028FF284600F02EFDCE
:102630000D49206802F021FF0449206802F01DFFC7
:10264000FEE700BFC00A00202810002078A3030086
:102650006FA20300B2A2030074A203007DA20300D4
:1026600089A203008CA20300A1A2030070B5064654
:102670000C200D46144626F00BFDC0E90065846071
:1026800070BD70B5044645682B68002B00DA70BD3C
:1026900022689A420CD120466B68984740B1AB68DB
:1026A0002360EB68002BF2D02046BDE8704018474D
:1026B0001035E9E78368187E00F0010070478368F1
:1026C000187EC0F3400070478368D87E031F5842CD
:1026D000584170478368587E7047836800209A7E0F
:1026E0006FF300029A76DA7E0132DA7670478368F9
:1026F000987E10F002001EBF187FB0FA80F04009EB
:1027000070478368987E10F0020003D0187F00386D
:1027100018BF0120704783689A7E52075DBF187FFB
:10272000B0FA80F04009002070478368987E10F06E
:1027300004001EBF187FB0FA80F04009704783681C
:10274000187F704783681A8B02F0FD021A839A7E05
:102750006FF300029A76DA7E022A02D85869436A39
:102760001847032A02BF0122014B1A61704700BFBC
:1027700000E0035083689A7E6FF341029A767047B7
:10278000002310B5846860696376036E9847E37E22
:10279000043324F8130010BD8268937E23F00603EF
:1027A00043F004039376704783689A7E6FF3820246
:1027B0009A7670470B7E43F001030B76704700005A
:1027C000022801BF0122024B1B681A70704700BF2C
:1027D000A00F002038B58468237E60686FF3000383
:1027E000237603F065FB80B9032000F0D3FB60B1D2
:1027F0001E4D1F49286802F040FE00F0EBFB00F080
:102800001DFC1C49286802F038FE01221A4B606941
:102810001A61036A9847A8B9032000F0BBFB60B1B6
:10282000124D1349286802F028FE00F0D3FB00F097
:1028300005FC1249286802F020FE237E43F00203C3
:10284000237638BD032000F0A5FB0028F9D0074C03
:102850000749206802F011FE00F0BCFB00F0EEFB1F
:1028600020680749BDE8384002F007BE2810002064
:1028700058A20300C1A2030000D00350D9A2030054
:10288000F8A20300012806D1034B1A681378B3FAA3
:1028900083F35B09137070479C0F0020836813B5A6
:1028A0009A7E05216FF382029A760022CDE90021FB
:1028B0000A210D4A586803F059FB98B9032000F02B
:1028C00069FB78B1094C0A49206802F0D6FD00F096
:1028D00081FB00F0B3FB0749206802B0BDE810405F
:1028E00002F0CBBD02B010BDB527010028100020BA
:1028F00058A2030019A30300002330B5846885B0F3
:102900002089E37625F028FF00225B4B25F08EFF1F
:1029100000224FF07E5325F089FF55A3D3E9002311
:1029200025F084FF4FF04042544B26F0A9F826F0E2
:102930008FF90090608925F00FFF00224E4B25F0A3
:1029400075FF00224FF07E5325F070FF48A3D3E9B6
:10295000002325F06BFF4FF04042484B26F090F8E3
:1029600026F076F90190A08925F0F6FE0022424B70
:1029700025F05CFF00224FF07E5325F057FF3CA36B
:10298000D3E9002325F052FF3C4B4FF0404226F0A4
:1029900077F826F05DF9E38902909B1207EE903AF2
:1029A000FAEEED7A10216846CDED037A00F0BAF820
:1029B00000285BD1032000F0EDFA88B1304D314999
:1029C000286802F05AFD00F005FB00F037FB009884
:1029D00025F0D4FE02460B4628682B4902F04DFD37
:1029E000032000F0D7FA88B1254D2649286802F067
:1029F00044FD00F0EFFA00F021FB019825F0BEFE47
:102A000002460B462868204902F037FD032000F0FB
:102A1000C1FA88B11A4D1B49286802F02EFD00F05A
:102A2000D9FA00F00BFB029825F0A8FE02460B46EF
:102A30002868154902F021FD032000F0ABFA88B1A7
:102A40000F4D1049286802F018FD00F0C3FA00F09D
:102A5000F5FA039825F092FE02460B4628680A49CB
:102A600002F00BFDA37E43F00203A37605B030BD58
:102A70000000000080842E4100000440FFFF5F4101
:102A80002810002058A2030031A3030038B50446E3
:102A90000025A269134B2161134043F00103A36198
:102AA0000846C4E902552577FFF7A8FB60611C20A2
:102AB00026F0EEFA0C496060012000F04DFE0B4B51
:102AC00004F11C0202200A491A6000F045FE094B7D
:102AD00004F119021A6028462246BDE8384006492A
:102AE000FFF7C4BDFC00F800852801009C0F002002
:102AF000C1270100A00F0020C40A002008B503F080
:102B00000FFCFFF783FB03F018FCFFF7DBFBFAE792
:102B10000144013A814200D1704711F8013D02F8A9
:102B2000013FF7E72DE9F0478C08E31D23F0070389
:102B300000AFADEB030D6A462146FFF7E9FF0646FD
:102B40006B462246002115206D4618F05DF9A0B9AC
:102B5000032000F01FFA80B1DFF864815649D8F8ED
:102B6000000002F08AFC00F035FA00F067FA3278D3
:102B70005249D8F8000002F080FC2A462146152070
:102B800018F070F928B94E4B32784E49186802F0A7
:102B900074FC06EB04082A4621464046FFF7B8FFBE
:102BA0002B4622460021182018F02EF9A0B9032048
:102BB00000F0F0F980B1DFF808913F49D9F8000042
:102BC00002F05BFC00F006FA00F038FA325D3B4997
:102BD000D9F8000002F051FC2A462146182018F0CE
:102BE00041F928B9364B325D3649186802F045FC88
:102BF00008EB04092A4621464846FFF789FF2B4681
:102C0000224600211B2018F0FFF8A8B9032000F08D
:102C1000C1F988B1DFF8A8A02749DAF8000002F06E
:102C20002CFC00F0D7F900F009FA16F8142023491B
:102C3000DAF8000002F021FC2A4621461B2018F099
:102C400011F930B91E4B16F814201E49186802F00D
:102C500014FC2A46214609EB0400FFF759FF2B46D6
:102C6000224600211E2018F0CFF890B9032000F072
:102C700091F970B1124E1049306802F0FEFB00F07D
:102C8000A9F900F0DBF918F814200C49306802F0BB
:102C9000F4FB2A4621461E2018F0E4F8054630B918
:102CA000074B18F814200749186802F0E6FB28467D
:102CB000BD46BDE8F08700BF58A2030046A303004D
:102CC000281000205FA3030007F0DABA03F07ABBF4
:102CD00010B5044600F0CEF82046FFF7F9FA10BD13
:102CE0000120704700B5C3B007F014FA07F03DFAB1
:102CF00048B1FFF7F5FF30B101A818F00AF810B994
:102D000001A8FFF7E5FF43B05DF804FB00F0E0B970
:102D100008B50321802001F075FC03214FF4806089
:102D200001F070FC03214FF4906001F06BFC08216E
:102D30004FF4C06001F066FC08214FF4F06001F030
:102D400061FC08213E2001F05DFC08212D2001F0EE
:102D500059FC002008BD10B501213A2001F0F8F817
:102D6000002304221946184601F096FF0023012291
:102D70001846114601F090FFBDE8104000230122E3
:102D80000221184601F088BF08B5184B1B68C3F331
:102D90000743012B0ED1164B04205A6E4FF48023AB
:102DA0001449520358BF144A4B6601F5104108629A
:102DB00058BF536602F03AFA00F09EF902F0C2F9E9
:102DC00002F052FA02F0E0F902F014FA02F018FAF6
:102DD000FFF79EFF02F0C6F900F083F900F026FB32
:102DE00000F0F0FCBDE8084002F046BD0080E00FB6
:102DF000008000500090005000A0005008B500F086
:102E00005BFBFFF7A8FF00F08FFC00F029F8BDE89E
:102E1000084000F0A5B908B500F058F903F00EF825
:102E200002F024FA02F092FB05F044FE02F00CFCE2
:102E300004F022FB06F044F8BDE8084002F046BB6F
:102E400008B502F057F902F065F9BDE80840FFF750
:102E50003DBF00F0F5B870477047FFF743BF7047BC
:102E6000024B0349186800F04DBD00BFE80B00207D
:102E7000EC0B0020036837B523F47F433A4A23F074
:102E800007039342044664D002F18272934268D1F0
:102E9000B0F80510222964D10122344B00791A7050
:102EA000002217F0C7FF054630B3314C3149206886
:102EB00002F0E3FA3049206802F0DFFA00F08AF805
:102EC00000F0BCF82D4B2E4A00932E493F2320687A
:102ED00002F0D3FA2B462C4A2C49206802F0CDFA96
:102EE000284600F0D3F82A49206802F0C6FA2149A2
:102EF000206802F0C2FAFEE7207917F073FF05465A
:102F000000282ED01A4C1B49206802F0B6FA1A4944
:102F1000206802F0B2FA00F05DF800F08FF8174B6D
:102F2000174A009317494323206802F0A6FA2B465C
:102F3000154A1649206802F0A0FA284600F0A6F8C3
:102F40001349206802F099FA0A49206802F095FABC
:102F5000FEE7064B1B7823B103B0BDE8304003F019
:102F600023BA03B030BD00BFA0000601241000202A
:102F70002810002078A303006FA20300D4A603004A
:102F800066A603007DA2030089A203008CA20300B1
:102F9000A1A203000B4B02461B788BB10A4B1B7896
:102FA000834234BF00200120084B1B783BB1084B03
:102FB0001B7843FA02F212F0010F08BF002070479D
:102FC0000120F1E70C0C00200D0C00202C1000203B
:102FD0000E0C002073B502F0F9FF4FF47A740E4620
:102FE000054603F00DF80246A5FB0401002304FB8F
:102FF000061125F07DFE4EF66023B0FBF4F23C2175
:10300000B0FBF3F304FB12040194B2FBF1F4B3FB45
:10301000F1F501FB14220092054A01FB1533B0FBC8
:10302000F2F204480449006802F027FA02B070BDC9
:1030300080EE360028100020F4A603007047000040
:10304000012208B5074B1A700022074B1A700322A1
:10305000064B1A701F22064B1A7002F0D5F9054B69
:10306000186008BD0C0C00202C1000200D0C002056
:103070000E0C002028100020024B0349186802F0B3
:10308000FCB900BF2810002007A7030070B50C4C46
:103090000C490646206802F0F0F902F0B5F9054641
:1030A000206802F0A5F93046FFF7E6FF284602F057
:1030B0009FF920680449BDE8704002F0DEB900BF06
:1030C0002810002009A703000BA703000F2070475A
:1030D000042208B511460023012001F0DDFD002087
:1030E00008BD08B501213A2000F032FFFFF70EFEBF
:1030F000BDE8084000F046B801213A2000F028BFA2
:1031000070B50024064625465B21082000F030FA01
:10311000102C04F1010300D170BD012B14D0022B3F
:1031200014D0032B14D0042B14D0052B04D16A1C0B
:103130002946D5B21C46E8E70D3C012C0CD9102BD2
:103140000CD0B21FD15CF5E70C21F3E7D121F1E7F8
:103150008021EFE70021EDE75A21EBE75D21E9E768
:1031600007B5082000F0F8F902238DF80030044B71
:1031700068460193FFF7C4FF03B05DF804FB00BF8E
:10318000006A18102DE9F047434D88B001AC0FCD0F
:103190000FC495E80700012584E8070001213A20C3
:1031A00000F0D6FEDFF8FC800121282000F0D0FEE0
:1031B0003A4B404601A903938DF8125001F052FE9C
:1031C0002B4604220021022001F066FD2A462946F2
:1031D0000023022001F060FD02212B460846042254
:1031E00001F05AFD04222B461146002001F054FD47
:1031F0004FF002132A4C0226C4F83036A3F5803370
:10320000C4F82C361C231027C4F8346604F5005A81
:10321000C4F81C364FF4487003F09AF804F580594E
:103220001420CAF8107003F093F82320C9F8107026
:1032300003F08EF8B9214046CAF8107001F072FE12
:10324000002330461A461946C9F8107001F024FDD3
:10325000002329461A46304601F01EFD2B46314612
:103260003046002201F018FD00222B4610460421B2
:1032700001F012FD404601F0C7FD00212820C4F8EE
:103280003016C4F82C16C4F83416C4F81C1600F016
:103290005FFE08B0BDE8F08710A7030000127A00B7
:1032A00000C0035000C00550FEE7000008B500F064
:1032B0002DF8124B12498B4212D30020114B1249A8
:1032C0008B4218D3FEF760FF186850F82240586808
:1032D00040F82240013298688242F5D30C33EAE785
:1032E0000022F8E71C6844F8220001325C68A24220
:1032F000F8D30833E4E70022F8E700BF00F2030048
:103300000CF203000CF203000CF203004FF4004136
:103310004FF0FF30124B134A10B59A60D3F8882053
:1033200042F47002C3F888200F4A916601F1884187
:1033300001F5005210664FF6DF7050660220C3F8A8
:10334000D000BFF34F8FBFF36F8F08244FF440338B
:103350000648C0F88041D36004600B6110BD00BF17
:1033600000ED00E0002001000090005000E100E0CE
:10337000014B1868704700BF140C0020084B1B6FEE
:1033800003F00703022B04D0032B05D0012B05D03B
:10339000FEE7044B18687047034BFBE70348704790
:1033A00000800050140C0020180C0020002D31016A
:1033B00008B5FFF7E3FF054B1B6FC3F3033301337E
:1033C000B0FBF3F0024B186008BD00BF0080005056
:1033D000100C00200048704700B4C404014B18686A
:1033E000704700BF180C0020054B1860054B1B6F81
:1033F00003F00703032B01D1FFF7DABF704700BFCB
:10340000180C0020008000500020704700487047D2
:10341000002D31014FF4004070474FF47A7070472F
:10342000014B1868704700BF1C0C00200020836A05
:1034300010B5B3F5903F0AD2064C227812F0FD0F7A
:1034400004D1DB69984708B90123237010BD4FF4FC
:103450008170FBE72D1000204FF00053074A1A60DF
:10346000BFF34F8F0649074BCA6802F4E06213436B
:10347000CB60BFF34F8F00BFFDE700BF02020FF02C
:1034800000ED00E00400FA050023036070470368C4
:103490000B6001607047000005490A681318054871
:1034A00083428CBF4FF0FF320B601046704700BF65
:1034B000200C00200080002008B501213A2000F0F7
:1034C00047FD032101230422002001F0E5FB002039
:1034D00001F089FB0122194B4FF46070C3F84424BA
:1034E00000F058FD164B00F5D520D3F8F02000F27F
:1034F000FC4042F00102C3F8F020D3F8FC2042F077
:103500008072C3F8FC200F4AA3F55D431A600E4B8E
:103510000222B0FBF3F00D4B01381861C3F8F02024
:103520004FF48072C3F804234FF06043084A002030
:10353000C3F8B02F074AC3F8802E08BD00D003504F
:1035400000ED00E0FF030040F8590D00000004E02A
:1035500055CEACC5090001004FF060420123D2F8FE
:10356000001E03FA00F00843C2F8000E0020704766
:103570004FF06043D3F8802E30B5D20715D5012423
:103580000B4D8440D5F8FC2042F08072C5F8FC2039
:10359000D3F8002E2243C3F8002E53F82020002A2F
:1035A000F0D003F82010002030BD1120FCE700BF50
:1035B00000ED00E038B5124B05461B78DBB1E0B1F9
:1035C00001F0B5F90F4A00231146147B54B92B6062
:1035D00001251A0101EB03131D738C5001F0ADF9A5
:1035E000204638BD0133082B02F11002EDD101F065
:1035F000A4F90548F5E70548F3E70548F1E700BFFA
:10360000B011002030100020048000F0028000F093
:10361000018000F0154B13B51868002301908DF858
:10362000043001F084F9124B1C7824B101F085F9C3
:10363000104802B010BD01221A7001F07EF90E4B45
:1036400001A81C731C7783F82C4083F83C4083F856
:103650004C4083F85C4083F86C4083F87C4008233E
:103660008DF8073001F05AFB2046E2E77CA7030003
:10367000B0110020038000F0301000202DE9F84345
:10368000174B1F6D5B6D1F4000D5FEE7012600251F
:10369000144CDFF85480DFF85490374217D0236879
:1036A000C8F850609BB1A168284601316268A160EA
:1036B0009847637B012B0AD148B909EB45131A7B64
:1036C00060F341021A731A7F60F341021A770135E1
:1036D000082D4FEA460604F11004DED1BDE8F88358
:1036E000000004503010002000200450B0100020D2
:1036F00070B5044601250B4E04B970BD94FAA4F0D0
:10370000B0FA80F005FA00F306EB001224EA030495
:103710005368002BF0D0117B11B191689847EBE70B
:103720009847E9E7B411002008B5192001F008F91D
:1037300028B14FF00072074BC3F880211A601A209D
:1037400001F0FEF828B14FF08062024BC3F88021EF
:103750001A6008BD00E100E038B505460C4601F0EE
:10376000E6F80022044B03EB05135C601A73BDE816
:10377000384001F0E2B800BFB4110020074BD3F885
:103780002404D3F8202403F50053104000F05530F2
:1037900020F05020C3F82004FFF7AABF00C0035058
:1037A000074BD3F82404D3F8202403F5005310402A
:1037B00000F0AA3020F0A020C3F82004FFF798BF43
:1037C00000C00350024B1968024B18681CF0FABF86
:1037D000280C0020240C00207047000037B5920010
:1037E00004460D46019226F027FD431C0BD060B91C
:1037F00029462046019A25F05BFC0028044808BFB2
:10380000002003B030BD0348FBE70348F9E700BFE1
:1038100010E000F021E000F024E000F013B50446D1
:1038200001A801F0CFFA9DF80630012223804FF461
:10383000807300206380054B9B680A3303F01F03ED
:1038400002FA03F3636002B010BD00BF0080E00F16
:1038500001F0A6BA08B501F093FA002008BD10B532
:10386000044644EA010313F00303084609D19342D6
:1038700001D1002010BD54F8231040F8231001336B
:10388000F5E72146920025F023FCF2E710B5044647
:1038900026F0DAFC431C15D0B0B90C4B20469B68CF
:1038A0000A3303F01F020123934023F00303234450
:1038B000984201D1002010BD50F8042B0132F7D0FE
:1038C0000348F8E70348F6E70348F4E70080E00F11
:1038D0000EE000F021E000F024E000F008B501F077
:1038E0001FF8014B186008BD481A0020014B1868EA
:1038F00001F01AB8481A00200A460139014401F0C3
:10390000FFBE00002DE9F04104468B4F8AB003AEA4
:103910000D460FCF0FC697E8070086E80700002C7A
:1039200000F008811DB985480AB0BDE8F081802209
:103930000021204625F0F3FB2B68814A934240F09A
:10394000B180282222654FF480224FF000087D4F7D
:10395000C4E90B7226462F4646F8043B0FCF0FC62C
:1039600097E80F0086E80F006B7E012B08BF8DF8EB
:103970001A30AB7E33B1012B40F0A2804FF40073BC
:10398000ADF81C302B7E0121012B03BF00238DF8E5
:1039900019304FF47A73EB683A20059300F0D8FAA7
:1039A0000121206D00F0D4FA2B691A1F0C2ABAD815
:1039B000033B286803A98DF8183001F053FAAB696E
:1039C00023F47F0323F47F4323B92268936843F4ED
:1039D000803393602B7A2879697940EA03406B7AC7
:1039E000AA7941EA0341AB7AEE7E42EA0342564BA2
:1039F0004FEA48184344002E6DD11D26C3F81C66BB
:103A0000C3F83406C3F82C16C3F83026E97AEA79ED
:103A100042EA0142C3F82026E37BE27A84F845308B
:103A2000237F207A677AA57A217B94F80D80A67B84
:103A300084F84420002B58D10422019301F02CF982
:103A4000019B01224146384601F026F9A27F31460A
:103A5000012A8CBF0123019B0422284601F01CF996
:103A6000E37F3BB90123042294F8451094F8440005
:103A700001F012F900F05BFF344B1A78002A4ED1A6
:103A800001221A7000F059FF02F0D8F9FFF7C2FDC9
:103A9000002104F12400FFF78DFD0146002841D0EC
:103AA0002B4841E72B4A93427FF43DAF2922226500
:103AB0004FF4A02228484FF00108C4E90B0249E75F
:103AC000022B02D14FF480735AE7032B7FF42BAF04
:103AD0004FF4407354E71C25C3F81C56C3F8340652
:103AE000C3F82C16C3F8302696E70023012201F014
:103AF000D3F8002304224146384601F0CDF8A37FD5
:103B00000222012B94BF002301233146284601F0F5
:103B1000C3F8E37F002BADD101230222A4E700F01C
:103B20000CFFB3E704F12800FFF744FD00283FF441
:103B3000FBAEB5E70948F7E6A4A70300022000F0B2
:103B400000C005500200040000C00350FC1A002011
:103B5000092000F00000065002000500012000F0DE
:103B6000034B5A6812B19A6A002AFAD1704700BF13
:103B700000400650024A936A0342FCD1704700BFDE
:103B80000040065038B543680146B3FA83F3C3F1E9
:103B90001F04134B5B680BB1FFF7E2FF0125114BCC
:103BA00020205D60FFF7E6FF0B7A0D48002B14BF65
:103BB000022200224B7843EA0413134383604B7ABA
:103BC000002B14BF022200228B7A13434362064B60
:103BD0005D600B7813B1FFF7C3FFC56038BD00BF50
:103BE00000400650006006500050065008B51020F6
:103BF000FFF7C0FF024B1963BDE80840FFF7BABFEB
:103C000000400650014B186B704700BF0040065043
:103C100008B5FFF7A5FF02230449CB6000230B6220
:103C2000FFF79EFF0123CB6008BD00BF0040065098
:103C3000044BD3F88420D206FBD4D3F88400C0F31D
:103C4000811070470040005038B5104B0546D3F83E
:103C500020310C4603F00303022B0BD0032B0DD0B5
:103C6000012B0FD1FFF784FB052305B1286004B1B8
:103C7000236038BDFFF7B2FB0323F6E7FFF7C6FB6F
:103C80000223F2E700231846EFE700BF0080005050
:103C900073B50D4600210E4B0191D3F880410646C5
:103CA00004F00304012C09D0022C0CD00C460EB1F8
:103CB000019B336005B12C6002B070BD01A8FFF715
:103CC000C3FF0F24F3E7FFF7A1FB0190EFE700BF6D
:103CD0000080005038B5174B0546D3F824310C4608
:103CE00003F00703013B052B20D8DFE803F0030FA7
:103CF000171B0B13FFF73CFB052305B1286004B12C
:103D0000236038BDFFF734FB0623F6E7FFF766FBB9
:103D10000323F2E7FFF762FB0423EEE7FFF776FBEE
:103D20000223EAE7FFF770FB0723E6E700231846C4
:103D3000E3E700BF0080005038B5104B0546D3F8CC
:103D400040310C4603F00303022B0BD0032B0DD0A4
:103D5000012B0FD1FFF75EFB092305B1286004B1E9
:103D6000236038BDFFF75CFB0823F6E7FFF755FB40
:103D70000B23F2E700231846EFE700BF0080005056
:103D800038B5134B0546D3F800320C4603F0070351
:103D9000013B032B18D8DFE803F0020A0E12FFF7ED
:103DA00039FB092305B1286004B1236038BDFFF752
:103DB00037FB0823F6E7FFF730FB0B23F2E7FFF7AB
:103DC000F7FA0E23800AEDE700231846EAE700BF62
:103DD0000080005038B5104B0546D3F840320C46F1
:103DE00003F00303022B0BD0032B0DD0012B0FD1BB
:103DF000FFF710FB092305B1286004B1236038BD2B
:103E0000FFF70EFB0823F6E7FFF707FB0B23F2E7AC
:103E100000231846EFE700BF0080005038B5104B74
:103E20000546D3F860310C4603F00303022B0BD098
:103E3000032B0DD0012B0FD1FFF7ECFA092305B1AD
:103E4000286004B1236038BDFFF7EAFA0823F6E7DB
:103E5000FFF7E3FA0B23F2E700231846EFE700BF72
:103E60000080005010B40D4C0B46D4F8204204F0F2
:103E70000304012C0AD0022C0CD008B100210160EF
:103E80000BB100221A605DF8044B70475DF8044BDB
:103E9000FFF7DABE5DF8044BFFF74EBF008000501D
:103EA000B0F5207F1FD009D8B0F5007F15D003D81A
:103EB00068B1B0F5C07F0AD000200CE0B0F5607F9B
:103EC000FAD10B4BD3F88000C0F3011003E0084B8C
:103ED000186FC0F3033001307047054BD3F89000E2
:103EE000C0F30460F7E7024B186FC0F38020F2E7DD
:103EF000008000504FF400320E4B014610B50020F8
:103F00009A66FFF7CDFF41F6713248430A490B4BE1
:103F100088428CBF4FF480100020DC69DA639A6815
:103F200022F4401202439A60E20344BF0022DA63A3
:103F300010BD00BF00900050005A62020000035004
:103F400008B5FFF747FABDE808400021FFF7D2BFE8
:103F5000420910B510D0012A10D00B4B0B4C022A8D
:103F600018BF234600F01F0051B103F58053012212
:103F700002FA00F0186010BD1346F3E7044BF1E7B6
:103F800003F50053F3E700BF6880005060820050E3
:103F9000648000501FB5002380280446019371D02F
:103FA0002AD8002872D0A0F12004412C32D8412C0C
:103FB00030D8DFE804F06B6E6B6E7D7D7D7D6E6EBC
:103FC000873C9D623C6E6E6E2F2F2F2F2F2F8254B9
:103FD0006E6E6EA7A26E2F2F2F2F2F2F2F2F2F2F0A
:103FE0002F2F2F6B2F6B6B6B7D2F2F2F2F2F2F2FA3
:103FF0002F2F2F2F2F2F6B6BB0F5806F58D021D81C
:10400000B0F5007F4FD008D8B0F5807F5FD0B0F515
:10401000C07F3BD0019804B010BDB0F5607F42D0A6
:10402000F8D8B0F5207F34D0B0F5407FF2D1FFF75B
:10403000BFF902464FF42070FFF732FFB2FBF0F0F9
:10404000400821E0B0F5C06F52D00DD8B0F5A06F98
:1040500033D0B0F5B06F35D0B0F5906FDAD1002124
:1040600001A8FFF737FED5E7B0F5E06F45D0B0F512
:10407000F06F47D0B0F5D06FCCD1002101A8FFF789
:104080007FFEC7E7FFF77AF90190C3E7FFF790F9E2
:10409000FAE7FFF78DF902464FF42070FFF700FFB3
:1040A000B2FBF0F0F0E7FFF769F902462046F5E7CA
:1040B000002101A8FFF7C8FDACE7002101A8FFF728
:1040C000D1FEA7E7002101A8FFF7E2FDA2E70293D6
:1040D0004FF0E0231B695B0705D5FFF769F90290F4
:1040E000029B019396E703A902A8FFF725FEF7E7D5
:1040F000002101A8FFF720FE8CE7002101A8FFF7AF
:1041000069FE87E7002101A8FFF788FE82E700002B
:1041100008B58020FFF73EFF034B98429EBF4FF447
:104120008032024B1A6708BD005A620200A000509C
:104130001FB50023B0F5807F019377D028D83828A9
:1041400000F094800BD82438092810D809280ED8FC
:10415000DFE800F0676767670D0D620D377D522855
:104160005FD008D83D283BD03E2800F084800198DD
:1041700005B05DF804FB8028F9D1414B1B6F03F0BB
:104180000703013B032BF2D8DFE803F044413F6C07
:10419000B0F5D06F5BD019D8B0F5A06F66D00AD853
:1041A000B0F5806F3DD0B0F5906FE0D1002001A94F
:1041B000FFF790FDDBE7B0F5B06F2DD0B0F5C06F25
:1041C000D5D1002001A9FFF7B7FDD0E7B0F5006F0A
:1041D000ECD00AD8B0F5E06F4DD0B0F5F06FC6D195
:1041E000002001A9FFF71AFEC1E7B0F5086FBED1A4
:1041F000234BD3F8003103F00303022B2CD0032B05
:104200002ED0012B30D1FFF7E9F8032300E005237E
:104210000193ACE70223FBE7002001A9FFF738FD7B
:10422000A5E7002001A9FFF70FFDA0E702934FF0DB
:10423000E0231B695B0705D5FFF7BAF80C2303934E
:10424000039BE5E703A902A8FFF776FDF8E7002046
:1042500001A9FFF795FD8AE7FFF7E2F80823D7E702
:10426000FFF7D2F80723D3E70123D1E7002001A904
:10427000FFF7F8FD7BE7002001A9FFF7ABFD76E72C
:104280000080005008B5FFF753FF082811D0093807
:10429000012811D84FF40012094B4FF6FF705A66EF
:1042A00003F5D8335B6A13F0010F18BF4FF4FA70AF
:1042B00008BD044B1888FBE74FF6FF70F8E700BF16
:1042C00000900050480C002070B504468020FFF795
:1042D0002FFF032800F082804FF40022444B02217C
:1042E0005A6645F60E03434AC2F88030424B996243
:1042F000012103F580539962936DD903FCD4D4E96D
:1043000000131B0543EA0163E17B94F822500B4341
:10431000217B94F8236043EA0143617B43EA013344
:10432000A17B43EA811313619169D4E904031B065D
:1043300043EA806301F000410B43A17EE07E0B4322
:10434000217E43EA0143617E43EA01239361E369ED
:10435000126A002B0CBF0021082122F00D0242EA54
:10436000030242EA8002234B42EA01021A6294F8F5
:1043700020204FEA421232D1986A94F8211020F09E
:10438000330042EA0112024342F001029A621B4AE0
:10439000996D32EA0101FBD1022217498A621A653E
:1043A0009A6D5200FCD41869A26820F4700040EAAB
:1043B00002504FF0004218610F4B9A611DB9022262
:1043C00003F580539A6216B901220D4B9A6294F854
:1043D00024301BB1074B0B4AC3F8802070BD996A8B
:1043E00021F0330131430A4342EA4502EEE700BFC0
:1043F0000090005000C0005000D000500300014069
:1044000000E00050F1A7FFFF014B93F90000704757
:10441000FD1A0020F0B5D0E901434FF480061A4A96
:104420004178057856664FF4D156022702F5B83226
:104430005662164E4F2977604FF0010728BF4F2173
:1044400006F5805677601669F603FCD441EA05212B
:1044500051611B01417B43EA04230B43017B43EA87
:1044600041039360C37B817B1B0143EA4113417C81
:104470000B43017C43EA41035360837C13B16FF427
:10448000D1535362F0BD00BF0090005000100250A5
:10449000014B1880704700BF480C00204FF40012F9
:1044A00008B5184B5A660223174A5360936813F4F1
:1044B0008033FBD1012822D1FEF790FF134B9842A5
:1044C00015D003F5122303F5F863984213D0104B6F
:1044D00000EB8002400AB3FBF0F0520A0A4BDA62AA
:1044E000012218635A620022074B5A6008BD45F644
:1044F0007A10084AF2E745F61A00074AEEE75362D7
:10450000F1E700BF009000500040025000F0490267
:1045100064666666D8B80500BBCF05000029CCBF2D
:1045200001210021FFF7E6BCB0F5207F10B50C4655
:1045300042D008D8B0F5007F33D003D888B1B0F5A9
:10454000C07F0ED010BDB0F5607FFBD11F4B013C8A
:10455000D3F8801021F0300141EA0414C3F8804000
:10456000F0E7FFF7EDFC00F035F84FF48031184A22
:10457000164B1167196F013C21F4704141EA043474
:104580001C67FEF715FF0446FFF752FBC0F102015E
:104590002046FFF7C3FF00F023F8BDE81040FFF707
:1045A000B7BD0A4B013CD3F8901021F0F85141EA15
:1045B0000464C3F89040C5E7044B013C196F21F433
:1045C000806141EA84241C67BCE700BF0080005082
:1045D0000090005002214FF42070FFF7A5BF0000AB
:1045E00008B54FF4C070FFF7D5FCBDE8084004499A
:1045F00088428CBF022101214FF42070FFF794BF45
:1046000080F0FA02B0F5807F70B50C4600F0F880BB
:1046100029D8382800F04B8110D82438092816D81A
:10462000092814D8DFE810F0DC00DC00DC00DC0036
:1046300013001300CD00130047003301522800F08F
:10464000CF8005D83D2851D03E2800F0418170BD73
:104650008028FCD18B1E052B00F2B080DFE803F030
:10466000AB99AE69AEA8B0F5D06F00F0108132D82A
:10467000B0F5A06F00F01B8116D8B0F5806F00F088
:10468000AF80B0F5906FE2D1023C052C8CBF0021C9
:10469000974B984A98BF195DD2F8243123F007034D
:1046A0000B43C2F82431D2E7B0F5B06F00F0898037
:1046B000B0F5C06FCBD1083C032C8CBF00218E4BD2
:1046C0008C4A98BF195DD2F8403123F003030B43A5
:1046D000C2F84031BBE7B0F5006FD5D016D8B0F5C1
:1046E000E06F00F0F580B0F5F06FB0D1083C032C1E
:1046F0008CBF0021814B7F4A98BF195DD2F8603191
:1047000023F003030B43C2F86031A0E7B0F5086F54
:104710009DD1CC1E052C8CBF0021794B754A98BFCA
:10472000195DD2F8003123F003030B43C2F80031C6
:104730008DE7002502260121022000F067F9FFF72E
:10474000FFFBFFF747FF4FF480316E4B694A196753
:10475000136F23F0070333431367FEF729FE064662
:10476000FFF766FAC0F102013046FFF7D7FE0121DC
:10477000002000F08BF9FFF733FFFFF7C9FC002D95
:104780007FF465AF032C7FF462AF01225E4B9A6227
:104790005DE74FF400225B4B0E465A66012203F59B
:1047A00040539D6A03F58053C5F340059A62C2E702
:1047B00000250426BFE700250126BCE700252E467C
:1047C000B9E7022C03D0A4F10F0044424441494B05
:1047D000D3F8801121F003010C43C3F8804136E780
:1047E000023C032C8CBF0021484B424A98BF195D04
:1047F000D2F8203123F003030B43C2F8203126E71F
:10480000A1F10804082C3FF622AF01A353F824F0CD
:1048100035480100354801004F4601003548010088
:10482000634801004F4601004F4601004F4601001A
:10483000354801004FF480322E4B3549586E03F550
:1048400080535A660B6A43F001030B62C1035CBFDD
:10485000304B5A664FF0E022136923F004031361D2
:10486000F5E64FF48032234B2949586E03F5805307
:104870005A660B6A23F001030B62C3035CBF254B2E
:104880005A664FF0E022136943F00403E7E7083C5F
:10489000062C8CBF0021204B164A98BF195DD2F818
:1048A000003223F007030B43C2F80032CFE60F2C8F
:1048B0000CD0102C14BF002102210E4AD2F8203255
:1048C00023F003030B43C2F82032C0E60121F4E7D2
:1048D000083C032C8CBF0021104B064A98BF195D81
:1048E000D2F8403223F003030B43C2F84032AEE665
:1048F000C8A7030000800050C4A70300C4A703009A
:10490000D5A703000090005000E00050C0A70300AE
:1049100000C0075000A00050CEA70300C4A70300AA
:10492000EFF3108072B6704700B962B67047EFF3CC
:104930001180302383F31188704780F3118870470A
:10494000054B420953F8223000F01F0023FA00F013
:10495000C04300F00100704700E100E0194B10B5C2
:104960001B6873B3184A5268012A2AD0174A80205C
:10497000C2F80031FFF7DCFB05281FD14FF4C070EF
:10498000FFF78EFA0128044604D102214FF4C070CB
:10499000FFF7CAFD07220E4B1A610122A3F58053CF
:1049A0005A60094A1369DB07FCD5012C09D121465D
:1049B000BDE810404FF4C070FFF7B6BD0122054BB3
:1049C0005A6010BD001B002000C001500080005044
:1049D00000E0015000D00150044A4178536F23F4A5
:1049E000407343EA01235367704700BF0040005003
:1049F000FFF7B4BF034A0179D36E23F030030B43B2
:104A0000D36670470040005070470000F8B5044678
:104A10001C4BD3F88420D106FBD4D3F88430C3F3E5
:104A200081139C422CD0FEF7A9FC012C064602D132
:104A30002146FFF773FDFFF773FF4FF00072124B33
:104A400007465A662046FFF7DFFF4FF480630D4D9F
:104A5000621E93402B676B6E9A0103D4D5F88430A5
:104A60009B060AD53846FFF75FFF022C08D1304677
:104A7000BDE8F8400021FFF751BDD5F88430EAE7E2
:104A8000F8BD00BF004000500060005007B518B9E5
:104A90000191FEF773FC0199064B1B7843B1064B5D
:104AA000984205D8012003B05DF804EBFFF7AEBFD4
:104AB0000220F8E7041B0020005A62020278034B30
:104AC000012100201A70FFF7E1BF00BF041B002086
:104AD0004FF0004210B501244AF6CD31154B5A660D
:104AE000154A03F50B2354605A6C1964224088B9A7
:104AF000996811F0010F114903D08C60D86AC00782
:104B0000FCD501234B6012B10D4B0E4A1A641CF008
:104B10009CFF10BDD96A0907FCD42021074B5962BC
:104B20000121A3F58053996005494B6A9B06FCD58A
:104B3000E9E700BF009000500050095000600950A4
:104B4000004009503254FFFF4FF0004238B5194B76
:104B5000194C5A66012203F50C235A604AF6CD33EC
:104B6000656C23644378154093401343134AD36321
:104B7000A368827823F0740343EA0213C278002A00
:104B800014BF042200221343A3600279837943EA0D
:104B9000022323614279C37943EA022363610078E7
:104BA000FFF796FF0DB1064B23641CF04EFF01206A
:104BB00038BD00BF00900050004009500040005038
:104BC0003254FFFF70B5054614460E46FFF7A8FEA7
:104BD000296881EA040202EA06044C402C60BDE820
:104BE0007040FFF7A1BE7047072AF7B501F0030632
:104BF00014461F464FF003012CD89500A94000FA37
:104C000005F21C480191FFF7DDFF01991A4806FAE9
:104C100005F2FFF7D7FF194B19499DF82000002F27
:104C200008BF1946012303FA04F40C60154B16491A
:104C3000002808BF0B461C60144B9DF82400C3F8E5
:104C400020441031A3F6DC33002808BF0B461C605B
:104C500003B0F0BDA2F10805AD00A94000FA05F2CD
:104C60000B480191FFF7AEFF01990A4806FA05F2D9
:104C7000CFE700BF00C4035008C4035010E4035042
:104C800010D4035014D4035014E4035000E0035034
:104C900004C403500CC40350F8B504460D461F4627
:104CA00016464AB101238B403021194A01FB0022EC
:104CB000FFB141F21001535004EB4403072D4FF0B4
:104CC0000F014FEA031317D8A80006FA00F281403B
:104CD00010481844FFF776FF56B9012130230C48DD
:104CE00001FA05F503FB040077B141F21003C5504A
:104CF000F8BD42F21001DEE7A5F10800800006FAD7
:104D000000F281400448E4E742F21003EFE700BFFD
:104D100000C0035004C003500CC0035010B5012163
:104D200004462020FFF714F901212120FFF710F994
:104D30000122114B5A60227812069A606178A2789B
:104D400042EA01429A61FF229A6200229A631A643F
:104D50004FF000425A654FF0FF324FF4001103F557
:104D600000531A65054AC2F88011E3781B01DBB2D3
:104D700082F81533116010BD0000045000E100E01E
:104D80004FF40032054B9A6641F6713203F51C333D
:104D9000DA63012203F50053DA6070470090005097
:104DA00041F671320121064BDA6303F50052D160FE
:104DB0000022DA634FF40032A3F518339A66704785
:104DC000000003504FF48032064B5A6603F5E62389
:104DD0005B69C3F38512827003F03F021B0B4270C4
:104DE000037070470090005038B50546144621B94D
:104DF0004FF42070FFF7CEF8014601396400B1FB93
:104E0000F4F10902E96138BD012200F5805310B5C3
:104E10005A6040F6AA6341F20502436100230E493D
:104E20008360C365C26000F500520361C361C3645F
:104E300091640A498365884202D0094CA04207D197
:104E40008842036502D0064B984201D10023436596
:104E50000123536010BD00BFFFFF010000C00550DB
:104E60000000065038B50D46FFF7CEFF0122A97BA2
:104E700000F580535A602A8A8368002914BF4FF4D2
:104E80008061002142F0010213432A7D0B43002A76
:104E900014BF4FF00052002283608368044613431E
:104EA0008360AB7C5BB11D4AEB7C90422DD1A2F5B7
:104EB0001032C2F88C31E36D43F08003E3652B7B45
:104EC0002046D5E9011243F48053E360FFF78CFFDD
:104ED0006B7B0BB1102363616B7D1BB1A36843F443
:104EE0008033A360AB7D1BB1A36843F40043A36090
:104EF000EB7D2A7E1B07120503F0E04302F4E0027B
:104F00001343A3652B78636138BD054A904204BF03
:104F1000A2F52032C2F89C31CDE700BF00C0055099
:104F20000000065083695A06FCD5C16383699B065D
:104F3000FCD5406AC0B2704738B50446054D1CF038
:104F4000ABFD0FCC0FC594E8030085E803000020FB
:104F500038BD00BF081B002047F6FF739A42F0B52A
:104F600063D0022963D8334BCF0003EBC10013F8A1
:104F700031108478012913D10025C3781B1B9D4271
:104F800002D3E018C0B2F0BD591B4668A3EB510133
:104F900036F911609642D4BF0D4601F1FF33EEE7BA
:104FA00040680028EFD0B0F90010914204DBB0F95E
:104FB00002109142B8BF114682883B44FF2A19BFB4
:104FC000C8222826B0F90620B0F90860A2EB010239
:104FD0000CBF0125002592FBF6F25F782A447B1E68
:104FE000934228BF13464FF47A7E00EBC305AE68A8
:104FF000EA88AC4611FB02621E4622EAE2720133E5
:1050000002F5FA729F42B2FBFEF204D9BCF80CC062
:1050100008359445EBD200EBC6008088904228BF4B
:105020001046A04238BF2046ACE7FF20ABE7002087
:10503000A9E700BF081B00200229F0B553D82B4870
:1050400000EBC10410F83110636801290FD1E0783A
:10505000A478904294BFC4EB0001C4EB0201001B92
:10506000CAB28242C8BF002233F91200F0BD002B41
:1050700039D0A178914202D3B3F90200F6E7E17882
:10508000B3F900009142F1D999886478A1F1FF0643
:10509000013C714203F10405E4B2714103F10C07D4
:1050A0001FFA82FCCEB2B44216D805EBC1014FF410
:1050B0007A756A43B1F902404968521A04EBD47117
:1050C00002EB610292FBF4F29042CFDBB3F90200F3
:1050D0009042CBDC10B2C9E737F831E04E1CE64510
:1050E000E3D33146DEE70248C0E700BF081B0020DB
:1050F0000080FFFF08B50448FFF71EFFBDE8084029
:1051000001201CF0E3BC00BFD8AF0300004870478B
:105110004A0C00207FB50222084B0949CDE9012342
:105120004FF00073CDE90313052301A94FF0FF30C1
:1051300005931CF033FD07B05DF804FB006A18000E
:105140000002040007B56B46054A1068516803C3A6
:105150006846FFF7F9FC002003B05DF804FB00BFD0
:10516000DBA7030013B50024064A6846536F43F0DB
:105170000103536700948DF80440FFF73BFC204681
:1051800002B010BD0040005030B58BB06C46154DDC
:105190000FCD0FC40FCD0FC495E8030084E80300C2
:1051A000114BD3F84C21120314D4D3F85041E4B27C
:1051B0008DF81940FFF728F9204480F308008DF896
:1051C00018000A48FEF710F96846FFF77DF800203E
:1051D0000BB030BD064B1C884FF6FF739C4208BFD6
:1051E0008C24E5E7E4A703000080E00F00F049020B
:1051F0000001E00F08B50020FFF750F9002008BDBE
:1052000030B5094D87B001AC0FCD0FC42B6801A894
:1052100023603F238DF80530FFF7FCF86420FFF78B
:1052200037F9002007B030BD0CA803006FF004026E
:10523000502110B50A480B4C12F0800FD3B21BBF9F
:1052400003F00F03043BA3181B1802F101020CBF6B
:1052500083F800131976402AEED1002010BD00BF5C
:1052600000ED00E000E100E000F078B838B500F0B3
:10527000E5FD0446E0B900F0C3FE4FF41673434366
:105280000C4803F5742303F23F23B3FBF0F30A4AFF
:105290000A4913600A220D680948013A12F0FF0218
:1052A00040F8043BF9D103EBC3022B4413440B60D9
:1052B000204638BD40420F005C1B0020281B002008
:1052C0002C1B0020012208B5034B1A7000F071FE60
:1052D000024B186008BD00BF241B0020581B002093
:1052E000F8B5144C237823B300F063FE124B134D32
:1052F0001B68134EC01A012838BF0120114B124FF2
:1053000018602B7856F8232046F82300111A3A68C3
:105310000E48521A0A213A600932B2FBF1F2013307
:10532000DBB20260B3FBF1F201FB12332B700023FE
:105330002370F8BD241B0020581B0020541B0020A4
:105340002C1B0020201B0020281B00205C1B0020A1
:10535000014B1868704700BF5C1B002020234FF4EE
:1053600000220A4981F82C33094B5A66094A03F591
:10537000405303F50050426702674FF48050C1F874
:105380008401486003445A67704700BF00E100E0B1
:1053900000900050010000A0044B9A6DD20702D487
:1053A0000028FAD170470120704700BF00C00050AC
:1053B0000C4B10B51C6FE20707D5012203F5005313
:1053C0001A67FFF78DFF00F047FB14F000521CBF77
:1053D000054B1A67002CBEBF4FF00042024B1A6704
:1053E00010BD00BF00C0005000E00050FFF7E0BF5C
:1053F00010B50446FFF794FA024B1C60FFF794FACD
:10540000002010BD601B002010B5FFF789FA034B88
:105410001C68FFF789FA204610BD00BF601B002002
:1054200007B530B9CDE90012FFF7EEFFDDE9001254
:1054300030B1436823B1006803B05DF804EB18474E
:10544000232003B05DF804FB30B51C4685B058B985
:10545000CDE90012FFF7D8FFDDE9001204B903AC73
:1054600020B9232005B030BD03B903AC8568002DF9
:10547000F7D023460068A847F4E70EB477B507AB2A
:1054800053F8046B05460193B0B9FFF7BDFF04461E
:1054900005463046019924F015F8AC42064602D084
:1054A0002046FFF7A5FF002ED4BF3720002003B011
:1054B000BDE8704003B07047FFF7A6FF8542044681
:1054C000E7D02846FFF794FFE3E7000010B500247B
:1054D00000F04EF80348044B84604360FFF788FFF8
:1054E000204610BD681B0020ED54010007B5044B99
:1054F0000093044B1B8800F051F803B05DF804FBE7
:10550000641B0020500C002000207047FEE74FF481
:10551000005300204B607047012070470020704707
:1055200007B5002001AB0190FFF78EFF019800281E
:1055300008BF4FF0FF3003B05DF804FB10B5144610
:105540000020FFF76DFF204610BD0000034B022234
:10555000186800238068194623F0F0BE600D002013
:105560004FF06042D2F8803E1B02FBD4704700002F
:1055700008B5074B1A6842B9012208201A60FDF7E6
:10558000EBFF0449044800F045FA002008BD00BFC5
:105590007C1B0020540C0020741B00202DE9F047D8
:1055A0000F4615461E46002402F1040802F10909BF
:1055B0004FEA132A5FFA88F84C4502D30020BDE871
:1055C000F0871CB3012C05D141460820FDF7D0FF20
:1055D0000134F1E7022C1BD0032C01D1F1B2F4E726
:1055E000042C17D0052C04D1089B13F8011B089339
:1055F000EBE7AB1DA3420FD0EB1DA3420CD005F18E
:105600000803A3420AD0BB1F195DDEE75B21DCE77C
:10561000D121DAE75146D8E75A21D6E75D21D4E710
:10562000BFF35F8F074B5A6A22F480325A62D3F875
:10563000942022F00102C3F89420BFF34F8FBFF3F0
:105640006F8F704700ED00E070B52648264CFFF7DD
:10565000E7FF844208BF4FF08043244A18BF20F080
:105660001F03D2F8C01018BF203B21F0FF0141F00A
:10567000A001B3F1005FC2F8C0100CD31C4D1D4E49
:10568000296843F00103C2F898100131C2F89C6008
:10569000C2F8A0302960844210D01548164B026829
:1056A000124923F01F0343F00303C1F89820C1F807
:1056B0009C30124B0132C1F8A0300260BFF35F8F03
:1056C00005220A4BC3F894205A6A42F480325A6287
:1056D000BFF34F8FBFF36F8FBFF34F8FBFF36F8F4A
:1056E00070BD00BFC40D0020740F002000ED00E06D
:1056F000801B002003000020930F0020E1FFFF3FEC
:1057000010B51446FFF78CFF1F2C24D91C4A1D4CE2
:10571000D2F8C03023F47F4343F48073C2F8C03022
:10572000C2061CBF20F01F002030CB06144A23689D
:1057300018BF21F01F0120F01F0021F01F01C2F847
:10574000983040F0030041F003010133C2F89C009F
:10575000C2F8A0102360BFF35F8F0522084BC3F887
:1057600094205A6A42F480325A62BFF34F8FBFF3DB
:105770006F8FBFF34F8FBFF36F8F002010BD00BF3F
:1057800000ED00E0801B0020BFF34F8F0549064B62
:10579000CA6802F4E0621343CB60BFF34F8F00BFCF
:1057A000FDE700BF00ED00E00400FA0508B5FFF7D3
:1057B000EBFF08BD034B1B78002B14BF0120022018
:1057C000704700BF981B00200329F8B598BF124B03
:1057D00005460E468CBF00245C5C032805D8DFE834
:1057E00000F002080B0E44F002040C4B1F684FB986
:1057F000F8BD44F00804F8E744F02004F5E744F06D
:105800008004F2E77B681A68144203D031462846C8
:105810005B6898473F68EAE720A80300941B0020D4
:1058200038B5104D2B78ABB10F4C23781BB100F07D
:10583000D7F900232370002000F0F4F90B4C50B18D
:1058400000F0FAF90023012120782B70FFF7BCFF4C
:105850000123237038BD0122054B1A702278054BB5
:105860001A70F7E7921B00208D1B0020841B00207C
:10587000911B0020A01B002070B5FFF751F8114EBE
:10588000054633788BB900F0D9FA044620B1284692
:10589000FFF74AF8204670BD0B48FDF7F5FD0B4BAE
:1058A0001C6000F0ADFB0A4B186000F01DF900F021
:1058B000E1F9084B00241860012328463370FFF7F4
:1058C00033F8E7E78E1B0020941B0020A41B002068
:1058D0009C1B0020881B002000292DE9F34114BFE8
:1058E0000121FF21254A00F1FF30135C0B441354C2
:1058F0003AD0234E3278012A36D9FFF75BFF0128D0
:10590000044634D81F4FFFF70BF83B781BB31E4DEE
:105910002B781BB901222A701C4A1370DFF87080A3
:1059200098F8003033B1019000F05AF90023019843
:1059300088F80030FEF7F8FF012000F073F9FEF759
:10594000EFFF2B782BB1019000F076F9002301983E
:105950002B7000233B70FEF7E7FF3078A04203D0A6
:105960002146FFF731FF347002B0BDE8F081032A11
:10597000F3D10228F1D100F097F9EEE7981B00204F
:10598000841B0020921B00208C1B0020911B0020F8
:105990008D1B002010B50446FEF7C2FF002C14BF7B
:1059A0000121FF21064A13780B44DBB21370B3FACE
:1059B00083F3BDE81040034A5B091370FEF7B4BFE0
:1059C0009B1B00209A1B002068B5FEF7A9FF094B1E
:1059D00006461B78012B04D8FEF7A6FF00252846B3
:1059E00068BD054B1D6800F049F905443046FEF7D7
:1059F0009BFFF4E7841B0020A41B002007B5FEF7E3
:105A00008FFF0190FFF70CFF019803B05DF804EBE6
:105A1000FEF78ABF38B541600446FEF781FF0546B0
:105A200021460448FDF733FD2846BDE83840FEF71F
:105A30007BBF00BF941B0020054B1B685843054BE0
:105A400000F5742000F23F20B0FBF3F0704700BF78
:105A50009C1B002040420F0010B5094B1B786BB116
:105A6000084C237853B100F0E7F80023064A23706E
:105A700013700123054A1370054A137010BD00BF4F
:105A8000841B0020911B0020921B00208F1B0020F4
:105A9000901B00207047000073B5114E0446337808
:105AA000834212D000238DF8043080B102238DF898
:105AB000053001A8FEF790FF0A4D402054B1FFF7D2
:105AC000BBFF2B68181A2860347002B070BD8DF8C7
:105AD0000500EEE7FFF7B0FF2B681844F3E700BFBF
:105AE0005C0C0020B01B002073B5002401A88DF8C9
:105AF0000440FEF7E3FF20464FF40024FFF7CCFFFD
:105B00003149324B0A6F02F007021A60D1F8203196
:105B1000D1F8240101F580514C664FF400344C66F5
:105B200001F598318969032A00F0070001F00201AC
:105B300041D003F003039C1E63426341022808BF67
:105B400043F001032248234D037061B31E4A3BB961
:105B5000D2F8003103F00303591E4B424B4103704E
:105B6000D2F8003103F00303022B26D0032B27D0F9
:105B7000012B18D1FDF732FCA8B1174B411EDC6890
:105B80000023024608461946C4F30B04134E0134A1
:105B900004EB8404E4FB060123F0AAF8FFF74CFFB2
:105BA0002B68184428606420FFF746FF2B681844D0
:105BB000286002B070BD0123C0E7FDF731FCDBE7D0
:105BC000FDF722FCD8E700BF00800050A81B002092
:105BD000AD1B0020B01B002000C0015040420F0050
:105BE00038B50C4B1B786BB10B4C23787BB90B4B46
:105BF0000B4D9A6D12F4803F05D0DB6D9B0702D5EB
:105C00000123AB6238BDFFF75DFB0123AB620023CC
:105C10002370F7E7AD1B0020AC1B002000C0005034
:105C200000D00050034B1B780BB1FFF7B5BB012030
:105C3000704700BFAD1B002008B5FEF7D9FE094A2A
:105C40000949136F096823F007030B431367074BD8
:105C50001B7813B10122064B9A62BDE80840FDF79C
:105C6000A7BB00BF00800050A81B0020AD1B002078
:105C700000E000504FF4C870FFF7DEBE08B5054BDA
:105C8000187818B1FFF764FB00EBD000024B1B68DB
:105C9000184408BDAD1B0020B01B00200122014BA1
:105CA0001A707047AD1B00207047000010B500F05F
:105CB000B1FA0A4C0A4B19682368C31A01B10BB92F
:105CC000206010BD4A699A423ABF9B1A0022D21A3C
:105CD0004A6128BF00238968F0E700BFB81B002095
:105CE000CC1B0020C38870B504460D463BB9FFF7B6
:105CF0006BFE8542064602D2FFF780FE35460F490D
:105D000065610B68ABB90C60A36011E0AD1A9A68CD
:105D1000184665612AB113465A69AA42F6D950B1AC
:105D20001A4613468460A36013B15969491B59612F
:105D300070BD0020F0E70C60F5E700BFCC1B002031
:105D400038B5134D2B685B6993B1124A0220146871
:105D50001C4400F069FA204600F072FA00230E4954
:105D60002A680B70D088800709D501230B7038BDD5
:105D7000022000F059FA022000F096FAEEE792684D
:105D8000002AF4D050690344012BEBD9EFE700BFA0
:105D9000CC1B0020B81B0020C01B002070B516468D
:105DA0009DF81420C0E903360271049ABDF818303A
:105DB00002600022C380826004460D4600F02AFA89
:105DC0003044A0613DB9E368656113B120462168A4
:105DD000984796B13546FEF7A3FD0646FFF766FFE6
:105DE00029462046FFF77EFF054B1B68A34201D1E1
:105DF000FFF7A6FF3046FEF797FD002070BD00BFFD
:105E0000CC1B002000220C490B687BB183420AD1D5
:105E100083687AB1936083681BB15A6941690A4407
:105E20005A61002070471A469B68EEE70028EFD0C1
:105E3000022070470B60EEE7CC1B002070B5FEF728
:105E400076FD144E05463478FCB9134B1C60134B99
:105E50001C60134B1C8000F0ADF9012000F0E4F948
:105E600000F03EFA0F4B0246186020B92846FEF7B4
:105E700064FD232070BD234640F2E7310A4822F03A
:105E800037FF0A4B1860012333702846FEF755FD93
:105E90000020EFE7B41B0020CC1B0020B81B002023
:105EA000C21B0020C81B002018FCFFFFBC1B0020E9
:105EB0002DE9F0410546F8B1FEF732FD0F4F0646D9
:105EC000FFF7F4FE2846D7F80080FFF79BFF044653
:105ED00028B13046FEF728FD2046BDE8F081A845F0
:105EE0003B6803D123B1FFF72BFFF2E7002BF0D182
:105EF000022000F0CDF9ECE72224EDE7CC1B0020D6
:105F000070B586B015461E460446059180B1FFF770
:105F1000CFFFBDF82C30002202939DF82830204698
:105F2000CDE9006305992B46FFF738FF06B070BD39
:105F30002220FBE738B50C46054698B191B1002305
:105F40000B70FEF7F4FC0121074B1B680BB12278A4
:105F50001AB1FEF7F2FC002038BDAB4214BF9B68BB
:105F60002170F3E72220F7E7CC1B0020F0B51F4695
:105F7000002387B00D46164604468DF81730A0B1B1
:105F80000DF11701FFF7D6FF9DF817207AB9BDF87C
:105F90003430294602939DF830302046CDE9007315
:105FA0003346FFF7FBFE07B0F0BD2220FBE70320DE
:105FB000F9E738B5FEF7BBFC054600F02BF90446BF
:105FC0002846FEF7BAFC204638BD000070B5FEF743
:105FD000AEFC064600F01EF9084B04461D88012061
:105FE000ADB200F06DF918B100F014F904460135B6
:105FF0003046FEF7A2FC2046294670BDC21B002099
:10600000014B1868704700BFC81B00200C4B70B5CF
:106010001B680D46834211D340F2E73100248C46C1
:106020002146084B4FF47A721E680023E0FB06C13C
:10603000604622F05DFE2860204670BD2120FCE70E
:10604000BC1B0020C81B00200F4B10B51A689AB16A
:106050004FF47A71531E1342A0FB01010ED1B2FA24
:1060600082F2C2F11F04531CD243E04001FA03F351
:10607000184321FA02F20243104610BD002322F019
:1060800037FE0246F8E700BFC81B0020C2072DE913
:10609000F34704460BD53F4A138801339BB2138064
:1060A000FFF704FE3C4B1B680BB1FFF749FEA3074B
:1060B0006DD5FEF73CFC002605463746FFF7F6FD9A
:1060C000B146DFF8D480D8F800400CB163698BB1D9
:1060D0000022324B012F1A7002D1022E08BF1F700E
:1060E000002C44D0FFF72CFE284602B0BDE8F04754
:1060F000FEF723BC23461A792179914288BF1C46BA
:106100009B6813B15A69002AF5D02846FEF715FCA2
:10611000256985B300F07EF8A269861AF317B542A7
:1061200079EB030328DA23691344A361012322696D
:1061300082B17BB9A91B0191FEF7F9FB8246019957
:106140002046FFF7CFFDA369226950461344A3619F
:10615000FEF7F3FBE368E688013713B120462168B8
:106160009847FEF7E4FB0546FFF7A0FDABE70220EA
:1061700000F08EF8B8E72E46FEF7D9FB824620469F
:10618000FFF740FE5046FEF7D8FB0023CFE702B0F2
:10619000BDE8F087C21B0020CC1B0020C41B0020E0
:1061A000034B5A6812B19A6A002AFAD1704700BFAD
:1061B0000040065030B5144B85B001AC93E80700A1
:1061C00084E8070001213D20FDF7C2FE01250023E0
:1061D00020468DF804300295FDF7D4FC03220B4CC9
:1061E00004F500539A615A61FDF712FDFFF7D8FFDD
:1061F000E560FFF7D5FF4FF48022054BC3F88021FF
:106200001A6005B030BD00BF24A80300004006504E
:1062100000E100E0014B186A704700BF00400650E3
:106220000020FDF7EFBC000000F001038207034AE5
:1062300048BF43F002039361704700BF005006500F
:10624000F8B50446FEF76CFB104F06463D6AFFF7B3
:10625000E7FF7A69920704D4421B052A01D8A842B5
:106260000ED1631B042B98BF6C1D0020B4F1FF3FBF
:106270002CBF2146611EFDF7B9FC0220FFF7D4FFB9
:106280003046BDE8F840FEF74FBB00BF0040065067
:1062900000F001038207034A48BF43F00203936101
:1062A000704700BF0060065000F001038207034AF8
:1062B00048BF43F002035361704700BF00500650CF
:1062C000064B01285B6904D0022805D1C3F34000C6
:1062D000704703F0010070470020704700400650EF
:1062E0003D20FDF757BE000010B5FEF720FB044629
:1062F000094B5B699A07094A03F0010003F00303A5
:1063000048BF40F002005361FFF7C0FE2046BDE8E1
:106310001040FEF712BB00BF004006500060065060
:1063200008B5FCF731FDFCF769FDFCF774FDFCF7DF
:1063300087FDBDE80840FCF78CBD08B5FCF78BFD78
:10634000FCF78AFDFCF789FDBDE80840FCF787BD36
:1063500010B50446FDF72CF80C4BA0F57A729A4262
:1063600012D84FF47A73B0FBF3F05C43084BB3FBE5
:10637000F0F0B4FBF0F0022806D9BDE8104003238A
:10638000B0FBF3F000F00CB810BD00BFFFC99A3BA2
:1063900040420F000000000000000000000000006C
:1063A000013800D0FCE77047FDF756B808B504F097
:1063B000EFF80AF01DFB07F06BF908F06CFA00200B
:1063C00008BD0000024A0349034803F079BD00BF3D
:1063D00030A803007CA8030054A8030038B5044685
:1063E000FEF79EFA0546204622F052FE0446284655
:1063F000FEF79AFA204638BD37B504460191FEF7FC
:106400008FFA01990546204622F002FE04462846EE
:10641000FEF78AFA204603B030BD38B50546FEF7D0
:106420007FFA0446284622F03BFE2046BDE838406D
:10643000FEF77ABA0A4619B1024B00211B681847C9
:10644000704700BF600C002000F4E040B0F5805FB2
:1064500004D0A0F5005358425841704701207047BE
:106460000E4B0340B3F1607F06D1B1F5885F14BFD6
:106470006FF0860000207047B3F1707F0BD101F4FC
:10648000E043B3F5005F06D111F4E06F0CBF6FF08D
:106490008600002070476FF0860070470000C07FC4
:1064A0008A42F8B507460D4600F021819B4822F04C
:1064B000FF01814210D09A4C22F4FF7323F00103B4
:1064C000A34209D0974B994206D0974922F47F7393
:1064D00023F003038B4223D125F0FF01814210D02A
:1064E0008F4825F4FF7323F00103834209D08D4BBD
:1064F000994206D08C4925F47F7323F003038B4225
:106500000ED115F0FF030BD0884943F000738B4286
:1065100006D16A4032F0FF030CBF01200020F8BD15
:1065200005F0FE43B3F1A06F17D102F0FE43B3F1C3
:10653000A06F40F0DE8082EA050333F47E1340F062
:10654000D88015F40040EAD0C5F30540C2F30542F7
:1065500090428CBF00200120E1E7B3F1407F40F082
:10656000B38002F0FE43B3F1407F40F0C28082EA84
:10657000050333F47E1640F0BC8039462846FFF709
:106580006FFF002840F0B580694C12F47C1C04EACF
:10659000020438D0B4F1607FC2F3054C7AD165496A
:1065A000D3B243F000738B4278D003F17E410439BB
:1065B000012975D960498B4276D001318B4275D063
:1065C00001318B4274D001318B426BD001318B424F
:1065D0006AD001318B4269D003318B4264D00131E2
:1065E0008B4263D001318B4262D001318B4208BFB4
:1065F000402615F47C1FC5F305435BD1664514BFE7
:10660000002001208BE7B4F1607F2BD14949D3B240
:1066100043F000738B426ED003F17E4104390129AF
:106620006CD945498B426FD001318B426FD001311B
:106630008B426FD001318B4263D001318B4263D0EA
:1066400001318B4263D003318B425DD001318B42EB
:106650005DD001318B425DD001318B4208BF4FF0DC
:10666000400C9CE7B4F1707FC3D107F4E043B3F56D
:10667000005F05D14FF0010CC7F302230CFA03FCB5
:1066800007F4E043B3F5005FB3D10126C7F302235B
:106690009E40AEE7B4F1707FABD1F1E71026A8E7DA
:1066A0001426A6E74026A4E71C26A2E72026A0E79A
:1066B00030269EE712F47C1F01D1B34217D02A0482
:1066C0007FF52DAF634544E7B3F1106F11D125F08D
:1066D0001F6323F4702363B902F0FE43B3F1106F1C
:1066E00007D11648104040F01060A84287E701200B
:1066F00015E7002013E74FF0100C50E74FF0140C93
:106700004DE74FF0400C4AE74FF01C0C47E74FF0C5
:10671000200C44E74FF0300C41E700BF00130006A7
:10672000000200060009000600040006FF00000247
:106730000000C07F03000002080000020000FFF616
:106740007FB500F0FE46B6F1106F0D4603D06FF036
:10675000850004B070BD20F01F6424F47024002C68
:10676000F5D10A9C0294099C0194089C009401F0C4
:1067700001F810F1860FECD16B681B0AE9D1E6E74E
:106780002DE9F843884617461C4601F0C9F805462E
:10679000002859D1D8F80060B6F8009009F4E04319
:1067A000B3F5804FF36808BF27F0010737EA03030A
:1067B00042D1002C48D02F4A24F0FF03934211D03D
:1067C0002D4924F4FF7222F001028A420AD02B4A9A
:1067D000934207D024F47F7222F0030201F5007186
:1067E0008A4234D114F0FF0231D022498B4211D0B9
:1067F000214824F4FF7121F0010181420AD01F4990
:106800008B4207D024F47F7323F00303A1F5A0612A
:106810008B4204D142F00073194A93421ED02246A3
:1068200048463169FFF73CFE074668B922464846AC
:106830007169FFF735FED0B96FF08405002330464B
:10684000C8F8003001F0BAF82846BDE8F88304F033
:10685000FE43B3F1407F04D12304E0D56FF08605F9
:10686000ECE7B3F1A06FF7D0054B9C42D6E73D466D
:10687000EAE700BF00130006000200060009000658
:10688000FF00000238B5037904460D4633B9A3680A
:1068900020462B6001F092F838B938BDD0E90812D3
:1068A00001F050F90028F2D0F7E700232B60F4E75D
:1068B00000F0FE43B3F1407F70B505460E4640F050
:1068C0009980FFF7CDFD002840F0968015F47C1FDD
:1068D00005D0C5F30543032B13700DD86BE04C4B6B
:1068E0002B40B3F1607F69D14A49EBB243F00073AA
:1068F0008B4231D110231370454C2C40B4F1607F92
:106900006AD14449EAB242F000728A4275D002F17B
:106910007E410439012972D93F498A4271D001313F
:106920008A4270D001318A426FD001318A4211D03F
:1069300001318A4265D001318A4264D003318A42F2
:106940005FD001318A425ED001318A425DD001318F
:106950008A424FD140214BE003F17E4104390129A5
:1069600001D81423C7E72C498B4201D11C23C2E76D
:106970002A498B4201D12023BDE729498B4201D10D
:106980003023B8E727498B4201D14023B3E726499A
:106990008B42EBD001318B42EDD003318B42E5D0FD
:1069A00001318B42E7D001318B42E9D001318B427A
:1069B000EBD0002313706FF085001DE0B3F1707F02
:1069C000F7D101F4E043B3F5005FF2D10123C1F345
:1069D00002218B40DBB27EE7B4F1707F0AD106F46E
:1069E000E042B2F5005F05D10121C6F302229140D9
:1069F0008B4201D96FF0860070BD1021F8E7142199
:106A0000F6E71C21F4E72021F2E73021F0E700BF90
:106A10000000C07F0300000208000002090000021D
:106A20000A0000020B0000020C0000022DE9F047F2
:106A3000174624220D460021044692B00DEB0200B9
:106A40009A46DDE91A868DF81F10DDF8709022F065
:106A500066FB1D9B2046002B18BF4FF480622B461F
:106A600008BF4FF4006208A9FFF78AFE044620BB66
:106A7000DDF820C009ACBCE80F000FC49CE807009B
:106A800084E807002846BDF824100DF11F02FFF727
:106A90000FFF044688B99DF81F30B34224D8CDE9D2
:106AA0000339CDE901A8089900972B46D1E90812CE
:106AB00009A800F00CFE044620B10023C9F80060CC
:106AC0008DF81F309DF81F00B04204D2321A2121E8
:106AD000404422F024FB089800F070FF002C18BFFF
:106AE000204612B0BDE8F0876FF08904E5E7002387
:106AF0002DE9F341D0E9016804460F4630461146BE
:106B0000136000F065FF054688B9304600F062FF6B
:106B1000054660B9F6B276B9B8F1000F05D1E36861
:106B200023F47F4323F0030363B16FF08605284607
:106B300002B0BDE8F0810146A06800F044FE0028E4
:106B4000EDD1F2E74FF6F87362889A421CD8238B96
:106B500023F00103002BE8D1394601A800F09EFE86
:106B600005460028E3D10FCC3F683E460FC694E8A7
:106B700007003B7986E807000BB9019BBB603B8BA4
:106B800023F001033B83D2E76FF08505CFE7B0F533
:106B9000105F0DD009D8B0F5885F10D0B0F5905FC8
:106BA0000DD041F20103984209D06FF08500704783
:106BB00021F04003802B02D0B1F5807F06D111F087
:106BC000070F14BF6FF08600002070476FF086003B
:106BD000704770B5046A05460E463CB90120FFF7C0
:106BE0000BFC286228B120466E6270BD6FF08A00EF
:106BF000FBE76FF08C00F8E773B50E4611460546CB
:106C00000192FFF7E6FF044620B93146019A286A4F
:106C100022F05EFA204602B070BD2DE9F041089DD9
:106C200088461F46048802B32046FFF70DFCE0B1FA
:106C30002B680BB9D3002B6020462968FFF7A7FF0C
:106C4000044678B9CE1DB2EBD60F11D1069B9A42FD
:106C500011D84146384622F03BFA2B68079A073391
:106C6000DB0813602046BDE8F0816FF08504F9E78A
:106C70006FF08604F6E76FF08904F3E710B5044679
:106C8000006A10B1616AFFF7D5FB206AFFF7C5FB08
:106C90000020C4E9080010BD38B50446FFF7EEFF38
:106CA000E3692822012B0CBF05466FF096050021F1
:106CB000204622F034FA284638BD13B5044660B1A8
:106CC00001A900F02DFE044638B90198C369012BD3
:106CD00006D900F073FE6FF08304204602B010BDA9
:106CE0000379FF2B0BD01BB1806800F085FE0446B2
:106CF0000198FFF7D1FF002818BF0446EDE76FF0B9
:106D00008404F5E773B5044608460E4600F0D6FB4A
:106D1000002320461A4601A9FFF732FD70B9344618
:106D2000019D0FCD0FC495E8070084E80700338B61
:106D3000019803F00103338300F040FE02B070BD00
:106D400070B5144602881D461046049EFFF77CFB72
:106D500050B944F2010322F44050984204D002F4A6
:106D60004F42B2F5824F0ED1B4420FD82246284688
:106D700022F0AEF90021321B281922F0D0F90020B0
:106D8000059B1C6070BD6FF08500FBE76FF089000C
:106D9000F8E72DE9F04188461F4616468CB022B32D
:106DA000002301223B6002A9FFF7EAFCD0B9DDF81D
:106DB00008C003AC6546CDE90A000FCD0FC495E8C5
:106DC000070084E80700CDE900674346DCE90812C4
:106DD00003A800F03EFC0446029800F0EFFD002CF2
:106DE00018BF20460CB0BDE8F0816FF08900F9E7CC
:106DF00070B51446028844F2010022F440568642DF
:106E0000049D04D002F44F40B0F5824F13D102F438
:106E1000E042B2F5804F0ED1AC420FD81846224660
:106E200022F056F900212A1B204422F078F9002094
:106E3000059B1C6070BD6FF08500FBE76FF089005B
:106E4000F8E72DE9F0438946984617468DB052B3CE
:106E5000002302A91A46C8F80030FFF791FCE0B9F8
:106E6000029E33885B041BD5354603ACCDE90A008E
:106E70000FCD0FC495E8070084E80700CDE900783E
:106E80004B46D6E9081203A800F0EEFB0446029830
:106E900000F094FD002C18BF20460DB0BDE8F08333
:106EA0006FF08604F3E76FF08900F6E72DE9F04113
:106EB0001F46002388B0054688461646CDE90433B0
:106EC00007923B60002A5FD0B2F1005F5FD205AA53
:106ED00004A9FFF70CFE0446A0B9049B1B6ABBB1D2
:106EE000049B41465A882846069206AA029203F15C
:106EF000240201925A6A00921B6A324600F082FB19
:106F00000446D0B10498002832D0FFF7C5FE2FE028
:106F10006B681B0A07D107990498FFF75AFE0446CD
:106F20000028DDD0EEE732464146284607AB00F0A8
:106F3000F4FA04460028EED0E4E70498069B428861
:106F4000D2B943804FF6F87293421AD82B8813B106
:106F500002889A4212D12B6A83B96B8813B1428896
:106F60009A420BD13946FFF78DFC04460028C9D15F
:106F7000204608B0BDE8F0819A42E3D06FF0860465
:106F8000C0E76FF08504BDE76FF08604F0E76FF0AF
:106F90008504EDE7036810B5044653B100F0E1FB4A
:106FA00000232360A38823F4FF7323F00103A3804D
:106FB00010BD1846FCE72DE9F04105460C460021BE
:106FC0008CB0174603A824229846029122F0A7F815
:106FD0002B68002B3DD1B8F1000F20463B4614BF73
:106FE0004FF480624FF4006202A9FFF7C9FB044628
:106FF00000BB029E03AC0FCE0FC496E8070084E8E6
:1070000007003846BDF80C102A1DFFF751FC044656
:1070100080B96B79284668F300036B71029B03A962
:10702000D3E908230097B8F1000F0FD000F05CFB04
:10703000044610B12846FFF7ADFF029800F0BEFCF1
:10704000002C18BF20460CB0BDE8F08100F05FFBBB
:10705000EEE76FF08804EDE70123FFF7ACBF38B52A
:107060000368054614464BB132B100F063FB044699
:1070700010B12846FFF78EFF204638BD6FF0880418
:10708000FAE72DE9F0411646026805460F46984694
:10709000F2B14279D2071BD50279CAB1B2421AD8ED
:1070A00000F051FB044618B10023C8F800602B71B2
:1070B0002879B04204D2321A2121384422F02FF824
:1070C0002846FFF767FF002C18BF2046BDE8F08177
:1070D0006FF08804E8E76FF08904E5E71FB5012445
:1070E0000394089C0294079C0194069C0094FFF76B
:1070F0009DFC04B010BD000037B50C4D0C462B783C
:10710000DB070FD500230A460193014601AB281D7A
:1071100002F048FE20B9019BA34218BF6FF0930014
:1071200003B030BD6FF08800FAE700BFD01B00202D
:107130002DE9F04F00249A4601F0FE4397B0B3F1D9
:10714000806F0E46DDE920B89146229F089478D1E1
:107150000B464FF4807208A9FFF712FB0546002882
:1071600041D1DDF820C00DAC6546CDE914000FCD4E
:107170000FC495E80700BCF8003084E8070003F46A
:10718000E042B2F5005F1BD113F4E06FC3F30221BC
:1071900016D0304826F4807282420AD000F5007082
:1071A000864206D02C48864203D0A0F53F4082425A
:1071B00006D101248C40102C0DD96FF0830512E00C
:1071C00042F20402934202D1244B9E421ED0244B31
:1071D0009E421DD10D24A04530D3214609A8FFF7BA
:1071E0008BFF0546A8B1089800F0E8FB064665BB92
:1071F00050BB24B12246584609A921F069FF3B68DB
:1072000023443B60304617B0BDE8F08F0C24E2E722
:107210000024A8EB040305930BEB0403CDE903A3BF
:10722000CDE90149089909AB009306973346D1E9A6
:1072300008120DA800F03AFA0546D4E76FF0890568
:10724000D1E76FF08605CEE7054600232E463B606A
:10725000D8E700BF0010C00400FF40040001800414
:107260000013C0042DE9F04705469A46002386B076
:10727000059305F0FE43B3F1106F0846DDE90E9665
:107280001746DDF8408022D12B464FF4804205A9F5
:10729000FFF776FA044658B953463A462846CDE9F0
:1072A00001680599CDF80090FFF74AFA044628B125
:1072B00031464846FFF720FFC8F80060059800F007
:1072C0007DFB002C18BF204606B0BDE8F0876FF0AC
:1072D0008604EDE7034610B50C461146DA690088CE
:1072E0000AB91B6A3BB9FFF7AFF838B12046BDE8D1
:1072F0001040FFF701BF6FF0860010BD6FF08500F2
:10730000FBE72DE9FF410023CDE901330B60438802
:1073100006460D46002B00F08E80038803F4E04300
:10732000B3F5804F00F0878002AA01A9FFF7DFFBC9
:10733000044600BB019B1B6A73B10199304601F101
:107340002403D1E9081200F03FF90446002875D063
:107350000198FFF793FC0EE07268170A60D1B6F847
:10736000008071884046FFF76FF860B14046FFF734
:107370000EFC044660B1019808B1FFF78DFC204671
:1073800004B0BDE8F08128F0FF03B3F5E24F4FD120
:1073900008F4E043B3F5805F02D0B3F5005F02D19B
:1073A000CA1DD7100AE047F2010398450FD14A08D9
:1073B0000132D21002EBC20202F13B07039703999C
:1073C0000198FFF706FC04460028B6D0D3E744F244
:1073D0000103984503D1CA0802F11007EEE747F20E
:1073E0000203984505D1CA0802EB420202F15A078E
:1073F000E4E744F20203984505D1CA0802EB4202D1
:1074000002F14A07DAE728F0FF00B0F5E24FC7D0F3
:10741000B0F5824F01BFCA1DD2105200571CCDE7F4
:10742000304603A900F07EF804460028C7D0A2E742
:107430006FF085049FE76FF08604A0E72946019866
:10744000FFF720FA0446002899D094E708B500F029
:107450000BFA084B0C211A78064812F0060F1CBFD5
:107460000022C3E90122FEF7E5FFBDE8084000F075
:1074700053B800BFD01B002038B50F4D2B7813F048
:10748000010213D1C5E90122022262F342032B70EB
:1074900000F0DEF9044658B900F03CF8044638B96B
:1074A0002B7843F001032B70204638BD0024FBE706
:1074B000FFF7CCFFF8E700BFD01B002010B5044653
:1074C000C069FEF7AAFF2046BDE810402422002133
:1074D00021F025BE2DE9F04105460F4690461C4699
:1074E0009BB119460120FEF787FF064678B1224678
:1074F000414621F0EDFDE86908B1FEF78EFF00205E
:10750000C5E907642F80BDE8F0811E46F3E76FF000
:107510008C00F8E702F044BC704700226FF0860050
:107520001A607047028843884068000A47D102F415
:10753000E040B0F5805F02D0B0F5005F05D10733C1
:10754000DB0863B96FF08500704747F201008242A3
:107550000FD15B080133DB0803EBC3033B3322F09D
:10756000FF02B2F5824F01D1012BEBD000200B605E
:10757000704744F20100824202D1DB081033EEE78B
:1075800047F20200824204D1DB0803EB43035A3383
:10759000E5E744F20200824204D1DB0803EB430337
:1075A0004A33DCE722F0FF00B0F5E24FC7D0B0F578
:1075B000824FC7D10733DB085B000133CFE70023DD
:1075C0006FF086000B6070472DE9F0414768044674
:1075D0003F0A0D461646984611D107887F0407D406
:1075E0004346324629462046BDE8F041FFF772BEC9
:1075F00002F0AAF810F1860FF2D0BDE8F0816FF02A
:107600008600FAE72DE9F04F456885B02D0A04465B
:10761000DDE90E7A894616469846DDF840B013D16A
:10762000CDE901AB009702F079F910F1860F0DD189
:107630004346324649462046CDE90FAB0E9705B08A
:10764000BDE8F04FFFF7E9BA6FF0860005B0BDE87E
:10765000F08F70B44668360A02D170BCFFF770BB79
:107660006FF0860070BC70472DE9F347456804460B
:10767000DDE90A7A2D0A89461646984611D1CDE9E8
:10768000007A02F0D1F810F1860F0CD14346324651
:1076900049462046CDE90A7A02B0BDE8F047FFF737
:1076A000A7BB6FF0860002B0BDE8F0872DE9F0437C
:1076B000DDE90BCED0F804905FEA192903D1BDE8CB
:1076C000F04301F02FBF6FF08600BDE8F083F0B506
:1076D000D0F804E05FEA1E2E03D1BDE8F04002F0CE
:1076E00009BA6FF08600F0BD13B504464868000A79
:1076F0000AD10498009004F1080002F065FA08B974
:107700000623236002B010BD6FF08600FAE713B5C0
:1077100004464868000A0AD10498009004F1080061
:1077200002F084FA08B90623236002B010BD6FF09E
:107730008600FAE70368062B02D1083002F078BA17
:107740006FF08600704710B40468062C04D15DF811
:10775000044B083002F0BCBA6FF086005DF8044BB1
:1077600070470368062B02D1083002F005BB6FF0AA
:10777000860070472DE9F04198460D4600230E46DD
:1077800090B007ACCDE90E33844617460FCD0FC439
:1077900095E80700736884E807001B0A10D1189B5E
:1077A00060460493179B00970393169B07A9CDE9A6
:1077B0000183D6E9082301F023FF10B0BDE8F08172
:1077C0006FF08600F9E76FF04043421E9A4208D3FB
:1077D00029B100F1404098428CBF002101210846A8
:1077E00070470121FBE7000000F100420332022A4A
:1077F00038B504460D460ED82821144B01FB023340
:107800009A6882421CD1DA69511C1CD000200132D6
:10781000DA612B6038BD0121FFF7D5FF68B10B4B52
:107820009A689442EFD01A6B944204D09A6D9442B5
:1078300006D15033E7E72833E5E76FF08700E9E743
:107840006FF08B00E6E76FF09600E3E7DC1B0020AB
:10785000044A002092F8783043F0010382F878302F
:10786000704700BFDC1B002038B501250A4C2046BC
:10787000E561FFF711FA04F128006564FFF70CFADF
:1078800004F15000E566FFF707FA94F878306FF3DB
:10789000000384F8783038BDDC1B0020F8B51E4C9E
:1078A000064694F878300F46D8072ED50025234693
:1078B000294618881A46A8B12DB91A791AB1DA6979
:1078C000002A08BF1D460131032903F12803F0D126
:1078D00015B96FF08C001AE001232846EB61FFF721
:1078E000DBF92A46D369591C02D16FF096000EE0ED
:1078F00000200133D361141B084BE4105C4304F1F6
:107900000044033C34603A60F8BD6FF08800002307
:107910003B603360F8E700BFDC1B0020CDCCCCCC53
:107920000023F0B50B60244B074693F878300D46E2
:10793000DC0785B03CD5FFF757FF10F18C0F0446EC
:1079400025D1294601A8FFF7A9FF0446F8B901236C
:107950002E68CDE90200B7603046736003AA02A921
:1079600000F049F9044628B9DDE902123046FFF774
:1079700043F90446DDE9020100F033F954B1286807
:10798000FFF78AF914F18C0F08BF6FF087042046C7
:1079900005B0F0BD2B68DA68D00444BF42F48062C1
:1079A000DA60DA689104F2D542F40062DA60EEE758
:1079B0006FF08804EBE700BFDC1B002038B1C3691F
:1079C0001BB1013BC361002070476FF09600704708
:1079D00000207047C0B2FF280CBF6FF08600002067
:1079E000704707B500216A4601F00EFD8C3018BFC4
:1079F000012003B05DF804FB13B500216A4604467C
:107A000001F002FD8C3002D1002002B010BD002137
:107A1000204601F02DFD014628B96A46204601F0B6
:107A2000F3FC8C30F0D06FF09800EEE730B4224DCC
:107A30002C681C606C685C6000241C725C729C7218
:107A4000DC725468250A1C735D73250C240E9D732B
:107A5000DC7314881C74240A5C7454889C74240A93
:107A6000DC74D468250A1C755D75250C240E9D7583
:107A7000DC751469250A1C765D76250C240E9D762E
:107A8000DC765269140A1A775C77140C120EDA77D6
:107A90000A0A83F821200A0C83F822200A0E9C7718
:107AA00083F8201083F8232030BC0A46014603F1F6
:107AB000240021F00DBB00BFC6A803002DE9F84348
:107AC000232904460F4691469846089E04D86FF035
:107AD00098052846BDE8F8830822194921F0E8FAFC
