:020000021000EC
:10200000C00A0020FD360100F9360100F936010052
:1020100029640100F9360100F9360100F9360100A2
:10202000F9360100F9360100F9360100F9360100F0
:10203000F93601007CBB03008D310100F936010047
:10204000F9360100F9360100F9360100F9360100D0
:10205000F9360100F9360100F9360100F9360100C0
:10206000F9360100F9360100F9360100F9360100B0
:10207000AD6F0100F9360100F9360100F9360100B3
:10208000F9360100F9360100192F0100F936010077
:10209000F9360100B13C0100F9360100F9360100C2
:1020A000F9360100D53D0100B13D0100F9360100CE
:1020B000F936010079910300F9360100659B0300B0
:1020C0001D9B0300199B030055930300619B0300B4
:1020D000219B0300399B0300259B0300C59B030044
:1020E000E9730300B1750300A59B0300F9360100F5
:1020F00069600100F9360100F9360100F936010086
:10210000F9360100F9360100F9360100F93601000F
:10211000F9360100F9360100F9360100F9360100FF
:10212000F9360100F9360100F9360100F9360100EF
:10213000F9360100F9360100F9360100F9360100DF
:1021400010B5054C237833B9044B13B1044800E0B3
:1021500000BF0123237010BD780F00200000000095
:102160000007040008B5034B1BB10349034800E016
:1021700000BF08BD000000007C0F00200007040025
:10218000A3F5803A704700BF174B002B08BF134BD5
:102190009D46FFF7F5FF00218B460F461348144A72
:1021A000121A28F094F90E4B002B00D098470D4BD3
:1021B000002B00D098470020002104000D000D489E
:1021C000002802D00C4800E000BF28F015F92000DC
:1021D000290000F0FDFE28F0FBF800BF0000080019
:1021E0000000000000000000C00A0020780F00205E
:1021F000082C002000000000000000000621836978
:1022000018470821836918471FB500238DF8071068
:102210008DF80D100222806803A98DF80C3002F0B1
:1022200065F990B9032001F01BF970B1084C094918
:10223000206803F060FF01F033F901F065F9064909
:1022400020680DF1070203F056FF04B010BD00BF77
:102250002C10002008B603000DB603002DE9F04154
:1022600006460024134D144F05EB04080122414695
:10227000B06802F0F9F880B9032001F0F1F860B11C
:102280000E49386803F037FF01F00AF901F03CF914
:1022900042460B49386803F02EFF0134032CE3D18A
:1022A0002888AB7840BA80B243EA002040F3170098
:1022B000BDE8F081940F00202C10002008B6030028
:1022C0002DB60300FF2313B58DF801308DF80230D1
:1022D0008DF803300423890041F020018DF80010AF
:1022E0000DEB0302694602F0DBF880B9032001F030
:1022F000B7F860B1084C0949206803F0FCFE01F012
:10230000CFF801F001F90649206803F0F4FE9DF8CA
:10231000050002B010BD00BF2C10002008B603005D
:102320004BB6030038B504460D4680680021FFF720
:10233000C9FF01212071A068FFF7C4FF022160716D
:10234000A068FFF7BFFF0321A071A068FFF7BAFFE5
:10235000E071287038BD000013B5890041F04001DC
:102360008DF804108DF8052001A9022202F0BEF8B4
:1023700080B9032001F074F860B1074C0749206868
:1023800003F0B9FE01F08CF801F0BEF804492068B2
:1023900003F0B1FE02B010BD2C10002008B60300FF
:1023A0007BB6030037B504462B4804F035FE63695D
:1023B00020469847284804F02FFED0236E2200259F
:1023C000637040232946A370A0682270E570FFF770
:1023D000C3FF01216278A068FFF7BEFF0221A27847
:1023E000A068FFF7B9FFE2780321A068FFF7B4FF08
:1023F000194804F011FE2946A068FFF763FF012188
:102400002071A068FFF75EFF02216071A068FFF7EE
:1024100059FF0321A071A068FFF754FFE07103206A
:1024200001F01EF890B10D4D0D49286803F063FED0
:1024300001F036F801F068F8E37922790193A37985
:10244000084900932868637903F055FE024804F0B8
:10245000E3FD002003B030BDA08601002C10002059
:1024600008B60300ACB6030013B504460191CAB226
:1024700080680021FFF770FF9DF80520A06801210A
:10248000FFF76AFF9DF80620A0680221FFF764FFAE
:1024900003219DF80720A06802B0BDE81040FFF7B7
:1024A0005BBF4279012102F0FD0242718068FFF7B3
:1024B00053BF4279012122F0020242F0020242712E
:1024C0008068FFF749BF037923F00E031943CAB2AE
:1024D000027100218068FFF73FBF037903F00F030B
:1024E0001943CAB2027100218068FFF735BF4379F2
:1024F00003F01F031943CAB2427101218068FFF73C
:102500002BBF4279012102F0FB0242718068FFF784
:1025100023BF4279012142F0040242718068FFF733
:102520001BBF0279002142F0010202718068FFF7AF
:1025300013BF0279002102F0FE0202718068FFF7EA
:102540000BBF000010B504464C2027F079FF114A5C
:102550008460C260104A0261104A4261104A82617E
:10256000104AC261104A0262104A4262104A8262F4
:10257000104AC262104A0263104A4263104A8263E0
:10258000104AC263104A0264104A4264104A8264CC
:1025900010BD00BFA523010003220100FD210100A1
:1025A00009220100252301006924010023250100DF
:1025B0003325010013250100EF240100C724010089
:1025C000DB24010003250100B3240100A324010042
:1025D0005D22010070B502260025254B88B01E67DC
:1025E00003A803958DF8105002F03EFF0B214FF425
:1025F000F06002F005FD01213D2002F0A7F91D4A1F
:1026000005AB07CA83E8070040F201121846ADF88F
:102610001C2001F099FF01F0F9FF47F230512846E4
:1026200001F0E8FF144B9E614FF48022134B1A60B7
:102630000124012001F0BCFF2B46224629462046FA
:10264000CDE9004403F030F82B46324631462046AF
:10265000CDE9004403F028F83C2027F0F1FE084BB8
:10266000084A196800F064FC074B186008B070BD98
:102670000040005024B703000050065000E100E085
:10268000E40B0020C00A0020980F0020014B1868BE
:1026900000F00FBA980F0020F0B50368A04A23F4A9
:1026A0007F4323F00703934291B005D09D4A9342A4
:1026B00000F0528111B0F0BD0DF10F0104A81AF025
:1026C00019F8044630B3984D9849286803F013FD73
:1026D0009749286803F00FFD00F0E2FE00F014FFB8
:1026E000944B954A009395497723286803F003FD9E
:1026F0002346934A9349286803F0FDFC204600F0E6
:102700002BFF9149286803F0F6FC8849286803F0FC
:10271000F2FCFEE79DF81530FF258DF818309DF886
:10272000143001468DF819309DF8133008228DF8C9
:102730001A30FE238DF81C309DF8123012208DF8CF
:102740001D309DF811308DF81B508DF81E309DF80E
:1027500010308DF81F3006AB19F088FF044630B3F7
:10276000714D7249286803F0C6FC7149286803F06E
:10277000C2FC00F095FE00F0C7FE6E4B6E4A00935F
:102780006E498723286803F0B6FC23466C4A6D49DE
:10279000286803F0B0FC204600F0DEFE6A49286895
:1027A00003F0A9FC6149286803F0A5FCFEE7014697
:1027B00012220BA827F08BFE01238DF8213006236F
:1027C0008DF822308DF8233009238DF824305F4BAB
:1027D00002271A681B795E4E8DF8293014238DF874
:1027E0002A300C238DF82C3011238DF82E30222323
:1027F0008DF8323033238DF83630442330468DF84F
:102800002070CDF825208DF82B508DF83A3019F036
:10281000A3FE044630B3444D4449286803F06BFCE2
:102820004349286803F067FC00F03AFE00F06CFEB4
:10283000484B414A00934149E823286803F05BFC78
:1028400023463F4A3F49286803F055FC204600F0E4
:1028500083FE3D49286803F04EFC3449286803F0A4
:102860004AFCFEE701461E22307808AB19F0AEFEA6
:10287000054630B32C4C2D49206803F03CFC2C4914
:10288000206803F038FC00F00BFE00F03DFE314BF9
:10289000294A00932949EF23206803F02CFC2B469A
:1028A000274A2849206803F026FC284600F054FEF9
:1028B0002549206803F01FFC1C49206803F01BFC1D
:1028C000FEE73946307819F0ABFE054600283FF4A4
:1028D000F1AE154C1549206803F00DFC1449206831
:1028E00003F009FC00F0DCFD00F00EFE194B124A6B
:1028F00000931249FD23206803F0FDFB2B46104A8C
:102900001049206803F0F7FB284600F025FE0E4929
:10291000206803F0F0FB0549206803F0ECFBFEE7BC
:10292000A0000100A00006012C100020D6B6030074
:10293000D9B6030048B70300DEB60300E7B60300CC
:10294000F3B60300F6B603000BB703001CB7030091
:10295000C00A002030B70300464E0221307819F03B
:102960004BFE044630B3444D4449286803F0C3FB92
:102970004349286803F0BFFB00F092FD00F0C4FD5E
:10298000404B414A009341499C23286803F0B3FB24
:1029900023463F4A3F49286803F0ADFB204600F03C
:1029A000DBFD3D49286803F0A6FB3449286803F0A5
:1029B000A2FBFEE72022034600901146307819F072
:1029C000E3FD054630B32C4C2C49206803F093FB03
:1029D0002B49206803F08FFB00F062FD00F094FDAE
:1029E000284B294A00932949A523206803F083FB3B
:1029F0002B46274A2749206803F07DFB284600F034
:102A0000ABFD2549206803F076FB1C49206803F0E4
:102A100072FBFEE70221307819F002FE054600281D
:102A20003FF448AE144C1549206803F064FB144988
:102A3000206803F060FB00F033FD00F065FD114BF2
:102A4000114A00931149A923206803F054FB2B4637
:102A50000F4A1049206803F04EFB284600F07CFD29
:102A60000D49206803F047FB0449206803F043FB4D
:102A7000FEE700BFC00A00202C100020D6B60300DD
:102A8000D9B6030048B70300DEB60300E7B603007B
:102A9000F3B60300F6B603000BB7030070B50646A5
:102AA0000C200D46144627F0CBFCC0E9006584607D
:102AB00070BD70B5044645682B68002B00DA70BD08
:102AC00022689A420CD120466B68984740B1AB68A7
:102AD0002360EB68002BF2D02046BDE87040184719
:102AE0001035E9E7836893F820007047836893F80E
:102AF0002D007047836893F8210070478368986AB7
:102B0000031F584258417047836893F8220018B158
:102B1000986A043818BF01207047836801209A6AB8
:102B200083F8230002449A627047836893F8240074
:102B300020B193F82D00B0FA80F040097047836807
:102B400093F8240020B193F82D00003818BF01201D
:102B50007047836893F825202AB993F82D00B0FABE
:102B600080F04009704700207047836893F8250083
:102B700048B193F82D202AB993F82C00003818BFDB
:102B800001207047002070470022836810B5DC697F
:102B900083F821205A849B6A022B0ADC0122064B0F
:102BA00020461A61236C984720462369BDE81040EF
:102BB0001847032BF2D010BD00E0035000228368B9
:102BC00083F82420012283F82120704738B50023A0
:102BD0008468E0696384836CA56A984704EB850484
:102BE000606038BD022801BF0122024B1B681A70C9
:102BF000704700BFA00F0020012381F82C307047E0
:102C000000228368986983F8252083F82C2003F03C
:102C100091BF10B50024836883F8254083F82C40C9
:102C2000986903F087FF21464FF4002002F0D6FD9B
:102C3000BDE8104002F0C4BC1FB5002384680DF14C
:102C40000F0184F82430A06903F0B6FF9DF80F301F
:102C500063B940F2DC5004F01BF80123CDE90033E6
:102C600001462346044AA06903F0C2FF012384F809
:102C7000253004B010BD00BFF92B0100012806D19A
:102C8000034B1A681378B3FA83F35B091370704728
:102C90009C0F0020002370B58468424A84F82030DD
:102CA000D2F82C3423F40023C2F82C3402223E4BF9
:102CB0001A6702F063FE054602F05AFE6B072AD53A
:102CC000032000F0CDFB60B1384D3949286803F08E
:102CD00012FA00F0E5FB00F017FC3649286803F013
:102CE0000AFA354D2B68012B31D10023032084F8DB
:102CF0002D3000F0B5FB60B12C4E2D49306803F04B
:102D0000FAF900F0CDFB00F0FFFB2C49306803F02E
:102D1000F2F900232B600122294BE0691A61C36894
:102D2000984750BB032000F09BFB60B11F4D20492A
:102D3000286803F0E0F900F0B3FB00F0E5FB21495F
:102D4000286803F0D8F9012384F8213070BD0123ED
:102D5000032084F82D3000F083FB0028DBD0134DD6
:102D60001349286803F0C7F900F09AFB00F0CCFB88
:102D70001549286803F0BFF9CDE7032000F070FB88
:102D80000028E3D0094C0A49206803F0B4F900F0A8
:102D900087FB00F0B9FB20680C49BDE8704003F0E8
:102DA000AAB900BF00C00350004000502C10002002
:102DB00008B6030057B70300A40F00206BB7030049
:102DC00000D0035098B7030082B70300B8B70300E0
:102DD000836893F82D007047002330B5846885B070
:102DE000E069A362436C98476368DFED476A9B1212
:102DF00007EE103AB8EEC77A27EE267AA3688DED73
:102E0000007A9B1207EE103AB8EEC77A27EE267AC0
:102E1000E3688DED017A9B1207EE103A2369B8EE54
:102E2000C77A9B1207EE903AD4E90C23F8EEE77AC2
:102E300027EE267A67EEA67A684694F82D108DED77
:102E4000027ACDED037A00F0CDF800285AD10320A4
:102E500000F006FB88B12D4D2D49286803F04BF991
:102E600000F01EFB00F050FB009827F0C1F802466E
:102E70000B462868274903F03EF9032000F0F0FADA
:102E800088B1224D2249286803F035F900F008FB8B
:102E900000F03AFB019827F0ABF802460B46286891
:102EA0001C4903F028F9032000F0DAFA88B1174D25
:102EB0001749286803F01FF900F0F2FA00F024FB2C
:102EC000029827F095F802460B462868114903F04E
:102ED00012F9032000F0C4FA88B10C4D0C4928689F
:102EE00003F009F900F0DCFA00F00EFB039827F07C
:102EF0007FF802460B462868064903F0FCF80123D8
:102F000084F8243005B030BD0000003D2C100020B6
:102F100008B60300DAB703000222034B5A6101220C
:102F2000024B1A60704700BF00600650A40F0020DB
:102F30002DE9F041002504464161C0E90155C0E991
:102F400003551C2090460E4627F07AFAA061042013
:102F500027F076FA01274FF48073A063A3853046EB
:102F60002762A584A562C4F83080FFF7EBFA134905
:102F7000E061384600F00AFF114B124904F12D02BE
:102F800002201A6000F002FF0F4B04F122023C20E5
:102F90001A6027F055FA606304F0C0F83A468021C1
:102FA000022004F0A7F80146606B04F0E1F8224625
:102FB0002846BDE8F0410549FFF770BD7D2C0100B2
:102FC0009C0F0020E52B0100A00F0020C40A002068
:102FD00008B504F008F8FFF7FDFA04F011F8FFF760
:102FE00055FBFAE730B504468BB01078002960D164
:102FF00002238DF8083001238DF8093006238DF85F
:103000000A308DF80B3009238DF80C304D238DF8E4
:103010000D3032238DF80E3030238DF80F305F23C2
:103020008DF8103031238DF8113013238DF81230C4
:10303000FF238DF813303F238DF814300C238DF8C7
:10304000153023681A0A8DF816308DF817201A0CDF
:103050001B0E8DF8193063688DF818201A0A8DF848
:103060001A308DF81B201A0C1B0E8DF81D30A3682A
:103070008DF81C201A0A8DF81E308DF81F201A0CAE
:103080001B0E8DF82130E3688DF820201A0A8DF888
:1030900022308DF823201A0C1B0E8DF824208DF879
:1030A00025301E2202AB19F091FA054628460BB0D6
:1030B00030BD022119F0A0FA054630B3274C28494B
:1030C000206803F018F82749206803F014F800F08E
:1030D000E7F900F019FA244B244A009324494923C4
:1030E000206803F008F82B46224A2349206803F0A1
:1030F00002F8284600F030FA2049206802F0FBFF71
:103100001749206802F0F7FFFEE701462346102228
:10311000152019F0ABFA88B9032000F0A1F968B1C5
:103120000E4D1749286802F0E6FF00F0B9F900F0EB
:10313000EBF922681349286802F0DDFF22461021CE
:10314000152019F0C1FA05460028AFD1034B2268BB
:103150000D49186802F0CFFFA8E700BF2C1000202F
:10316000D6B60300D9B6030042B80300F0B7030097
:10317000E7B60300F3B60300F6B603000BB703008F
:1031800008B603000DB8030027B8030008F07ABCA6
:1031900003F078BF10B5044600F0D2F82046FFF7E0
:1031A0007BFA10BD0120704700B5C3B008F0B4FB36
:1031B00008F0DDFB48B1FFF7F5FF30B101A819F0C9
:1031C000C4F910B901A8FFF7E5FF43B05DF804FBAF
:1031D00000F0E4B908B50321802001F011FF0321BC
:1031E0004FF4806001F00CFF03214FF4906001F078
:1031F00007FF08214FF4C06001F002FF08214FF4DF
:10320000F06001F0FDFE08213E2001F0F9FE0821EA
:103210002D2001F0F5FE002008BD10B501213A2057
:1032200001F094FB002304221946184602F094FA98
:10323000012303221846002102F08EFA0122002306
:103240001046022102F088FABDE810400123032253
:103250001946184602F080BA08B5184B1B68C3F32C
:103260000743012B0ED1164B04205A6E4FF48023D6
:103270001449520358BF144A4B6601F510410862C5
:1032800058BF536602F010FE00F09CF902F096FD64
:1032900002F028FE02F0B6FD02F0EAFD02F0EEFDBB
:1032A000FFF798FF02F09AFD00F081F900F0E6FACE
:1032B00000F0A2FDBDE8084003F020B90080E00F57
:1032C000008000500090005000A0005008B500F0B1
:1032D0001BFBFFF7A2FF00F041FD00F027F8BDE85F
:1032E000084000F073B908B500F056F903F0E8FBA8
:1032F00002F0FAFD02F068FF06F0DEFF02F0E2FFE6
:1033000005F0FAF907F0DEF9BDE8084002F01CBF4D
:1033100008B502F043FDBDE80840FFF739BF00F0F3
:10332000F5B870477047FFF73FBF7047024B03493E
:10333000186800F06BBF00BFE40B0020E80B002012
:10334000036837B523F47F433A4A23F007039342D7
:10335000044664D002F18272934268D1B0F805103D
:103360001B2964D10122344B00791A70002219F014
:1033700093F9054630B3314C3149206802F0BBFE69
:103380003049206802F0B7FE00F08AF800F0BCF87F
:103390002D4B2E4A00932E493F23206802F0ABFEAE
:1033A0002B462C4A2C49206802F0A5FE284600F046
:1033B000D3F82A49206802F09EFE2149206802F0D5
:1033C0009AFEFEE7207919F03FF9054600282ED035
:1033D0001A4C1B49206802F08EFE1A49206802F040
:1033E0008AFE00F05DF800F08FF8174B174A009343
:1033F00017494323206802F07EFE2B46154A1649E2
:10340000206802F078FE284600F0A6F813492068EC
:1034100002F071FE0A49206802F06DFEFEE7064BDD
:103420001B7823B103B0BDE8304003F01DBE03B0EC
:1034300030BD00BFA0000601281000202C10002085
:10344000D6B60300D9B6030024BB0300B6BA030006
:10345000E7B60300F3B60300F6B603000BB70300AC
:103460000B4B02461B788BB10A4B1B78834234BF4F
:1034700000200120084B1B783BB1084B1B7843FA16
:1034800002F212F0010F08BF002070470120F1E79F
:10349000080C0020090C0020301000200A0C00202D
:1034A00073B503F0D5FB4FF47A740E46054603F06E
:1034B000E9FB0246A5FB0401002304FB061126F0EC
:1034C000EFFD4EF66023B0FBF4F23C21B0FBF3F3CA
:1034D00004FB12040194B2FBF1F4B3FBF1F501FB20
:1034E00014220092054A01FB1533B0FBF2F20448A6
:1034F0000449006802F0FFFD02B070BD80EE3600A6
:103500002C10002044BB030070470000012208B5C6
:10351000074B1A700022074B1A700322064B1A70D1
:103520001F22064B1A7002F0ADFD054B186008BD56
:10353000080C002030100020090C00200A0C00208C
:103540002C100020024B0349186802F0D4BD00BFC4
:103550002C10002057BB030070B50C4C0C490646DC
:10356000206802F0C8FD02F08DFD0546206802F0DB
:103570007DFD3046FFF7E6FF284602F077FD206824
:103580000449BDE8704002F0B6BD00BF2C10002019
:1035900059BB03005BBB03000F207047042208B532
:1035A00011460023012002F0D7F8002008BD08B51D
:1035B00001213A2001F0CAF9FFF70AFEBDE80840F0
:1035C00000F008B801213A2001F0C0B9082000F04D
:1035D000EBB900002DE9F047434D88B001AC0FCDA9
:1035E0000FC495E80700012584E8070001213A206F
:1035F00001F0ACF9DFF8FC800121282001F0A6F9E8
:103600003A4B404601A903938DF8125002F07EFA1E
:103610002B4604220021022002F09EF82A46294669
:103620000023022002F098F802212B4608460422CB
:1036300002F092F804222B461146002002F08CF88A
:103640004FF002132A4C0226C4F83036A3F580331B
:10365000C4F82C361C231027C4F8346604F5005A2D
:10366000C4F81C364FF4487003F0D6FC04F58059BA
:103670001420CAF8107003F0CFFC2320C9F8107092
:1036800003F0CAFCB9214046CAF8107002F09EFA55
:10369000002330461A461946C9F8107002F05CF84B
:1036A000002329461A46304602F056F82B4631468A
:1036B0003046002202F050F800222B46104604212A
:1036C00002F04AF8404602F0F3F900212820C4F83D
:1036D0003016C4F82C16C4F83416C4F81C1601F0C1
:1036E00035F908B0BDE8F08760BB030000127A002E
:1036F00000C0035000C00550FEE7000008B500F010
:103700002DF8124B12498B4212D30020114B124953
:103710008B4218D3FEF738FD186850F822405868DD
:1037200040F82240013298688242F5D30C33EAE730
:103730000022F8E71C6844F8220001325C68A242CB
:10374000F8D30833E4E70022F8E700BF08070400D5
:103750001407040014070400140704004FF4004188
:103760004FF0FF30124B134A10B59A60D3F88820FF
:1037700042F47002C3F888200F4A916601F1884133
:1037800001F5005210664FF6DF7050660220C3F854
:10379000D000BFF34F8FBFF36F8F08244FF4403337
:1037A0000648C0F88041D36004600B6110BD00BFC3
:1037B00000ED00E0002001000090005000E100E07A
:1037C000014B1868704700BF100C0020084B1B6F9E
:1037D00003F00703022B04D0032B05D0012B05D0E7
:1037E000FEE7044B18687047034BFBE7034870473C
:1037F00000800050100C0020140C0020002D31011E
:1038000008B5FFF7E3FF054B1B6FC3F30333013329
:10381000B0FBF3F0024B186008BD00BF0080005001
:103820000C0C00200048704700B4C404014B186819
:10383000704700BF140C0020054B1860054B1B6F30
:1038400003F00703032B01D1FFF7DABF704700BF76
:10385000140C002000800050002070470048704782
:10386000002D31014FF4004070474FF47A707047DB
:10387000014B1868704700BF180C00200020836AB5
:1038800010B5B3F5903F0AD2064C227812F0FD0F26
:1038900004D1DB69984708B90123237010BD4FF4A8
:1038A0008170FBE7311000204FF00053074A1A6087
:1038B000BFF34F8F0649074BCA6802F4E062134317
:1038C000CB60BFF34F8F00BFFDE700BF02020FF0D8
:1038D00000ED00E00400FA05002303607047036870
:1038E0000B6001607047000005490A68131805481D
:1038F00083428CBF4FF0FF320B601046704700BF11
:103900001C0C00200080002008B501213A2001F0A5
:103910001DF8032101230422002001F01DFF0020D7
:1039200001F0C1FE0122194B4FF46070C3F844242A
:1039300001F02EF8164B00F5D520D3F8F02000F258
:10394000FC4042F00102C3F8F020D3F8FC2042F022
:103950008072C3F8FC200F4AA3F55D431A600E4B3A
:103960000222B0FBF3F00D4B01381861C3F8F020D0
:103970004FF48072C3F804234FF06043084A0020DC
:10398000C3F8B02F074AC3F8802E08BD00D00350FB
:1039900000ED00E0FF030040F8590D00000004E0D6
:1039A00055CEACC5090001004FF060420123D2F8AA
:1039B000001E03FA00F00843C2F8000E0020704712
:1039C0004FF06043D3F8802E30B5D20715D50124CF
:1039D0000B4D8440D5F8FC2042F08072C5F8FC20E5
:1039E000D3F8002E2243C3F8002E53F82020002ADB
:1039F000F0D003F82010002030BD1120FCE700BFFC
:103A000000ED00E02DE9F04F9A46564B85B01B784B
:103A100006460F461546DDF83C909DF844B0DDF8AB
:103A20005080002B00F08D80072A00F28C800E9BC6
:103A3000002B00F08880B9F1000F00F08480129B09
:103A4000B3F5006F7FDC012802D1109B002B7AD0E8
:103A5000454B03EB05131B7B002B76D0434C102208
:103A60000021684626F033FD04EB45141022002F98
:103A700059D13946204626F02AFD43F210036380CF
:103A8000BBF1000F03D1E37843F00303E370374A3F
:103A90000E9B02EB451CCCE90193129B6901013B93
:103AA000C3F30A009DF84C30012E03F003034FEAE4
:103AB000836343EA001E53582D48CDF800A000EA66
:103AC00003004EEA0003535041D113230CF1100EB2
:103AD000CCF80C309CE80F008EE80F006FF003016B
:103AE000DCF81C20109B61F39F02012FCCF81C20F6
:103AF000CCF8143003D1CCF81890CCF8043000275F
:103B0000194A290102EB051342F80180159A28464B
:103B10005A60694622469F605E7301F0B9FE3846DE
:103B200005B0BDE8F08F0021204626F0D0FC4FF410
:103B300044736380BBF1000FA9D1E37843F03003F5
:103B4000A4E70C48ECE70C48EAE70C48E8E7B8F1D2
:103B5000000FD4D19CF8023068F304138CF80230C3
:103B6000CDE700BFB411002034100020B4100020B5
:103B70000F80FFF3028000F0018000F0078000F06A
:103B800038B5124B05461B78DBB1E0B101F0DFFB25
:103B90000F4A00231146147B54B92B6001251A01EA
:103BA00001EB03131D738C5001F0D7FB204638BD89
:103BB0000133082B02F11002EDD101F0CEFB0548D4
:103BC000F5E70548F3E70548F1E700BFB411002029
:103BD00034100020048000F0028000F0018000F02A
:103BE000154B13B51868002301908DF8043001F0CF
:103BF000AEFB124B1C7824B101F0AFFB104802B0B1
:103C000010BD01221A7001F0A8FB0E4B01A81C7315
:103C10001C7783F82C4083F83C4083F84C4083F8B1
:103C20005C4083F86C4083F87C4008238DF80730B3
:103C300001F0FCFD2046E2E7CCBB0300B4110020FC
:103C4000038000F03410002010B588B00E9C009264
:103C500007940D9C024606949DF8304005940B9CF9
:103C600004949DF8284003940024CDE901342046B3
:103C70000B462146FFF7C6FE08B010BD10B588B050
:103C80000E9C009207940D9C024606949DF83040CD
:103C900005940B9C04949DF8284003940024CDE9DE
:103CA000013420460B460121FFF7ACFE08B010BDE1
:103CB0002DE9F843174B1F6D5B6D1F4000D5FEE7E4
:103CC00001260025144CDFF85480DFF85490374269
:103CD00017D02368C8F850609BB1A168284601310D
:103CE0006268A1609847637B012B0AD148B909EB50
:103CF00045131A7B60F341021A731A7F60F3410285
:103D00001A770135082D4FEA460604F11004DED17A
:103D1000BDE8F88300000450341000200020045057
:103D2000B410002070B5044601250B4E04B970BDD7
:103D300094FAA4F0B0FA80F005FA00F306EB001252
:103D400024EA03045368002BF0D0117B11B1916871
:103D50009847EBE79847E9E7B811002008B5192024
:103D600001F0FEFA28B14FF00072074BC3F8802132
:103D70001A601A2001F0F4FA28B14FF08062024B69
:103D8000C3F880211A6008BD00E100E038B505469F
:103D90000C4601F0DCFA0022044B03EB05135C60D7
:103DA0001A73BDE8384001F0D8BA00BFB81100203E
:103DB000074BD3F82404D3F8202403F50053104014
:103DC00000F0553020F05020C3F82004FFF7AABFC0
:103DD00000C00350074BD3F82404D3F8202403F584
:103DE0000053104000F0AA3020F0A020C3F82004B7
:103DF000FFF798BF00C00350024B1968024B1868C8
:103E00001EF066B9240C0020200C00207047000032
:103E100037B5920004460D46019227F0EDFB431C96
:103E20000BD060B929462046019A26F019FB0028DC
:103E3000044808BF002003B030BD0348FBE7034837
:103E4000F9E700BF10E000F021E000F024E000F00E
:103E500013B5044601A801F009FE9DF806300122C1
:103E600023804FF4807300206380054B9B680A33E6
:103E700003F01F0302FA03F3636002B010BD00BF3A
:103E80000080E00F01F062BD08B501F04FFD002099
:103E900008BD10B5044644EA010313F003030846C5
:103EA00009D1934201D1002010BD54F8231040F8ED
:103EB00023100133F5E72146920026F0E1FAF2E7FC
:103EC00010B5044627F090FB431C15D0B0B90C4B3D
:103ED00020469B680A3303F01F020123934023F01E
:103EE00003032344984201D1002010BD50F8042B55
:103EF0000132F7D00348F8E70348F6E70348F4E750
:103F00000080E00F0EE000F021E000F024E000F07F
:103F100008B501F015FA014B186008BD481A0020D9
:103F2000014B186801F010BA481A00200A460139FE
:103F3000014402F023BA0123816480F854307047B1
:103F400038B50546B0B1B9B1B2B1B2F5006F13DC06
:103F500001F0FDF995F84C3003F0FF041BB101F0BE
:103F6000FCF9064838BD012385F84C3001F0F5F91D
:103F70002046F7E70248F5E70248F3E7032000F0A0
:103F8000012000F0022000F010B50446152001F0D9
:103F9000F5F930B994F85430002BFBD005E0FFF769
:103FA00087FE94F85430002BF9D010BD70B505464B
:103FB00001F0CDF9AC6D0646013CAC654CB901F0A1
:103FC000BFF905462146012002F0C8FA284601F053
:103FD000BBF93046BDE8704001F0BFB938B51446B2
:103FE00001F0B5F90023A36484F84C302364237FE7
:103FF0000546012B03D104F1600002F09BFD636BC9
:104000001BB100212046E26B9847284601F0A5F934
:104010002046FFF7CBFF012038BD70B5044601F004
:1040200096F9A36D05464BB901F08AF901210646C0
:10403000084602F093FA304601F086F9A36D28464F
:104040000133A365BDE8704001F087B92DE9F04365
:1040500090460022436390F85C300446894687B05E
:1040600080F85420C0F83C8043BB4FF4406346695D
:104070000568092E6B6124D9012605F12C0744350A
:104080002046FFF7CAFF154B4A46CDE902630123DC
:10409000216B0093A06A3B460494CDF80480FFF79F
:1040A000EDFD00232A46CDE903330093CDE90186D7
:1040B000E16A606A04F11803FFF7C6FD07B0BDE8C6
:1040C000F083A6F109030BBF05F1200705F12407D2
:1040D00038353C355E425E41D2E700BFDD3F01002E
:1040E0002DE9F0471F46002388B080F85430109B1C
:1040F0000446436390F85C308846C76353BB4FF473
:10410000406346690568092E6B6126D9012605F1D1
:104110002C0944354FF0010A20460792FFF77DFF36
:10412000144B079ACDE90263216B4B46A06A0494B5
:104130000197CDF800A0FFF7A1FD00232A46CDE9A5
:104140000333CDE901764346E16A606ACDF800A009
:10415000FFF77AFD08B0BDE8F087A6F109030BBFB1
:1041600005F1200905F1240938353C355E425E41F0
:10417000D0E700BFDD3F01002DE9F04717460022E0
:10418000436390F85C300446884686B080F854203B
:10419000C7634BBB4FF4406346690568092E6B61EA
:1041A00025D9012605F12C0A44354FF00009204697
:1041B000FFF733FF144B216BCDE9026304F13802A2
:1041C0005346A06A04940197CDF80090FFF756FD7E
:1041D00001232A460093CDE903994346CDE90176B0
:1041E000E16A606AFFF730FD06B0BDE8F087A6F12E
:1041F00009030BBF05F1200A05F1240A38353C35C7
:104200005E425E41D1E700BFDD3F01002DE9F04194
:1042100004468B4F8AB003AE0D460FCF0FC697E80A
:10422000070086E80700002C00F008811DB98548CA
:104230000AB0BDE8F08180220021204626F047F92F
:104240002B68814A934240F0B180282222654FF4C6
:1042500080224FF000087D4FC4E90B7226462F469E
:1042600046F8043B0FCF0FC697E80F0086E80F0013
:104270006B7E012B08BF8DF81A30AB7E33B1012B5A
:1042800040F0A2804FF40073ADF81C302B7E01216A
:10429000012B03BF00238DF819304FF47A73EB68BC
:1042A0003A20059300F052FB0121206D00F04EFBF7
:1042B0002B691A1F0C2ABAD8033B286803A98DF86A
:1042C000183001F023FCAB6923F47F0323F47F4310
:1042D00023B92268936843F4803393602B7A28795A
:1042E000697940EA03406B7AAA7941EA0341AB7AE3
:1042F000EE7E42EA0342564B4FEA48184344002EF2
:104300006DD11D26C3F81C66C3F83406C3F82C16FD
:10431000C3F83026E97AEA7942EA0142C3F8202656
:10432000E37BE27A84F84530237F207A677AA57AA6
:10433000217B94F80D80A67B84F84420002B58D173
:104340000422019301F008FA019B012241463846FC
:1043500001F002FAA27F3146012A8CBF0123019BA2
:104360000422284601F0F8F9E37F3BB90123042237
:1043700094F8451094F8440001F0EEF900F0E7FFDE
:10438000344B1A78002A4ED101221A7000F0E5FF52
:1043900002F096FBFFF724FC002104F12400FFF754
:1043A000EFFB0146002841D02B4841E72B4A9342BE
:1043B0007FF43DAF292222654FF4A02228484FF018
:1043C0000108C4E90B0249E7022B02D14FF48073C4
:1043D0005AE7032B7FF42BAF4FF4407354E71C25AF
:1043E000C3F81C56C3F83406C3F82C16C3F830269D
:1043F00096E70023012201F0AFF900230422414691
:10440000384601F0A9F9A37F0222012B94BF0023B3
:1044100001233146284601F09FF9E37F002BADD1FF
:1044200001230222A4E700F098FFB3E704F128007B
:10443000FFF7A6FB00283FF4FBAEB5E70948F7E617
:10444000F4BB0300022000F000C00550020004008D
:1044500000C00350FC1A0020092000F000000650A4
:1044600002000500012000F070B5037F0446012B17
:104470000D4616460DD0FFF763FD48B93246294672
:104480002046054BFFF7E2FD2046FFF77DFDA06CBF
:1044900070BD0248FCE700BF373F0100082000F074
:1044A0007FB51546027F0446012A0E4613D01A46F0
:1044B0000393FFF745FD60B97DB1094A31462046B7
:1044C000039B00922A46FFF70BFE2046FFF75CFD98
:1044D000A06C04B070BD0348FBE70348F9E700BFD8
:1044E000373F0100082000F0022000F070B5037F84
:1044F0000446012B0D4616460DD0FFF721FD48B9A5
:10450000324629462046054BFFF736FE2046FFF788
:104510003BFDA06C70BD0248FCE700BF373F0100C7
:10452000082000F0034B5A6812B19A6A002AFAD1A7
:10453000704700BF00400650024A936A0342FCD114
:10454000704700BF0040065038B543680146B3FAD3
:1045500083F3C3F11F04134B5B680BB1FFF7E2FF5A
:104560000125114B20205D60FFF7E6FF0B7A0D4817
:10457000002B14BF022200224B7843EA041313439A
:1045800083604B7A002B14BF022200228B7A1343E4
:104590004362064B5D600B7813B1FFF7C3FFC56044
:1045A00038BD00BF00400650006006500050065065
:1045B00008B501462020FFF7BFFF0B4B5A6802B930
:1045C00039B15B680BB1FFF7ADFF19B1074B0122A1
:1045D0005A6008BDFFF7A6FF0222034BDA60FFF71F
:1045E000A1FF034BF3E700BF004006500050065008
:1045F0000060065008B51020FFF79EFF024B1963BC
:10460000BDE80840FFF798BF0040065008B5FFF727
:1046100089FF02230449CB6000230B62FFF782FF6E
:104620000123CB6008BD00BF00400650044BD3F807
:104630008420D206FBD4D3F88400C0F381107047E5
:104640000040005038B5104B0546D3F820310C46D9
:1046500003F00303022B0BD0032B0DD0012B0FD142
:10466000FFF7AEF8052305B1286004B1236038BD1B
:10467000FFF7DCF80323F6E7FFF7F0F80223F2E791
:1046800000231846EFE700BF0080005073B50D46C9
:1046900000210E4B0191D3F88041064604F003043B
:1046A000012C09D0022C0CD00C460EB1019B3360BA
:1046B00005B12C6002B070BD01A8FFF7C3FF0F2445
:1046C000F3E7FFF7CBF80190EFE700BF0080005061
:1046D00038B5174B0546D3F824310C4603F00703D1
:1046E000013B052B20D8DFE803F0030F171B0B134A
:1046F000FFF766F8052305B1286004B1236038BDD3
:10470000FFF75EF80623F6E7FFF790F80323F2E7DA
:10471000FFF78CF80423EEE7FFF7A0F80223EAE79F
:10472000FFF79AF80723E6E700231846E3E700BF00
:104730000080005038B5104B0546D3F840310C4688
:1047400003F00303022B0BD0032B0DD0012B0FD151
:10475000FFF788F8092305B1286004B1236038BD4C
:10476000FFF786F80823F6E7FFF77FF80B23F2E759
:1047700000231846EFE700BF0080005038B5134B08
:104780000546D3F800320C4603F00703013B032B28
:1047900018D8DFE803F0020A0E12FFF763F80923C6
:1047A00005B1286004B1236038BDFFF761F8082324
:1047B000F6E7FFF75AF80B23F2E7FFF721F80E238D
:1047C000800AEDE700231846EAE700BF00800050AA
:1047D00038B5104B0546D3F840320C4603F00303BE
:1047E000022B0BD0032B0DD0012B0FD1FFF73AF882
:1047F000092305B1286004B1236038BDFFF738F8FC
:104800000823F6E7FFF731F80B23F2E700231846F9
:10481000EFE700BF0080005038B5104B0546D3F8D5
:1048200060310C4603F00303022B0BD0032B0DD099
:10483000012B0FD1FFF716F8092305B1286004B149
:10484000236038BDFFF714F80823F6E7FFF70DF8EB
:104850000B23F2E700231846EFE700BF008000506B
:1048600010B40D4C0B46D4F8204204F00304012C84
:104870000AD0022C0CD008B1002101600BB100223B
:104880001A605DF8044B70475DF8044BFFF7DABE21
:104890005DF8044BFFF74EBF00800050B0F5207F5D
:1048A0001FD009D8B0F5007F15D003D868B1B0F596
:1048B000C07F0AD000200CE0B0F5607FFAD10B4B2E
:1048C000D3F88000C0F3011003E0084B186FC0F369
:1048D000033001307047054BD3F89000C0F30460FB
:1048E000F7E7024B186FC0F38020F2E7008000501A
:1048F0004FF400320E4B014610B500209A66FFF7C8
:10490000CDFF41F6713248430A490B4B88428CBFB8
:104910004FF480100020DC69DA639A6822F44012B8
:1049200002439A60E20344BF0022DA6310BD00BF75
:1049300000900050005A62020000035008B5FEF7D4
:1049400071FFBDE808400021FFF7D2BF420910B552
:1049500010D0012A10D00B4B0B4C022A18BF234653
:1049600000F01F0051B103F58053012202FA00F05C
:10497000186010BD1346F3E7044BF1E703F500534D
:10498000F3E700BF688000506082005064800050F0
:104990001FB5002380280446019371D02AD800282F
:1049A00072D0A0F12004412C32D8412C30D8DFE85D
:1049B00004F06B6E6B6E7D7D7D7D6E6E873C9D62BF
:1049C0003C6E6E6E2F2F2F2F2F2F82546E6E6EA780
:1049D000A26E2F2F2F2F2F2F2F2F2F2F2F2F2F6BF9
:1049E0002F6B6B6B7D2F2F2F2F2F2F2F2F2F2F2FD5
:1049F0002F2F6B6BB0F5806F58D021D8B0F5007FAA
:104A00004FD008D8B0F5807F5FD0B0F5C07F3BD0E5
:104A1000019804B010BDB0F5607F42D0F8D8B0F571
:104A2000207F34D0B0F5407FF2D1FEF7E9FE024698
:104A30004FF42070FFF732FFB2FBF0F0400821E0A6
:104A4000B0F5C06F52D00DD8B0F5A06F33D0B0F52F
:104A5000B06F35D0B0F5906FDAD1002101A8FFF723
:104A600037FED5E7B0F5E06F45D0B0F5F06F47D031
:104A7000B0F5D06FCCD1002101A8FFF77FFEC7E7CA
:104A8000FEF7A4FE0190C3E7FEF7BAFEFAE7FEF7D1
:104A9000B7FE02464FF42070FFF700FFB2FBF0F0C4
:104AA000F0E7FEF793FE02462046F5E7002101A855
:104AB000FFF7C8FDACE7002101A8FFF7D1FEA7E78B
:104AC000002101A8FFF7E2FDA2E702934FF0E023E7
:104AD0001B695B0705D5FEF793FE0290029B0193CD
:104AE00096E703A902A8FFF725FEF7E7002101A832
:104AF000FFF720FE8CE7002101A8FFF769FE87E79A
:104B0000002101A8FFF788FE82E7000008B5802099
:104B1000FFF73EFF034B98429EBF4FF48032024B9B
:104B20001A6708BD005A620200A000501FB500239A
:104B3000B0F5807F019377D028D8382800F0948092
:104B40000BD82438092810D809280ED8DFE800F03F
:104B5000676767670D0D620D377D52285FD008D8F3
:104B60003D283BD03E2800F08480019805B05DF8D8
:104B700004FB8028F9D1414B1B6F03F00703013B75
:104B8000032BF2D8DFE803F044413F6CB0F5D06F5F
:104B90005BD019D8B0F5A06F66D00AD8B0F5806F99
:104BA0003DD0B0F5906FE0D1002001A9FFF790FD56
:104BB000DBE7B0F5B06F2DD0B0F5C06FD5D10020D8
:104BC00001A9FFF7B7FDD0E7B0F5006FECD00AD828
:104BD000B0F5E06F4DD0B0F5F06FC6D1002001A95F
:104BE000FFF71AFEC1E7B0F5086FBED1234BD3F82B
:104BF000003103F00303022B2CD0032B2ED0012B0A
:104C000030D1FEF713FE032300E005230193ACE748
:104C10000223FBE7002001A9FFF738FDA5E70020EC
:104C200001A9FFF70FFDA0E702934FF0E0231B69F6
:104C30005B0705D5FEF7E4FD0C230393039BE5E733
:104C400003A902A8FFF776FDF8E7002001A9FFF706
:104C500095FD8AE7FEF70CFE0823D7E7FEF7FCFD7B
:104C60000723D3E70123D1E7002001A9FFF7F8FDCF
:104C70007BE7002001A9FFF7ABFD76E7008000503D
:104C800008B5FFF753FF082811D00938012811D8BB
:104C90004FF40012094B4FF6FF705A6603F5D833F4
:104CA0005B6A13F0010F18BF4FF4FA7008BD044B94
:104CB0001888FBE74FF6FF70F8E700BF0090005040
:104CC000440C002070B504468020FFF72FFF032816
:104CD00000F082804FF40022444B02215A6645F6D0
:104CE0000E03434AC2F88030424B9962012103F51A
:104CF00080539962936DD903FCD4D4E900131B054A
:104D000043EA0163E17B94F822500B43217B94F842
:104D1000236043EA0143617B43EA0133A17B43EA19
:104D2000811313619169D4E904031B0643EA80638C
:104D300001F000410B43A17EE07E0B43217E43EA5C
:104D40000143617E43EA01239361E369126A002B08
:104D50000CBF0021082122F00D0242EA030242EAC0
:104D60008002234B42EA01021A6294F820204FEAA3
:104D7000421232D1986A94F8211020F0330042EAAE
:104D80000112024342F001029A621B4A996D32EA13
:104D90000101FBD1022217498A621A659A6D5200FD
:104DA000FCD41869A26820F4700040EA02504FF069
:104DB000004218610F4B9A611DB9022203F580531E
:104DC0009A6216B901220D4B9A6294F824301BB1F5
:104DD000074B0B4AC3F8802070BD996A21F033015C
:104DE00031430A4342EA4502EEE700BF009000501B
:104DF00000C0005000D000500300014000E000500F
:104E0000F1A7FFFF014B93F900007047FD1A002046
:104E1000F0B5D0E901434FF480061A4A417805788D
:104E200056664FF4D156022702F5B8325662164E36
:104E30004F2977604FF0010728BF4F2106F58056B4
:104E400077601669F603FCD441EA052151611B0124
:104E5000417B43EA04230B43017B43EA4103936014
:104E6000C37B817B1B0143EA4113417C0B43017CE3
:104E700043EA41035360837C13B16FF4D15353620F
:104E8000F0BD00BF0090005000100250014B188090
:104E9000704700BF440C00204FF4001208B5184BB7
:104EA0005A660223174A5360936813F48033FBD188
:104EB000012822D1FEF7BAFC134B984215D003F516
:104EC000122303F5F863984213D0104B00EB8002D5
:104ED000400AB3FBF0F0520A0A4BDA62012218636F
:104EE0005A620022074B5A6008BD45F67A10084AFC
:104EF000F2E745F61A00074AEEE75362F1E700BF12
:104F0000009000500040025000F04902646666665E
:104F1000D8B80500BBCF05000029CCBF0121002176
:104F2000FFF7E6BCB0F5207F10B50C4642D008D89C
:104F3000B0F5007F33D003D888B1B0F5C07F0ED074
:104F400010BDB0F5607FFBD11F4B013CD3F8801042
:104F500021F0300141EA0414C3F88040F0E7FFF784
:104F6000EDFC00F035F84FF48031184A164B11670C
:104F7000196F013C21F4704141EA04341C67FEF7CB
:104F80003FFC0446FFF752FBC0F102012046FFF749
:104F9000C3FF00F023F8BDE81040FFF7B7BD0A4B90
:104FA000013CD3F8901021F0F85141EA0464C3F8B1
:104FB0009040C5E7044B013C196F21F4806141EA40
:104FC00084241C67BCE700BF0080005000900050A4
:104FD00002214FF42070FFF7A5BF000008B54FF481
:104FE000C070FFF7D5FCBDE80840044988428CBF7B
:104FF000022101214FF42070FFF794BF80F0FA02E4
:10500000B0F5807F70B50C4600F0F88029D83828BC
:1050100000F04B8110D82438092816D8092814D854
:10502000DFE810F0DC00DC00DC00DC001300130023
:10503000CD00130047003301522800F0CF8005D87F
:105040003D2851D03E2800F0418170BD8028FCD120
:105050008B1E052B00F2B080DFE803F0AB99AE6940
:10506000AEA8B0F5D06F00F0108132D8B0F5A06FC7
:1050700000F01B8116D8B0F5806F00F0AF80B0F55E
:10508000906FE2D1023C052C8CBF0021974B984ACF
:1050900098BF195DD2F8243123F007030B43C2F8FF
:1050A0002431D2E7B0F5B06F00F08980B0F5C06F61
:1050B000CBD1083C032C8CBF00218E4B8C4A98BF6F
:1050C000195DD2F8403123F003030B43C2F840319D
:1050D000BBE7B0F5006FD5D016D8B0F5E06F00F0A3
:1050E000F580B0F5F06FB0D1083C032C8CBF0021E7
:1050F000814B7F4A98BF195DD2F8603123F00303DA
:105100000B43C2F86031A0E7B0F5086F9DD1CC1E0B
:10511000052C8CBF0021794B754A98BF195DD2F8D8
:10512000003123F003030B43C2F800318DE7002563
:1051300002260121022000F0A5F9FFF7FFFBFFF78F
:1051400047FF4FF480316E4B694A1967136F23F0A4
:10515000070333431367FEF753FB0646FFF766FA70
:10516000C0F102013046FFF7D7FE0121002000F018
:10517000C9F9FFF733FFFFF7C9FC002D7FF465AFD6
:10518000032C7FF462AF01225E4B9A625DE74FF41D
:1051900000225B4B0E465A66012203F540539D6A7E
:1051A00003F58053C5F340059A62C2E70025042643
:1051B000BFE700250126BCE700252E46B9E7022CF3
:1051C00003D0A4F10F0044424441494BD3F880116D
:1051D00021F003010C43C3F8804136E7023C032C65
:1051E0008CBF0021484B424A98BF195DD2F820314C
:1051F00023F003030B43C2F8203126E7A1F1080492
:10520000082C3FF622AF01A353F824F031520100DD
:10521000315201004B500100315201005F52010038
:105220004B5001004B5001004B5001003152010026
:105230004FF480322E4B3549586E03F580535A6631
:105240000B6A43F001030B62C1035CBF304B5A662B
:105250004FF0E022136923F004031361F5E64FF4E5
:105260008032234B2949586E03F580535A660B6AE6
:1052700023F001030B62C3035CBF254B5A664FF05A
:10528000E022136943F00403E7E7083C062C8CBFD7
:105290000021204B164A98BF195DD2F8003223F046
:1052A00007030B43C2F80032CFE60F2C0CD0102CB2
:1052B00014BF002102210E4AD2F8203223F003034A
:1052C0000B43C2F82032C0E60121F4E7083C032C6E
:1052D0008CBF0021104B064A98BF195DD2F84032AE
:1052E00023F003030B43C2F84032AEE618BC0300C0
:1052F0000080005014BC030014BC030025BC030054
:105300000090005000E0005010BC030000C00750A7
:1053100000A000501EBC030014BC03000028ABBF5B
:1053200000F16040054B00F5614000F00F00ACBF9C
:1053300090F80003185C0009704700BF14ED00E00E
:10534000EFF3108072B6704700B962B67047EFF3A2
:105350001180302383F31188704780F311887047E0
:10536000054B420953F8223000F01F0023FA00F0E9
:10537000C04300F00100704700E100E0014608B5BD
:10538000EFF31083DB0702D50122104608BDFFF7BB
:10539000E7FF02460028F7D10846FFF7BFFF0146A6
:1053A000EFF3118313B1B0EB131FEDD2074B5B6822
:1053B000C3F30803002BE8D0103B58B2FFF7AEFF51
:1053C00088428CBF00220122DFE700BF00ED00E031
:1053D000194B10B51B6873B3184A5268012A2AD0BA
:1053E000174A8020C2F80031FFF7A0FB05281FD123
:1053F0004FF4C070FFF752FA0128044604D102218D
:105400004FF4C070FFF78EFD07220E4B1A61012288
:10541000A3F580535A60094A1369DB07FCD5012CB8
:1054200009D12146BDE810404FF4C070FFF77ABDA6
:105430000122054B5A6010BD001B002000C0015026
:105440000080005000E0015000D00150044A417833
:10545000536F23F4407343EA01235367704700BF3F
:1054600000400050FFF7B4BF034A0179D36E23F028
:1054700030030B43D36670470040005070477047BD
:1054800070470000F8B504461C4BD3F88420D106C1
:10549000FBD4D3F88430C3F381139C422CD0FEF7A5
:1054A00095F9012C064602D12146FFF735FDFFF79D
:1054B00047FF4FF00072124B07465A662046FFF72F
:1054C000DFFF4FF480630D4D621E93402B676B6EC0
:1054D0009A0103D4D5F884309B060AD53846FFF7E5
:1054E00033FF022C08D13046BDE8F8400021FFF719
:1054F00013BDD5F88430EAE7F8BD00BF0040005086
:105500000060005007B518B90191FEF75FF90199E5
:10551000064B1B7843B1064B984205D8012003B0D7
:105520005DF804EBFFF7AEBF0220F8E7041B002094
:10553000005A62020278034B012100201A70FFF723
:10554000E1BF00BF041B00204FF0004210B5012452
:105550004AF6CD31154B5A66154A03F50B235460B4
:105560005A6C1964224088B9996811F0010F1149E9
:1055700003D08C60D86AC007FCD501234B6012B100
:105580000D4B0E4A1A641DF0E6FE10BDD96A0907DC
:10559000FCD42021074B59620121A3F58053996067
:1055A00005494B6A9B06FCD5E9E700BF0090005017
:1055B0000050095000600950004009503254FFFF6C
:1055C0004AF6E85370B50F4C0221E56EE66E802076
:1055D000236625F0030545F00205FFF711FD46F0AF
:1055E00003060020FFF7B0FFFFF748FFFFF747FF74
:1055F000E566E666E566E666E566E666E566E6664F
:10560000E56670BD004000504FF0004238B5194BC0
:10561000194C5A66012203F50C235A604AF6CD3321
:10562000656C23644378154093401343134AD36356
:10563000A368827823F0740343EA0213C278002A35
:1056400014BF042200221343A3600279837943EA42
:10565000022323614279C37943EA0223636100781C
:10566000FFF772FF0DB1064B23641DF074FE01209D
:1056700038BD00BF0090005000400950004000506D
:105680003254FFFF70B5054614460E46FFF758FE2C
:10569000296881EA040202EA06044C402C60BDE855
:1056A0007040FFF751BE7047072AF7B501F00306B7
:1056B00014461F464FF003012CD89500A94000FA6C
:1056C00005F21C480191FFF7DDFF01991A4806FA1F
:1056D00005F2FFF7D7FF194B19499DF82000002F5D
:1056E00008BF1946012303FA04F40C60154B164950
:1056F000002808BF0B461C60144B9DF82400C3F81B
:1057000020441031A3F6DC33002808BF0B461C6090
:1057100003B0F0BDA2F10805AD00A94000FA05F202
:105720000B480191FFF7AEFF01990A4806FA05F20E
:10573000CFE700BF00C4035008C4035010E4035077
:1057400010D4035014D4035014E4035000E0035069
:1057500004C403500CC40350F8B504460D461F465C
:1057600016464AB101238B403021194A01FB002221
:10577000FFB141F21001535004EB4403072D4FF0E9
:105780000F014FEA031317D8A80006FA00F2814070
:1057900010481844FFF776FF56B9012130230C4812
:1057A00001FA05F503FB040077B141F21003C5507F
:1057B000F8BD42F21001DEE7A5F10800800006FA0C
:1057C00000F281400448E4E742F21003EFE700BF33
:1057D00000C0035004C003500CC00350104B0140E4
:1057E000D3F8302422EA0002C3F83024D3F830245E
:1057F0001143C3F83014D3F82C240243C3F82C24EB
:10580000084AD36E03F03003202B1FBFD36E23F062
:10581000300343F01003D366034BC3F820047047F2
:1058200000C003500040005000E0035010B50121BB
:1058300004462020FFF78AF801212120FFF786F88F
:105840000122114B5A60227812069A606178A27880
:1058500042EA01429A61FF229A6200229A631A6424
:105860004FF000425A654FF0FF324FF4001103F53C
:1058700000531A65054AC2F88011E3781B01DBB2B8
:1058800082F81533116010BD0000045000E100E003
:105890002DE9F04101250C46C3B2DFF888E0D1F8CC
:1058A00000809D408F7ACB7A94F80DC0097BCEF8AA
:1058B00050500EF5005E4EF820804FF0300E184E1E
:1058C0001B050EFB006043EA074343EA415322F005
:1058D0000302C0F860C0C3650267FFF738FD736D4F
:1058E0002B437365237A13B1336C2B433364637A90
:1058F00013B1B36B2B43B3632279A37943EA024319
:10590000084A93616179E37943EA014306498B616F
:10591000034B55639D64BDE8F041FFF71EBD00BF1A
:105920000000045000200450001004504FF40032D6
:10593000054B9A6641F6713203F51C33DA63012296
:1059400003F50053DA6070470090005041F6713261
:105950000121064BDA6303F50052D1600022DA63BD
:105960004FF40032A3F518339A66704700000350D5
:105970004FF050234FF400321A677047014BD3F8B1
:1059800094007047004000504FF0B0435A6812B185
:105990009A6A002AFAD17047CB784A7810B55B0131
:1059A0000C7843EA82030A79234343EA02130C2268
:1059B000424302F1B0421363012C02BF8A78024BCA
:1059C00043F8202010BD00BFE880035008B54FF019
:1059D000B0435A6802B960B15B680BB1FFF7D4FFFE
:1059E0004FF0B04130B10120074B5860FFF7CCFFBA
:1059F000C86008BDFFF7C8FF0223CB60FFF7C4FFF4
:105A00000122024B5A60F4E70010005800200058B1
:105A10004FF0B0435B6870B50BB1FFF7B5FF0121E4
:105A2000104B4578596083780679002BC37814BFF2
:105A300002240024002B14BF042200224379DB003F
:105A400043EA06132B43234313434FF0B0429360C2
:105A5000054B59600378002B14BF0B460223D3601B
:105A600070BD00BF00200058001000584FF4803275
:105A7000064B5A6603F5E6235B69C3F38512827011
:105A800003F03F021B0B4270037070470090005000
:105A900038B50546144621B94FF42070FEF778FF5B
:105AA000014601396400B1FBF4F10902E96138BD36
:105AB000012200F5805310B55A6040F6AA6341F206
:105AC0000502436100230E498360C365C26000F58F
:105AD00000520361C361C36491640A4983658842CB
:105AE00002D0094CA04207D18842036502D0064B80
:105AF000984201D1002343650123536010BD00BFCC
:105B0000FFFF010000C005500000065038B50D46EB
:105B1000FFF7CEFF0122A97B00F580535A602A8A45
:105B20008368002914BF4FF48061002142F0010214
:105B300013432A7D0B43002A14BF4FF0005200226A
:105B400083608368044613438360AB7C5BB11D4A6A
:105B5000EB7C90422DD1A2F51032C2F88C31E36D6E
:105B600043F08003E3652B7B2046D5E9011243F423
:105B70008053E360FFF78CFF6B7B0BB110236361F5
:105B80006B7D1BB1A36843F48033A360AB7D1BB175
:105B9000A36843F40043A360EB7D2A7E1B07120534
:105BA00003F0E04302F4E0021343A3652B78636142
:105BB00038BD054A904204BFA2F52032C2F89C319C
:105BC000CDE700BF00C005500000065083695A06AB
:105BD000FCD5C16383699B06FCD5406AC0B270479F
:105BE00038B50446054D1DF0DDFB0FCC0FC594E81C
:105BF000030085E80300002038BD00BF081B00201B
:105C000047F6FF739A42F0B563D0022963D8334B4D
:105C1000CF0003EBC10013F831108478012913D1B0
:105C20000025C3781B1B9D4202D3E018C0B2F0BD13
:105C3000591B4668A3EB510136F911609642D4BF57
:105C40000D4601F1FF33EEE740680028EFD0B0F9D0
:105C50000010914204DBB0F902109142B8BF114626
:105C600082883B44FF2A19BFC8222826B0F90620A3
:105C7000B0F90860A2EB01020CBF0125002592FBE0
:105C8000F6F25F782A447B1E934228BF13464FF4F6
:105C90007A7E00EBC305AE68EA88AC4611FB02626F
:105CA0001E4622EAE272013302F5FA729F42B2FB0B
:105CB000FEF204D9BCF80CC008359445EBD200EBD9
:105CC000C6008088904228BF1046A04238BF2046B8
:105CD000ACE7FF20ABE70020A9E700BF081B0020CE
:105CE0000229F0B553D82B4800EBC10410F831104D
:105CF000636801290FD1E078A478904294BFC4EB87
:105D00000001C4EB0201001BCAB28242C8BF0022DC
:105D100033F91200F0BD002B39D0A178914202D3A3
:105D2000B3F90200F6E7E178B3F900009142F1D946
:105D300099886478A1F1FF06013C714203F10405E2
:105D4000E4B2714103F10C071FFA82FCCEB2B442F7
:105D500016D805EBC1014FF47A756A43B1F90240D8
:105D60004968521A04EBD47102EB610292FBF4F21F
:105D70009042CFDBB3F902009042CBDC10B2C9E70E
:105D800037F831E04E1CE645E3D33146DEE7024802
:105D9000C0E700BF081B00200080FFFF08B50448D3
:105DA000FFF71EFFBDE8084001201DF015BB00BF36
:105DB000E0C4030000487047460C002007B56B465E
:105DC000054A1068516803C36846FFF71DFC0020B0
:105DD00003B05DF804FB00BF2BBC0300084A13B5F9
:105DE000536F002423F00103536720236846009477
:105DF0008DF80430FFF738FB204602B010BD00BF1D
:105E00000040005030B58BB06C46154D0FCD0FC41F
:105E10000FCD0FC495E8030084E80300114BD3F8BD
:105E20004C21120314D4D3F85041E4B28DF8194038
:105E3000FEF7E8FF204480F308008DF818000A48B8
:105E4000FDF7FAFC6846FEF73DFF00200BB030BDC1
:105E5000064B1C884FF6FF739C4208BF8C24E5E775
:105E600034BC03000080E00F00F049020001E00FA5
:105E700008B50020FFF710F8002008BD30B5094D27
:105E800087B001AC0FCD0FC42B6801A823603F235E
:105E90008DF80530FEF7BCFF6420FEF7F7FF002009
:105EA00007B030BD5CBC03006FF00402502110B598
:105EB0000A480B4C12F0800FD3B21BBF03F00F0344
:105EC000043BA3181B1802F101020CBF83F8001356
:105ED0001976402AEED1002010BD00BF00ED00E091
:105EE00000E100E000F078B838B500F0E9FD0446C4
:105EF000E0B900F0C7FE4FF4167343430C4803F5B6
:105F0000742303F23F23B3FBF0F30A4A0A491360F8
:105F10000A220D680948013A12F0FF0240F8043BDA
:105F2000F9D103EBC3022B4413440B60204638BD68
:105F300040420F005C1B0020281B00202C1B00206F
:105F4000012208B5034B1A7000F075FE024B186071
:105F500008BD00BF241B0020581B0020F8B5144CBE
:105F6000237823B300F067FE124B134D1B68134ECA
:105F7000C01A012838BF0120114B124F18602B782E
:105F800056F8232046F82300111A3A680E48521A90
:105F90000A213A600932B2FBF1F20133DBB202604E
:105FA000B3FBF1F201FB12332B7000232370F8BD19
:105FB000241B0020581B0020541B00202C1B0020F9
:105FC000201B0020281B00205C1B0020014B1868B0
:105FD000704700BF5C1B002020234FF400220A49B9
:105FE00081F82C33094B5A66094A03F5405303F5EF
:105FF0000050426702674FF48050C1F88401486046
:1060000003445A67704700BF00E100E00090005071
:10601000010000A0044B9A6DD20702D40028FAD1E7
:1060200070470120704700BF00C000500C4B10B5F6
:106030001C6FE20707D5012203F500531A67FFF72B
:106040008DFF00F04BFB14F000521CBF054B1A678C
:10605000002CBEBF4FF00042024B1A6710BD00BFBC
:1060600000C0005000E00050FFF7E0BF10B504464C
:10607000FFF766F9024B1C60FFF766F9002010BDC0
:10608000601B002010B5FFF75BF9034B1C68FFF79E
:106090005BF9204610BD00BF601B002007B530B97A
:1060A000CDE90012FFF7EEFFDDE9001230B14368E1
:1060B00023B1006803B05DF804EB1847232003B058
:1060C0005DF804FB30B51C4685B058B9CDE9001227
:1060D000FFF7D8FFDDE9001204B903AC20B9232093
:1060E00005B030BD03B903AC8568002DF7D0234659
:1060F0000068A847F4E70EB477B507AB53F8046B14
:1061000005460193B0B9FFF7BDFF0446054630468A
:10611000019924F0AFFBAC42064602D02046FFF7BF
:10612000A5FF002ED4BF3720002003B0BDE870408B
:1061300003B07047FFF7A6FF85420446E7D0284624
:10614000FFF794FFE3E7000010B5002400F04EF8DD
:106150000348044B84604360FFF788FF204610BD6E
:10616000681B00206961010007B5044B0093044BD4
:106170001B8800F051F803B05DF804FB641B00209D
:106180004C0C002000207047FEE74FF40053002025
:106190004B607047012070470020704707B5002012
:1061A00001AB0190FFF78EFF0198002808BF4FF068
:1061B000FF3003B05DF804FB10B514460020FFF774
:1061C0006DFF204610BD0000034B0222186800231B
:1061D0008068194624F08ABA5C0D00204FF06042B6
:1061E000D2F8803E1B02FBD47047000008B5074B75
:1061F0001A6842B9012208201A60FDF7D5FB04494C
:10620000044800F049FA002008BD00BF7C1B0020B4
:10621000500C0020741B00202DE9F0470F46154656
:106220001E46002402F1040802F109094FEA132A6C
:106230005FFA88F84C4502D30020BDE8F0871CB314
:10624000012C05D141460820FDF7BAFB0134F1E7E6
:10625000022C1BD0032C01D1F1B2F4E7042C17D08F
:10626000052C04D1089B13F8011B0893EBE7AB1D29
:10627000A3420FD0EB1DA3420CD005F10803A342AB
:106280000AD0BB1F195DDEE75B21DCE7D121DAE72D
:106290005146D8E75A21D6E75D21D4E7BFF35F8F97
:1062A000074B5A6A22F480325A62D3F8942022F0C3
:1062B0000102C3F89420BFF34F8FBFF36F8F704775
:1062C00000ED00E070B52648264CFFF7E7FF84425A
:1062D00008BF4FF08043244A18BF20F01F03D2F8B4
:1062E000C01018BF203B21F0FF0141F0A001B3F125
:1062F000005FC2F8C0100CD31C4D1D4E296843F03E
:106300000103C2F898100131C2F89C60C2F8A030B5
:106310002960844210D01548164B0268124923F0B8
:106320001F0343F00303C1F89820C1F89C30124BBF
:106330000132C1F8A0300260BFF35F8F05220A4B23
:10634000C3F894205A6A42F480325A62BFF34F8FE6
:10635000BFF36F8FBFF34F8FBFF36F8F70BD00BF61
:10636000C00D0020700F002000ED00E0801B002019
:10637000030000208F0F0020E1FFFF3F10B51446FF
:10638000FFF78CFF1F2C24D91C4A1D4CD2F8C030BB
:1063900023F47F4343F48073C2F8C030C2061CBFAD
:1063A00020F01F002030CB06144A236818BF21F0CC
:1063B0001F0120F01F0021F01F01C2F8983040F0AB
:1063C000030041F003010133C2F89C00C2F8A010A1
:1063D0002360BFF35F8F0522084BC3F894205A6AED
:1063E00042F480325A62BFF34F8FBFF36F8FBFF317
:1063F0004F8FBFF36F8F002010BD00BF00ED00E096
:10640000801B0020BFF34F8F0549064BCA6802F47A
:10641000E0621343CB60BFF34F8F00BFFDE700BFC7
:1064200000ED00E00400FA0508B5FFF7EBFF08BD3A
:10643000054B1A782AB95B78002B14BF0220032081
:1064400070470120704700BF981B00200329F8B552
:1064500098BF124B05460E468CBF00245C5C032897
:1064600005D8DFE800F002080B0E44F002040C4BE4
:106470001F684FB9F8BD44F00804F8E744F0200461
:10648000F5E744F08004F2E77B681A68144203D011
:10649000314628465B6898473F68EAE770BC0300CE
:1064A000941B002038B5104D2B78ABB10F4C2378DE
:1064B0001BB100F0D7F900232370002000F0F4F99D
:1064C0000B4C50B100F0FAF90023012120782B7019
:1064D000FFF7BCFF0123237038BD0122054B1A7062
:1064E0002278054B1A70F7E7921B00208D1B0020C5
:1064F000841B0020911B0020A01B002070B5FEF71C
:106500001FFF114E054633788BB900F0D9FA0446C7
:1065100020B12846FEF718FF204670BD0B48FDF756
:10652000DBF90B4B1C6000F0ADFB0A4B186000F070
:106530001DF900F0E1F9084B0024186001232846FA
:106540003370FEF701FFE7E78E1B0020941B00204D
:10655000A41B00209C1B0020881B002000292DE983
:10656000F34114BF0121FF21254A00F1FF30135CE4
:106570000B4413543AD0234E3178012936D9FFF712
:1065800057FF0128044634D81F4FFEF7D9FE3B7849
:106590001BB31E4D2B781BB901222A701C4A1370A5
:1065A000DFF8708098F8003033B1019000F05AF9AC
:1065B0000023019888F80030FEF7C6FE012000F0A5
:1065C00073F9FEF7BDFE2B782BB1019000F076F940
:1065D000002301982B7000233B70FEF7B5FE307846
:1065E000A04203D02146FFF731FF347002B0BDE86E
:1065F000F0810329F3D10228F1D100F097F9EEE7F9
:10660000981B0020841B0020921B00208C1B002064
:10661000911B00208D1B002010B50446FEF790FE54
:10662000002C14BF0121FF21064A13780B44DBB272
:106630001370B3FA83F3BDE81040034A5B0913708B
:10664000FEF782BE9B1B00209A1B002068B5FEF758
:1066500077FE094B06461B78012B04D8FEF774FE23
:106660000025284668BD054B1D6800F049F9054422
:106670003046FEF769FEF4E7841B0020A41B0020CF
:1066800007B5FEF75DFE0190FFF70CFF019803B020
:106690005DF804EBFEF758BE38B541600446FEF7DE
:1066A0004FFE054621460448FDF719F92846BDE886
:1066B0003840FEF749BE00BF941B0020054B1B6805
:1066C0005843054B00F5742000F23F20B0FBF3F077
:1066D000704700BF9C1B002040420F0010B5094BC3
:1066E0001B786BB1084C237853B100F0E7F8002316
:1066F000064A237013700123054A1370054A13706C
:1067000010BD00BF841B0020911B0020921B0020A5
:106710008F1B0020901B00207047000073B5114EA6
:1067200004463378834212D000238DF8043080B1C0
:1067300002238DF8053001A8FEF788FE0A4D40209F
:1067400054B1FFF7BBFF2B68181A2860347002B0F1
:1067500070BD8DF80500EEE7FFF7B0FF2B68184419
:10676000F3E700BF580C0020B01B002073B50024D5
:1067700001A88DF80440FEF7DDFE20464FF400240A
:10678000FFF7CCFF3149324B0A6F02F007021A6063
:10679000D1F82031D1F8240101F580514C664FF435
:1067A00000344C6601F598318969032A00F007002E
:1067B00001F0020141D003F003039C1E63426341D8
:1067C000022808BF43F001032248234D037061B340
:1067D0001E4A3BB9D2F8003103F00303591E4B4265
:1067E0004B410370D2F8003103F00303022B26D093
:1067F000032B27D0012B18D1FDF718F8A8B1174BA0
:10680000411EDC680023024608461946C4F30B0407
:10681000134E013404EB8404E4FB060123F040FC36
:10682000FFF74CFF2B68184428606420FFF746FFF1
:106830002B681844286002B070BD0123C0E7FDF743
:1068400017F8DBE7FDF708F8D8E700BF0080005035
:10685000A81B0020AD1B0020B01B002000C0015071
:1068600040420F0038B50C4B1B786BB10B4C2378B2
:106870007BB90B4B0B4D9A6D12F4803F05D0DB6D4D
:106880009B0702D50123AB6238BDFFF759FB0123FB
:10689000AB6200232370F7E7AD1B0020AC1B002088
:1068A00000C0005000D00050034B1B780BB1FFF725
:1068B000B1BB0120704700BFAD1B002008B5FEF73B
:1068C000D1FD094A0949136F096823F007030B43F7
:1068D0001367074B1B7813B10122064B9A62BDE880
:1068E0000840FCF78DBF00BF00800050A81B0020AF
:1068F000AD1B002000E000504FF4C870FFF7DEBE73
:1069000008B5054B187818B1FFF760FB00EBD00015
:10691000024B1B68184408BDAD1B0020B01B0020B3
:106920000122014B1A707047AD1B00207047000018
:1069300010B500F0C5FA0A4C0A4B19682368C31A4F
:1069400001B10BB9206010BD4A699A423ABF9B1A47
:106950000022D21A4A6128BF00238968F0E700BFED
:10696000B81B0020CC1B0020C38870B504460D4620
:106970003BB9FFF76BFE8542064602D2FFF780FE69
:1069800035460F4965610B68ABB90C60A36011E037
:10699000AD1A9A68184665612AB113465A69AA4227
:1069A000F6D950B11A4613468460A36013B15969F1
:1069B000491B596170BD0020F0E70C60F5E700BF8E
:1069C000CC1B002038B5134D2B685B6993B1124A7C
:1069D000022014681C4400F0ADFA204600F078FA5A
:1069E00000230E492A680B70D088800709D501233F
:1069F0000B7038BD022000F09DFA022000F0BEFAB4
:106A0000EEE79268002AF4D050690344012BEBD9D9
:106A1000EFE700BFCC1B0020B81B0020C01B0020EC
:106A200070B516469DF81420C0E903360271049A29
:106A3000BDF8183002600022C380826004460D4613
:106A400000F03EFA3044A0613DB9E368656113B1DE
:106A500020462168984796B13546FEF771FC0646F8
:106A6000FFF766FF29462046FFF77EFF054B1B68B0
:106A7000A34201D1FFF7A6FF3046FEF765FC0020D8
:106A800070BD00BFCC1B002000220C490B687BB1FD
:106A900083420AD183687AB1936083681BB15A69D3
:106AA00041690A445A61002070471A469B68EEE724
:106AB0000028EFD0022070470B60EEE7CC1B0020CF
:106AC00070B5FEF744FC144E05463478FCB9134B00
:106AD0001C60134B1C60134B1C8000F0AFF90120AD
:106AE00000F028FA00F07CFA0F4B0246186020B93B
:106AF0002846FEF732FC232070BD234640F2E731E2
:106B00000A4823F0CDFA0A4B186001233370284657
:106B1000FEF723FC0020EFE7B41B0020CC1B002075
:106B2000B81B0020C21B0020C81B002018FCFFFF60
:106B3000BC1B00202DE9F0410546F8B1FEF700FC32
:106B40000F4F0646FFF7F4FE2846D7F80080FFF700
:106B50009BFF044628B13046FEF7F6FB2046BDE811
:106B6000F081A8453B6803D123B1FFF72BFFF2E783
:106B7000002BF0D1022000F0E9F9ECE72224EDE748
:106B8000CC1B002070B586B015461E460446059104
:106B900080B1FFF7CFFFBDF82C30002202939DF8A3
:106BA00028302046CDE9006305992B46FFF738FFD2
:106BB00006B070BD2220FBE738B50C46054698B1FB
:106BC00091B100230B70FEF7C2FB0121074B1B683C
:106BD0000BB122781AB1FEF7C0FB002038BDAB42E2
:106BE00014BF9B682170F3E72220F7E7CC1B00203D
:106BF000F0B51F46002387B00D46164604468DF8B3
:106C00001730A0B10DF11701FFF7D6FF9DF817203F
:106C10007AB9BDF83430294602939DF830302046C9
:106C2000CDE900733346FFF7FBFE07B0F0BD22202D
:106C3000FBE70320F9E738B5FEF789FB054600F0CE
:106C40003FF904462846FEF788FB204638BD000081
:106C500070B5FEF77CFB064600F032F9084B04469F
:106C60001D880120ADB200F091F918B100F028F9AB
:106C7000044601353046FEF770FB2046294670BDBC
:106C8000C21B0020014B1868704700BFC81B0020C2
:106C9000044B1B6858434FF47A7300F2E730B0FBA3
:106CA000F3F07047C81B00200C4B70B51B680D46F5
:106CB000834211D340F2E73100248C462146084B31
:106CC0004FF47A721E680023E0FB06C1604623F091
:106CD000E7F92860204670BD2120FCE7BC1B00209E
:106CE000C81B00200F4B10B51A689AB14FF47A7187
:106CF000531E1342A0FB01010ED1B2FA82F2C2F17F
:106D00001F04531CD243E04001FA03F3184321FA55
:106D100002F20243104610BD002323F0C1F90246DF
:106D2000F8E700BFC81B0020C2072DE9F34704465F
:106D30000BD53F4A138801339BB21380FFF7F8FD50
:106D40003C4B1B680BB1FFF73DFEA3076DD5FEF76B
:106D5000FEFA002605463746FFF7EAFDB146DFF8A2
:106D6000D480D8F800400CB163698BB10022324B5B
:106D7000012F1A7002D1022E08BF1F70002C44D0C0
:106D8000FFF720FE284602B0BDE8F047FEF7E5BA5F
:106D900023461A792179914288BF1C469B6813B11A
:106DA0005A69002AF5D02846FEF7D7FA256985B337
:106DB00000F086F8A269861AF317B54279EB03034F
:106DC00028DA23691344A3610123226982B17BB9C4
:106DD000A91B0191FEF7BBFA824601992046FFF7F5
:106DE000C3FDA369226950461344A361FEF7B5FAB7
:106DF000E368E688013713B1204621689847FEF71B
:106E0000A6FA0546FFF794FDABE7022000F09EF8D6
:106E1000B8E72E46FEF79BFA82462046FFF734FE7F
:106E20005046FEF79AFA0023CFE702B0BDE8F0879C
:106E3000C21B0020CC1B0020C41B00201FB5002457
:106E40001C4B012118689A880290D3F806009B7A9F
:106E500000903E20ADF80C208DF80430FDF776FD53
:106E600002A88DF808408DF80C40FEF7D1FD694668
:106E700001208DF80040FEF78FFD4FF0B04240F248
:106E8000FF31936923F47F7323F0030393610A4B6B
:106E90005961936A13F00803FBD113620120FEF7D6
:106EA00095FD4FF48052054BC3F880211A6004B061
:106EB00010BD00BF74BC03000020005800E100E0DA
:106EC0004FF0B0439A6A1207FCD4186A704700006A
:106ED00010B50446FEF734FA4FF0B042936A190732
:106EE000FCD4136A116C5269520604D4CA1A032ADC
:106EF00001D899420ED1E21A022A98BFDC1CB4F1E3
:106F0000FF3F38BF013C4FF0B0431C649A6942F028
:106F100040029A61FEF718FA054A13783BB14FF028
:106F2000B041CB6B43F00203CB630023137010BD61
:106F3000590C002082074FF0B04200F00103916924
:106F400048BF43F040030B4393617047820700F052
:106F500001030AD50121084A43F0400311704FF0A4
:106F6000B041CA6B22F00302CA634FF0B0418A6994
:106F700022EA03038B617047590C0020830742BF4C
:106F80004022014B5A617047001000584FF0B04347
:106F900001285B6904D0022805D1C3F38010704733
:106FA00003F00100704700207047000010B5FEF7A5
:106FB000CEF94FF0B04304465B695A06074A03F026
:106FC000010003F0510348BF40F002005361FFF796
:106FD000ABFE2046BDE81040FEF7BFB900200058C8
:106FE0003E20FDF7D5BC08B5FCF736F9FCF76EF985
:106FF000FCF779F9FCF78CF9BDE80840FCF78FB98C
:1070000008B5FCF78EF9FCF78DF9FCF78CF9BDE8B3
:107010000840FCF78AB9000010B50446FCF7F0FB05
:107020000C4BA0F57A729A4212D84FF47A73B0FBE7
:10703000F3F05C43084BB3FBF0F0B4FBF0F0022834
:1070400006D9BDE810400323B0FBF3F000F008B808
:1070500010BD00BFFFC99A3B40420F000000000076
:10706000013800D0FCE77047FCF71EBC08B504F0FF
:1070700091FE0BF0BFF807F00DFF09F00EF80020AD
:1070800008BD0000024A0349034804F01BBB00BFCF
:1070900080BC0300CCBC0300A4BC030038B504468C
:1070A000FEF74EF90546204623F0CAF90446284665
:1070B000FEF74AF9204638BD37B504460191FEF780
:1070C0003FF901990546204623F07AF904462846FF
:1070D000FEF73AF9204603B030BD38B50546FEF755
:1070E0002FF90446284623F0B3F92046BDE838407E
:1070F000FEF72AB930B50446074B586800B930BDD1
:1071000085692D78A54205D145688D4202D1457823
:107110009542F4D00833F0E7A8BD03003C220021DB
:1071200023F0D5B938B5054600B390F83830446B34
:10713000012B13D164B1237A012B02D1606800F0D6
:10714000FDFE20460C2100F03FF92046FFF7C5FF69
:107150002846BDE838403C2100F036B9002CF7D075
:10716000036820469B695B699847F1E738BD0000DA
:1071700038B505460C4659B13C22002123F0A7F949
:10718000A3691B699847686320B100202C6038BD53
:107190000148FCE70148FAE7009FFFFF809EFFFFE0
:1071A0002DE9F043D0F800900446884615461E4667
:1071B0008BB0B9F1000F01D1304831E090F8383090
:1071C000012B39D12422476B002101A823F07FF93C
:1071D0006A07F1D13B7A002BEED199F80020102AF2
:1071E00021D80D2A02D8023A052A1ED84FF410538E
:1071F000ADF804304FF4407304933B4653F8042B2E
:1072000041460592EA1DD20801A800F090FF10F156
:10721000860F0AD058B18D30194818BF6FF06F0033
:107220000BB0BDE8F083263ADEE71648F8E7012305
:107230003B7265602672F3E7D9F810309B0703D4E0
:10724000D9F804309342B7D1012E6560267204D07C
:1072500099F80130033B022B09D8D9F818309B6804
:107260002A464146606B0BB0BDE8F0431847002E3C
:10727000A2D1D9F81830DB68F2E700BF009FFFFF0A
:10728000809EFFFF809FFFFF38B5036805461446C8
:10729000BBB190F83820012A11D0102C0FD81A69F0
:1072A000D20703D4DB689C420BD31C465CB1224658
:1072B00005F1200023F0E4F800202C6338BD0348DA
:1072C000FCE70348FAE72046F8E700BF809FFFFF8E
:1072D000009FFFFFF0B40568049F2DB390F838407D
:1072E000012C02D11348F0BC704700243C606C694B
:1072F000E4B195F801C0BCF1010F0BD1A24217D146
:107300003A60AA6954680A46A446F0BC90F908108D
:10731000406B60479942E5D1C3692BB9B2FBF4F3E6
:1073200004FB1322002ADDD00348DCE70348DAE738
:107330000348D8E7809FFFFF009FFFFF809CFFFF6F
:10734000809DFFFF0168034610B5E1B190F8380059
:10735000012801D10D4810BD002010604A78D41ECC
:10736000042CF8D9A2F10904012CF4D909784C397C
:107370000129F0D9012AEDD1DB698342A0F5C5408E
:1073800008BF0020E7E70248E5E700BF809FFFFF56
:10739000009FFFFF10B5044602F03AFF2046BDE80B
:1073A0001040FFF79ABE10B524210120FFF784FE9C
:1073B000044608B102F028FF204610BD02F049BF84
:1073C00002F02CBF02F047BF0A4619B1024B002160
:1073D0001B681847704700BF5C0C002000F4E040B9
:1073E000B0F5805F04D0A0F5005358425841704773
:1073F000012070470E4B0340B3F1607F06D1B1F519
:10740000885F14BF6FF0860000207047B3F1707F73
:107410000BD101F4E043B3F5005F06D111F4E06F46
:107420000CBF6FF08600002070476FF08600704739
:107430000000C07F8A42F8B507460D4600F0218162
:107440009B4822F0FF01814210D09A4C22F4FF7336
:1074500023F00103A34209D0974B994206D09749E4
:1074600022F47F7323F003038B4223D125F0FF0125
:10747000814210D08F4825F4FF7323F0010383422B
:1074800009D08D4B994206D08C4925F47F7323F0A7
:1074900003038B420ED115F0FF030BD0884943F054
:1074A00000738B4206D16A4032F0FF030CBF01200B
:1074B0000020F8BD05F0FE43B3F1A06F17D102F034
:1074C000FE43B3F1A06F40F0DE8082EA050333F49F
:1074D0007E1340F0D88015F40040EAD0C5F3054093
:1074E000C2F3054290428CBF00200120E1E7B3F1D6
:1074F000407F40F0B38002F0FE43B3F1407F40F0A4
:10750000C28082EA050333F47E1640F0BC8039461F
:107510002846FFF76FFF002840F0B580694C12F451
:107520007C1C04EA020438D0B4F1607FC2F3054C3D
:107530007AD16549D3B243F000738B4278D003F11E
:107540007E410439012975D960498B4276D00131D9
:107550008B4275D001318B4274D001318B426BD09C
:1075600001318B426AD001318B4269D003318B42A9
:1075700064D001318B4263D001318B4262D0013142
:107580008B4208BF402615F47C1FC5F305435BD131
:10759000664514BF002001208BE7B4F1607F2BD13A
:1075A0004949D3B243F000738B426ED003F17E4160
:1075B000043901296CD945498B426FD001318B4286
:1075C0006FD001318B426FD001318B4263D00131DA
:1075D0008B4263D001318B4263D003318B425DD04B
:1075E00001318B425DD001318B425DD001318B4244
:1075F00008BF4FF0400C9CE7B4F1707FC3D107F493
:10760000E043B3F5005F05D14FF0010CC7F302234F
:107610000CFA03FC07F4E043B3F5005FB3D1012695
:10762000C7F302239E40AEE7B4F1707FABD1F1E720
:107630001026A8E71426A6E74026A4E71C26A2E702
:107640002026A0E730269EE712F47C1F01D1B3422A
:1076500017D02A047FF52DAF634544E7B3F1106FCF
:1076600011D125F01F6323F4702363B902F0FE43A8
:10767000B3F1106F07D11648104040F01060A842D7
:1076800087E7012015E7002013E74FF0100C50E7C3
:107690004FF0140C4DE74FF0400C4AE74FF01C0C34
:1076A00047E74FF0200C44E74FF0300C41E700BFB4
:1076B0000013000600020006000900060004000690
:1076C000FF0000020000C07F03000002080000026B
:1076D0000000FFF67FB500F0FE46B6F1106F0D46D4
:1076E00003D06FF0850004B070BD20F01F6424F457
:1076F0007024002CF5D10A9C0294099C0194089CEA
:10770000009401F0CFFB10F1860FECD16B681B0ADF
:10771000E9D1E6E72DE9F843884617461C4601F013
:1077200095FC0546002859D1D8F80060B6F80090BD
:1077300009F4E043B3F5804FF36808BF27F0010771
:1077400037EA030342D1002C48D02F4A24F0FF032C
:10775000934211D02D4924F4FF7222F001028A4293
:107760000AD02B4A934207D024F47F7222F00302FE
:1077700001F500718A4234D114F0FF0231D0224960
:107780008B4211D0214824F4FF7121F00101814284
:107790000AD01F498B4207D024F47F7323F00303E0
:1077A000A1F5A0618B4204D142F00073194A9342C3
:1077B0001ED0224648463169FFF73CFE074668B9AD
:1077C000224648467169FFF735FED0B96FF084054F
:1077D00000233046C8F8003001F086FC2846BDE89A
:1077E000F88304F0FE43B3F1407F04D12304E0D5D5
:1077F0006FF08605ECE7B3F1A06FF7D0054B9C4224
:10780000D6E73D46EAE700BF001300060002000687
:1078100000090006FF00000238B5037904460D4652
:1078200033B9A36820462B6001F05EFC38B938BD3F
:10783000D0E9081201F01CFD0028F2D0F7E7002380
:107840002B60F4E700F0FE43B3F1407F70B50546CE
:107850000E4640F09980FFF7CDFD002840F096805D
:1078600015F47C1F05D0C5F30543032B13700DD809
:107870006BE04C4B2B40B3F1607F69D14A49EBB2CE
:1078800043F000738B4231D110231370454C2C40D0
:10789000B4F1607F6AD14449EAB242F000728A4290
:1078A00075D002F17E410439012972D93F498A42DB
:1078B00071D001318A4270D001318A426FD00131DA
:1078C0008A4211D001318A4265D001318A4264D0A6
:1078D00003318A425FD001318A425ED001318A424F
:1078E0005DD001318A424FD140214BE003F17E410E
:1078F0000439012901D81423C7E72C498B4201D14F
:107900001C23C2E72A498B4201D12023BDE7294924
:107910008B4201D13023B8E727498B4201D1402364
:10792000B3E726498B42EBD001318B42EDD00331D6
:107930008B42E5D001318B42E7D001318B42E9D057
:1079400001318B42EBD0002313706FF085001DE0F6
:10795000B3F1707FF7D101F4E043B3F5005FF2D1EA
:107960000123C1F302218B40DBB27EE7B4F1707FCB
:107970000AD106F4E042B2F5005F05D10121C6F359
:10798000022291408B4201D96FF0860070BD102118
:10799000F8E71421F6E71C21F4E72021F2E7302173
:1079A000F0E700BF0000C07F0300000208000002F3
:1079B000090000020A0000020B0000020C00000295
:1079C0002DE9F047174624220D460021044692B0C7
:1079D0000DEB02009A46DDE91A868DF81F10DDF8DE
:1079E000709022F074FD1D9B2046002B18BF4FF4B1
:1079F00080622B4608BF4FF4006208A9FFF78AFE99
:107A0000044620BBDDF820C009ACBCE80F000FC461
:107A10009CE8070084E807002846BDF824100DF113
:107A20001F02FFF70FFF044688B99DF81F30B342CD
:107A300024D8CDE90339CDE901A8089900972B4650
:107A4000D1E9081209A801F0DAF9044620B10023AF
:107A5000C9F800608DF81F309DF81F00B04204D2B5
:107A6000321A2121404422F032FD089801F03CFBFB
:107A7000002C18BF204612B0BDE8F0876FF08904D3
:107A8000E5E700232DE9F341D0E9016804460F46FC
:107A900030461146136001F031FB054688B9304687
:107AA00001F02EFB054660B9F6B276B9B8F1000FC9
:107AB00005D1E36823F47F4323F0030363B16FF040
:107AC0008605284602B0BDE8F0810146A06801F0B5
:107AD00012FA0028EDD1F2E74FF6F87362889A4265
